:10260000024497008F828E83E0540100000070F82E
:102610002278FFE4F6D8FD0245250227F7E864801A
:10262000F8E933E83360110460F0ED33EC337009FE
:10263000E8FCE9FDEAFEEBFF220460DED3EB9FEA53
:102640009EE99DE8C2E78CF0C2F795F0400CE8CC1B
:10265000F8E9CDF9EACEFAEBCFFB1227C285D0F02C
:102660005804700320D5B3E80470075002B2D502B5
:10267000280192D5EC0460F7E4CCC0E0C398F86080
:102680003B94186008400DD0E0FB0227D9E4FBFA28
:10269000C9FC8028E830E406E4C9FBE4CAFCE83061
:1026A000E305E4C9CACBFCE854076010F8C3E9139A
:1026B000F9EA13FAEB13FBEC13FCD8F130F52FC356
:1026C000E49CFCEF9BFFEE9AFEED99FDD0E0FBEF62
:1026D0004E4D4C701222DB030227FEEC2CFCEF3334
:1026E000FFEE33FEED33FDED30E7EB0227D9EF2BA4
:1026F000FFEE3AFEED39FDD0E0FB50130BBB0003BB
:10270000022801ED13FDEE13FEEF13FFEC13FC02A4
:1027100027D974F8CC6480CCC86480C8F582046082
:102720004FC3EB9FF5F0EA9E42F0E99D42F0E89C32
:1027300045F0603C501DE5825FFFE582D313CB5B23
:10274000CBF42B5582FB50280ABA002409B900208B
:1027500008801DE5825BFBE582D313CF5FCFF4C316
:10276000132F5582FF50090EBE00050DBD00010C50
:10277000C3EB9FF5F0EA9E42F0E99D42F0E89C45EC
:10278000F06007CC4820E701B3EC22EDD2E7CD336F
:10279000EC3392D524814006E4FFFEFDFC22FCE4EC
:1027A000CFCECDCC24E0501174FF80EDC3CC13CC40
:1027B000CD13CDCE13CECF13CF0470F030D5DE02C3
:1027C0002CD9E9D2E7C933E833F892D5EDD2E7CD79
:1027D00033EC33FC5002B2D522EC30E7100FBF00CF
:1027E0000C0EBE00080DBD00040BEB6014A2D5EB6F
:1027F00013FCED92E7FD2274FFFCFDFEFF22E48056
:10280000F8A2D574FF13FC7D80E480EFF920E73651
:1028100024F950037907E4F42402FBE58215827061
:10282000021583DBF6E024FB501BE96014E4F0E5BD
:1028300082158270021583E004F0B40A08E4F0D92E
:10284000EE7401F00A22C2D522ED33EC3392D5FAB0
:10285000602AB4FF33EDC2E77BFF60067A28796E09
:10286000E4227A28797720D5047A287972224E6179
:102870004E002B494E46002D494E4600E47A08F0A2
:10288000A3DAFC7B00740722C083C082ECC0E0EDB9
:10289000C0E0EEC0E0EFC0E0EA75F010A4CAABF013
:1028A00075F04DA42BFBE435F0FCEA2410FAEB3470
:1028B000C5FBEC34D9FCEDC2E7FF75F056A4F42457
:1028C00011C5F0F434C58FF0A42AE5F03BE43CF0E8
:1028D00020E714122B24D0E0FFD0E0FED0E0FDD0A2
:1028E000E0FC122A578014F404122B24D0E0FFD00D
:1028F000E0FED0E0FDD0E0FC12294ED082D083E093
:10290000FAEDD2E7CD33EC332482FBE4C3CF33CFEF
:10291000CE33CECD33CD33DBF37B0775F00A846045
:1029200004F0A31B0AE5F0F0A38FF0740AA4FFAC37
:10293000F08EF0740AA42CFEACF050010C8DF074F3
:102940000AA42CFDE435F0F0A3DBDE740722EC4D85
:102950006011E8497017ED33EC3304600DE4FCFFBF
:10296000FEFD22E933E8330470F80227F71227C28C
:1029700058046009E4CC248150062850090228013B
:102980002840030227FEC0E0EB4A7044B98006D01D
:10299000E0FB0227EDEF4E701CBD8008EBFFEAFE66
:1029A000E9FD80EBE98DF0A4FEE5F0022A37E9CDE0
:1029B000F9EAFEEBFFEF89F0A4FCE5F0CE89F0A484
:1029C0002EFFE435F0CD89F0A42DFEE435F08067CC
:1029D000EF4E7005BD80D780C3EF8BF0A4ACF0EE56
:1029E0008BF0A42CFCE435F0F8EF8AF0A42CE5F091
:1029F00038FCE433CB8DF0A42CFCE5F03BF8EE8AF8
:102A0000F0A42CFCE5F038F8E433CF89F0A42CFCDA
:102A1000E5F038CF3400CE89F0A42FFFE5F03EFE7C
:102A2000E433C98DF0A42EFEE5F039CD8AF0A42F51
:102A3000FFE5F03EFEE43DFD33D0E0FB50070BBB6D
:102A4000000F022801EC2CFCEF33FFEE33FEED33D8
:102A5000FD0227D9022801EC5D046005E8590470E5
:102A6000030227F71227C2580460F6EC4860F2EC24
:102A70007004FDFEFF22C860DB2481C85009C398A2
:102A8000600250060227FE9850CAF582E9294B4A97
:102A90007005AB820227ED75F0007C1A7880C3EFD9
:102AA0009BEE9AED99400DC3EF9BFFEE9AFEED99D8
:102AB000FDE842F0DC23ACF0D0E0FFD0E0FED0E057
:102AC000FDAB8220E7101BEB60BAEC2CFCEF33FF70
:102AD000EE33FEED33FD0227D9E803F830E705C0F9
:102AE000F075F000EF2FFFEE33FEED33FD40B83010
:102AF000E7C280AA3F8000004120000042C80000D9
:102B0000447A0000461C400047C35000497424002A
:102B10004B1896804CBEBC205A0E1BCA6753C21C71
:102B2000749DC5AEFB60065407601C2323122B5214
:102B3000EB54386009122B3E122B4D12294EECF843
:102B4000EDF9EEFAEFCB22EB122B4D80F154380366
:102B5000241C902AF4FE93FC0EEE93FD0EEE930ED1
:102B6000CE93FF22BB010689828A83E0225002E7CE
:102B700022BBFE02E32289828A83E49322BB010CFA
:102B8000E58229F582E5833AF583E0225006E925BE
:102B900082F8E622BBFE06E92582F8E222E58229D8
:102BA000F582E5833AF583E49322BB010689828AA4
:102BB00083F0225002F722BBFE01F322E88FF0A43B
:102BC000CC8BF0A42CFCE98EF0A42CFC8AF0EDA4B4
:102BD0002CFCEA8EF0A4CDA8F08BF0A42DCC3825E7
:102BE000F0FDE98FF0A42CCD35F0FCEB8EF0A4FEC7
:102BF000A9F0EB8FF0A4CFC5F02ECD39FEE43CFC5C
:102C0000EAA42DCE35F0FDE43CFC2275F008758277
:102C100000EF2FFFEE33FECD33CDCC33CCC5823366
:102C2000C5829BED9AEC99E58298400CF582EE9B6B
:102C3000FEED9AFDEC99FC0FD5F0D6E4CEFBE4CD89
:102C4000FAE4CCF9A88222B800C1B90059BA002D23
:102C5000EC8BF084CFCECDFCE5F0CBF97818EF2FDC
:102C6000FFEE33FEED33FDEC33FCEB33FB10D7030B
:102C7000994004EB99FB0FD8E5E4F9FA227818EFB4
:102C80002FFFEE33FEED33FDEC33FCC933C910D713
:102C9000059BE99A4007EC9BFCE99AF90FD8E0E420
:102CA000C9FAE4CCFB2275F010EF2FFFEE33FEEDF6
:102CB00033FDCC33CCC833C810D7079BEC9AE899C6
:102CC000400AED9BFDEC9AFCE899F80FD5F0DAE4A8
:102CD000CDFBE4CCFAE4C8F922C3E49FFFE49EFEF6
:102CE000E49DFDE49CFC22EB9FF5F0EA9E42F0E9B6
:102CF0009D42F0EC6480C864809845F022EB9FF51B
:102D0000F0EA9E42F0E99D42F0E89C45F022E8603E
:102D10000FECC313FCED13FDEE13FEEF13FFD8F120
:102D200022E86010ECA2E713FCED13FDEE13FEEFBA
:102D300013FFD8F022E8600FEFC333FFEE33FEED50
:102D400033FDEC33FCD8F122BB010789828A830270
:102D5000304C5005E9F8023040BBFE05E9F802307E
:102D60005889828A83023064BB010789828A830280
:102D70002D825005E9F8023074BBFE05E9F80230F7
:102D80008022ECF0A3EDF0A3EEF0A3EFF022A42557
:102D900082F582E5F03583F58322F8E0FBA3A3E01A
:102DA000F925F0F0E582158270021583E0FA38F01B
:102DB00022EBF0A3EAF0A3E9F022D083D082F8E47A
:102DC000937012740193700DA3A393F8740193F59B
:102DD000828883E4737402936860EFA3A3A380DF07
:102DE000E5192582F582E5183583F583B518048544
:102DF00082192210AF06858219F51822858219F5ED
:102E000018D2AF22EC8EF0A4CCC5F0CCCDF8EFA454
:102E1000CEC5F02DFDE43CFCE8A42EC8C5F03DFD78
:102E2000E43CFCEFA4FFE5F028FEE43DFDE43CFCBF
:102E300022EF4E6012EF60010EEDBB010B89828A1A
:102E400083F0A3DFFCDEFA2289F05007F709DFFCEC
:102E5000A9F022BBFEFCF309DFFCA9F022E709F68A
:102E600008DFFA8046E709F208DFFA803E88828CA4
:102E700083E709F0A3DFFA8032E309F608DFFA807E
:102E80006EE309F208DFFA806688828C83E309F03A
:102E9000A3DFFA805A89828A83E0A3F608DFFA80EA
:102EA0004E89828A83E0A3F208DFFA804280D280D2
:102EB000FA80C680D4805580F28029801080A68058
:102EC000EA809A80A880DA80E280CA802988848C8F
:102ED0008589828A83E493A30586F0A30586DFF5BE
:102EE000DEF3800B89828A83E493A3F608DFF9EC92
:102EF000FAA9F0EDFB2288848C8589828A83E0A37D
:102F00000586F0A30586DFF6DEF480E389828A83F6
:102F1000E493A3F208DFF980D688F0EF60010E4E4B
:102F200060CD88F0ED2402B4040050C3F582EB2498
:102F300002B4040050B92323458223902EAD73E7D9
:102F400009F60870FA8046E709F20870FA803E88B0
:102F5000828C83E709F0A370FA8074E309F60870A5
:102F6000FA806CE309F20870FA806488828C83E34B
:102F700009F0A370FA805889828A83E0A3F608706A
:102F8000FA804C89828A83E0A3F20870FA8040803C
:102F9000D280FA80C680D4805180F2802780108051
:102FA000A680EA809A80A880DA80E280CA8027889A
:102FB000848C8589828A83E493A30586F0A30586A1
:102FC00070F5800B89828A83E493A3F60870F9EC8C
:102FD000FAA9F0EDFB2288848C8589828A83E0A39C
:102FE0000586F0A3058670F680E589828A83E493DE
:102FF000A3F20870F980D888F0ED2402B4040050E0
:10300000CEF582EB2402B4040050C423234582236E
:10301000902F8F73C5F0F8A3E028F0C5F0F8E58293
:10302000158270021583E038F022A3F8E0C5F02580
:10303000F0F0E582158270021583E0C838F0E822CE
:10304000E6FC08E6FD08E6FE08E6FF22E0FCA3E059
:10305000FDA3E0FEA3E0FF22E2FC08E2FD08E2FEA1
:1030600008E2FF22E493FC740193FD740293FE7462
:103070000393FF22ECF608EDF608EEF608EFF622D1
:10308000ECF208EDF208EEF208EFF222C0E0C0F038
:10309000C083C082C085C084C086758600C0937519
:1030A0009300C0D075D000C000C001C002C003C0F2
:1030B00004C005C006C007900C477401F0A3E4F0FB
:1030C000A304F0900C46E4F090028EE0FF900C46D2
:1030D000E0FEC39F502D74042EF582E43400F58386
:1030E000E0FF7E001258B7900C46E02404F582E41D
:1030F0003400F583E0FF7E00125505900C46E00495
:10310000F080C59006B6E064016003023553900C70
:103110004B748EF0900C46E4F090028EE0FF900C21
:1031200046E0FEC39F4003023521900DA9743AF09A
:1031300074042EF582E43400F583E0FF75F003A4F7
:103140002426F582E43407F583E0700302324090D0
:103150000C46E0EF75F006A424BBF582E43406F5D6
:1031600083E0FF900C47E0FD24A9F582E4340DF5DF
:1031700083EFF074042EF582E43400F583E075F0FB
:1031800006A424BCF582E43406F583E0FF74AA2D7E
:10319000F582E4340DF583EFF0900C46E0FF240453
:1031A000F582E43400F583E075F006A424BDF582D1
:1031B000E43406F583E0FE74AB2DF582E4340DF5BE
:1031C00083EEF074042FF582E43400F583E075F0AB
:1031D00006A424BEF582E43406F583E0FF74AC2D2A
:1031E000F582E4340DF583EFF0900C46E0FF240403
:1031F000F582E43400F583E075F006A424BFF5827F
:10320000E43406F583E0FE74AD2DF582E4340DF56B
:1032100083EEF074042FF582E43400F583E075F05A
:1032200006A424C0F582E43406F583E0FF74AE2DD5
:10323000F582E4340DF583EFF0900C47E02406F0BE
:10324000900C46E02404F582E43400F583E0FF7539
:10325000F003A42427F582E43407F583E070030229
:103260003354900C46E0FEEF75F006A424F5F58289
:10327000E43402F583E0FF900C47E0FD24A9F582D9
:10328000E4340DF583EFF074042EF582E43400F598
:1032900083E075F006A424F6F582E43402F583E0B9
:1032A000FF74AA2DF582E4340DF583EFF0900C46FF
:1032B000E0FF2404F582E43400F583E075F006A411
:1032C00024F7F582E43402F583E0FE74AB2DF58239
:1032D000E4340DF583EEF074042FF582E43400F548
:1032E00083E075F006A424F8F582E43402F583E067
:1032F000FF74AC2DF582E4340DF583EFF0900C46AD
:10330000E0FF2404F582E43400F583E075F006A4C0
:1033100024F9F582E43402F583E0FE74AD2DF582E4
:10332000E4340DF583EEF074042FF582E43400F5F7
:1033300083E075F006A424FAF582E43402F583E014
:10334000FF74AE2DF582E4340DF583EFF0900C4759
:10335000E02406F0900C46E0FF2404F582E43400FB
:10336000F583E0FE75F003A42428F582E43407F524
:1033700083E07003023469900C46E0FDEE75F006C0
:10338000A4248FF582E43402F583E0FE900C47E03C
:10339000FC24A9F582E4340DF583EEF074042DF5D8
:1033A00082E43400F583E075F006A42490F582E40D
:1033B0003402F583E0FE74AA2CF582E4340DF58323
:1033C000EEF0900C46E0FE2404F582E43400F58330
:1033D000E075F006A42491F582E43402F583E0FD63
:1033E00074AB2CF582E4340DF583EDF074042EF506
:1033F00082E43400F583E075F006A42492F582E4BB
:103400003402F583E0FE74AC2CF582E4340DF583D0
:10341000EEF0900C46E0FE2404F582E43400F583DF
:10342000E075F006A42493F582E43402F583E0FD10
:1034300074AD2CF582E4340DF583EDF074042EF5B3
:1034400082E43400F583E075F006A42494F582E468
:103450003402F583E0FE74AE2CF582E4340DF5837E
:10346000EEF0900C47E02406F074042FF582E4346B
:1034700000F583E025E02490F582E43406F583E04E
:10348000FEA3E024A8F582740D3EF583743AF09013
:103490000C477401F0A3E4F0900C46E02404F5829C
:1034A000E43400F583E0F925E02490F582E4340665
:1034B000F583E0FEA3E0FF900C48E0FDD3EF9D74A0
:1034C00080F8EE648098402BE0FF24A9F582E43474
:1034D0000DF583E0FEEF900C49E02DFDE433FC7424
:1034E0004B2DF582740C3CF583EEF0900C48E00413
:1034F000F080A5E925E02490F582E43406F583E028
:10350000A3E0FF900C49E02FF07E007F147D007B4C
:10351000017A0D79A9122E31900C46E004F00231A7
:10352000197B017A0C794B900721E0A3E014FD127E
:103530005B6E900721E0FCA3E0FD244AF582740C49
:103540003CF583EFF07B017A0C794B125212900616
:10355000B6E4F0D007D006D005D004D003D002D016
:1035600001D000D0D0D093D086D084D085D082D066
:1035700083D0F0D0E032E50B2419F582E4340CF569
:1035800083E0050B22900C16300803900C19E475AB
:10359000F001122D9A022B642001E97F2ED20180C6
:1035A00018EF540F2490D43440D4FF30050BEF248F
:1035B000BFB41A0050032461FFE50C6002150C052E
:1035C0000FE50F7002050E30080E900C16E475F032
:1035D00001122D9AEF022BAA025CE27403D208803A
:1035E00003E4C208F50B900C16122DB1E4F50CF5AE
:1035F0000EF50FE50C60077F201235B980F5750DCB
:10360000FFC202C201C203C204C206C207C209123B
:103610003585FF700D3008057F001235CAAF0FAE3B
:103620000E22B4255FC2D5C205123585FF24D0B461
:103630000A00501A75F00A780C30D50508B6FF015B
:1036400006C6A426F620D5047002D20480D924CF61
:10365000B41A00EF5004C2E5D2050238BCD2028091
:10366000C6D20180C0D20380BCD2D580BAD2068037
:10367000B47F201235B92003077401B50C0040F166
:10368000123576FF1235B90235F3D209D20780958B
:10369000123576FB123576FA123576F94A4B7006FA
:1036A00079BA7A397BFF20032EE50C602A7E008EE2
:1036B00082758300122B7D60060EEE650D70F0C2E0
:1036C000D5EBC0E0EAC0E0E9C0E0EE12391DD0E081
:1036D000F9D0E0FAD0E0FB122B64FF60AAEBC0E067
:1036E000EAC0E0E9C0E01235B9D0E02401F9D0E049
:1036F0003400FAD0E0FBE50D0460DCD50DD98087FD
:10370000D20380A21238FF60F7E50D700104122881
:103710000CA90D600DE50D600914F50D1239A7EF28
:1037200060F3EA30E702F404C3995079EAF4250D16
:103730000430E701E404F50D800D1238FF60C1EAA2
:10374000050D250D12280CEA900C45F030E701E438
:10375000250D04D50D042006011412391DE4C0E026
:103760001239A7900C45E0601320E70714F01235DA
:10377000A1802204F0D0E014C0E07F001235A1E562
:103780000D6007123598150D800B30060312359821
:10379000D0E00235F3D0E00480C41238FF609EE52B
:1037A0000D0412280C900C45EAF0E50D200602608D
:1037B0000104240412391D74FF04C0E01239A71259
:1037C00035A1E50D2006026003123598D0E0B50D55
:1037D000E87F451235AB900C45E07F2B30E7047F46
:1037E0002DF404C0E01235B9D0E075F00A84C0F0C1
:1037F0001235A2D0E01235A20235F3791080027999
:1038000008C207C2098008D2D5790A8004790AC2A1
:10381000D5E50D047002F50DE4FAFDFEFF123576D4
:10382000FC7B08200213123576FD7B1030010A1252
:103830003576FE123576FF7B20EC3382D592D5505B
:1038400013C3E43001069FFFE49EFEE42002039DC3
:10385000FDE49CFCE4CBF8C202EC700CCFCECDCCE6
:10386000E824F8F870F38017C3EF33FFEE33FEED72
:1038700033FDEC33FCEB33FB994002FB0FD8E9EB53
:10388000300205F8D0E0C448B202C0E00AEC4D4E68
:103890004F78207B0070C2EAB50D0040BCC0E0123A
:1038A000391FD0F0D0E0200204C4C0E0C4B202C08E
:1038B000F01235A2D0F0D5F0EB0235F3122DBA3666
:1038C000905337FB5836614C365D4237FF4F38070F
:1038D00044380749367643380D55373A46379A45C6
:1038E00037044739DA5036652D36692E368C2B363B
:1038F0006D23368A2039C32A36254800003684E5F0
:103900000DB4FF03750D06123576FC123576FD12E7
:103910003576FE123576FF900C3E022849790AA2D0
:10392000D5200414300609B910020404B9080104B2
:10393000A2D52007025001042003689203B50C00B1
:103940005034C0E07F203004197F30A20372077228
:1039500006500F123976C203C207C206C2097F3071
:10396000800F300603E9C0E01235B9300603D0E01D
:10397000F9D0E0B50CCC3006177F30B9100C1235F9
:10398000B97F583005077F788003B908031235B92D
:103990003003057F2D0235B97F202009F87F2B20C9
:1039A00007F322920380CF7F00B40700500B243E20
:1039B000F582E4340CF583E0FF22286E756C6C29E7
:1039C00000D2021235763002F8C202780C30D501EE
:1039D00008F60236252D504349581235762403B493
:1039E00005004001E49039D5931235AA743A123596
:1039F000AAD204750C040237FBE4900BAEF0FE7FF4
:103A000025FD7B017A007919122E317E007F117D10
:103A1000007B017A007904122E31E4900BADF09016
:103A20000BADE0FFC3941150587E001258B7E47FED
:103A30000AFEFDFC12529A124C8FE47F0AFEFDFC36
:103A400012529A900BADE0FF75F003A42426F58284
:103A5000E43407F5837401F0EF75F003A42427F52F
:103A600082E43407F5837401F0EF75F003A4242891
:103A7000F582E43407F583E4F0900BADE004F080C8
:103A80009EE47F32FEFDFC12529AE4900BADF09062
:103A90000BADE0FFC3941150177E001258B7900B86
:103AA000ADE0FF7E00125322900BADE004F080DF0A
:103AB000E4FFFE1258B7E47F0AFEFDFC12529A7F23
:103AC00075125AE9900BAFE4F0A3EFF0E4900BAF5E
:103AD000F0A3F090028EF0900BADF0900BADE0FFF4
:103AE000C39411505F7E001258B7E47F0AFEFDFCBC
:103AF00012529A7F75125AE97E00900BAFEEF0A336
:103B0000EFF06471702390028EE004F0E4900BAF4C
:103B1000F0A3F0900BADE025E024B1F582E4340B86
:103B2000F583E4F0A304F08013900BADE025E024CE
:103B3000B1F582E4340BF583E4F0A3F0900BADE033
:103B400004F080977E007F257D007B017A00791943
:103B5000122E317E007F117D007B017A00790412E4
:103B60002E317E007F227D007B017A067990122E15
:103B700031E4900BADF0900BADE0FFC394115034E5
:103B8000EF25E024B1F582E4340BF583E0FEA3E0F9
:103B900064014E7017900BADE0A3E02404F582E4BD
:103BA0003400F583EFF0900BAEE004F0900BADE045
:103BB00004F080C2E4FF12609EE47F0AFEFDFC1266
:103BC000529A7F0112609EE47F0AFEFDFC12529A17
:103BD000E4900BADF0900BADE0FFC3941150587E14
:103BE000001258B7E47F0AFEFDFC12529A124B9E57
:103BF000E47F0AFEFDFC12529A900BADE0FF75F0D7
:103C000003A42426F582E43407F5837401F0EF75EC
:103C1000F003A42427F582E43407F5837401F0EF60
:103C200075F003A42428F582E43407F583E4F090CA
:103C30000BADE004F0809EE47F32FEFDFC12529A50
:103C4000900721E4F0A304F0E4900BADF090028E15
:103C5000E0FF900BADE0FEC39F4003023CF6E0FFA7
:103C60002404F582E43400F583E0FD75F003A42418
:103C700027F582E43407F583E075F006A4FCED75C2
:103C8000F003A42426F582E43407F583E075F006FA
:103C9000A42CFD74042FF582E43400F583E0FF7555
:103CA000F003A42428F582E43407F583E075F006D8
:103CB000A42D2402FDEF25E02490F582E43406F5DE
:103CC00083E4F0A3EDF074042EF582E43400F58370
:103CD000E025E02490F582E43406F583E0FEA3E0DD
:103CE000FF900722E02FF0900721E03EF0900BAD0F
:103CF000E004F0023C4D900722E004F070069007CB
:103D000021E004F022900BADEBF0A3EAF0A3E9F080
:103D1000900001E064FA7003023FB2900BADE0FB4B
:103D2000A3E0FAA3E0F8AC02AD037BFF7A5379A6D7
:103D3000122FF7900C1974FFF0A37453F0A374A71B
:103D4000F0900BADE0FBA3E0FAA3E0F912549A90D7
:103D50000C1974FFF0A37453F0A374AAF0900BAD88
:103D6000E0FBA3E0FAA3E0F912549A900C1974FF57
:103D7000F0A37453F0A374BDF0900BADE0FBA3E08F
:103D8000FAA3E0F912549A900C1974FFF0A374533B
:103D9000F0A374CDF0900BADE0FBA3E0FAA3E0F943
:103DA00012549A900C1974FFF0A37453F0A374D2B8
:103DB000F0900BADE0FBA3E0FAA3E0F912549A9067
:103DC0000C1974FFF0A37453F0A374E0F090000199
:103DD000E0FF900C1CE4F0A3EFF07B017A0B79B2CA
:103DE0001235DB900C197401F0A3740BF0A374B2BC
:103DF000F0900BADE0FBA3E0FAA3E0F912549A9027
:103E00000C1974FFF0A37453F0A374E9F0900BAD98
:103E1000E0FBA3E0FAA3E0F912549A900C1974FFA6
:103E2000F0A37453F0A374F9F090028EE0FF900CAD
:103E30001CE4F0A3EFF07B017A0B79B21235DB9032
:103E40000C197401F0A3740BF0A374B2F0900BADD5
:103E5000E0FBA3E0FAA3E0F912549AE4900BB0F06F
:103E6000A3F090028EE0FFC3900BB1E09F7480F846
:103E7000900BB0E06480984003023F96900C197458
:103E8000FFF0A37454F0A37406F0900BB0E0FEA30F
:103E9000E0FF900C1CEEF0A3EFF02404F582740018
:103EA0003EF583E0FF900C1EE4F0A3EFF07B017A77
:103EB0000B79B21235DB900C197401F0A3740BF07E
:103EC000A374B2F0900BADE0FBA3E0FAA3E0F9120B
:103ED000549A900C1974FFF0A37454F0A37413F067
:103EE000900BB0E0FEA3E0FF2404F58274003EF5E1
:103EF00083E0FD75F003A42426F582E43407F583FE
:103F0000E0FB900C1CE4F0A3EBF0ED75F003A424AF
:103F100027F582E43407F583E0FD900C1EE4F0A35E
:103F2000EDF074042FF58274003EF583E075F00324
:103F3000A42428F582E43407F583E0FF900C20E404
:103F4000F0A3EFF07B017A0B79B21235DB900C19FC
:103F50007401F0A3740BF0A374B2F0900BADE0FB0E
:103F6000A3E0FAA3E0F912549A900C1974FFF0A39D
:103F70007453F0A374A7F0900BADE0FBA3E0FAA399
:103F8000E0F912549A900BB1E004F07006900BB077
:103F9000E004F0023E62900C1974FFF0A37453F039
:103FA000A374A7F0900BADE0FBA3E0FAA3E0F91235
:103FB000549A227B007A4079807D027C001260EA6C
:103FC0009040827418F07B007A4079847DFF7C0FEA
:103FD0001260EA904086741BF07B007A4079887DFD
:103FE0000B7C001260EA90408A7419F07B007A40E2
:103FF000798C7D2F7C001260EA90408E7418F07BE3
:10400000007A4079907DE77C031260EA90409274D8
:104010001BF09043007406F09042007452F07B0C49
:104020007A01790F1261839046A1EFF07B007A420A
:1040300079227D107C071260EA7B007A4279207D2C
:10404000517C121260EAE4900BACF07F19FEFDFC8B
:10405000900BA8122D82900BA8E0A3E0A3E0FEA392
:10406000E0D39400EE9400404AA3E0FF6403604371
:10407000904225E05401FEEF25E04E5403900BAC36
:10408000F0E47FE07E01FDFC125B00900BA8E0FCF9
:10409000A3E0FDA3E0FEA3E0FF74FFEF24FFFFEE2B
:1040A00034FFFEED34FFFDEC34FFFC900BA8122D25
:1040B0008280A3900BA8E0A3E0A3E0FEA3E04E70F3
:1040C000057F031262B17B007A4079047D007C0198
:1040D0001260EA9040047407F0904006E4F09040CB
:1040E000087448F0904004E4F0904009F0904001DA
:1040F0007402F09043A2E0441FF022900396E0F592
:104100000A7B017A037996900416E0A3E014FD126D
:104110005B6E900416E0FCA3E02495F58274033CEA
:10412000F583E0B50703D38001C34006E490041A89
:10413000F022E50A122DBA41C80041B00141BC028B
:1041400041CC0341D00441E60541A406420A09419D
:10415000F80A41808041988141848241A08341884E
:1041600084418C8541908841948A419C8B422C8C5F
:1041700042308D42348E42388F423C900000423FA4
:104180001262B422125C5F22125C5E221262B622BC
:104190001262B82212598B221262B522125DBC2221
:1041A0001262B722900397E0FEA3E0FF125EAD22F9
:1041B000900397E0FEA3E0FF125FA822900397E030
:1041C000FEA3E0FF12586C22125FD022125F692218
:1041D0007F087E00125165EF60067F01125F542256
:1041E000E4FF125F5422125900EF60067F01125F54
:1041F0005422E4FF125F5422125D54EF60067F01E7
:10420000125F5422E4FF125F54227F01125F54E4D4
:104210007FE87E03FDFC12529AE4FF126259E47FAC
:10422000E87E03FDFC12529A1261BB22125CB92295
:10423000124AAC2212620F221246BC22124F2A22CC
:10424000900BADEEF0A3EFF0A3EDF01261F7900B41
:10425000B1EFF01261B1900BB2EEF0A3EFF0900B62
:10426000ADE0FCA3E0FD6F7002EC6E700302436FE3
:104270009043A2E05401900BB0F0A3E0703BA3E0A8
:10428000FEA3E0FF4E6004ED4C702EEF4E70117BEC
:10429000027A4079801260EC904082E054BFF022B4
:1042A000904082E04440F07B027A407980900BADF0
:1042B000E0FCA3E0FD1260EC22900BB0E0605390B4
:1042C0004001E4F090401004F0904014E4F090407D
:1042D00008E0547FF0904082E05408600A900BADF3
:1042E000E07002A3E0702B7B027A407902900BB25F
:1042F000E0FCA3E0FD1260EC9040017407F09040F8
:1043000001E0540170F89043A2E054FEF0904001A7
:10431000E4F09043A2E05401602F7B027A407902DE
:10432000900BADE0FCA3E0FD1260EC900BAFE06001
:10433000047F0280027F00EF4401904001F0904032
:1043400001E05401602980F6227B027A4079809056
:104350000BADE0FCA3E0FD1260EC9043A2C083C073
:1043600082E0FF900BB0E0FEEF4ED082D083F022CF
:10437000E4F5091257D0EF7003024496E509C3949F
:104380000640030244961255CE8F08E51214604988
:1043900014606014700302442614700302447424F1
:1043A0000470D0851615851716850817E516B43ADA
:1043B00011E517B43A0CE4F515F516F51775120169
:1043C00080B1E515B43FACE516B40DA7E517640A56
:1043D00070A1FFFE125EAD809A900001E06508605A
:1043E00004E5087004C2008002D200E4F5147512DE
:1043F000028080850814E514D394015008E4F51474
:10440000F512024373E514D394804008E4F514F5E3
:1044100012024373E4F5132000067512030243737E
:1044200075120402437374C32513F582E4340DF549
:1044300083E508F00513E513C39514500302437395
:10444000200025AF147E0078967C037D017B017AE5
:104450000D79C3122F19900416E4F0A3E514F0901F
:10446000041A7401F01240FBE4F513F514F512057B
:10447000090243731514E5146003024373F513F541
:10448000147F01126253E4FF126253E4F51205092E
:104490000243730243732275930078007583467557
:1044A00082E8E04401F00090480074C0F07581217A
:1044B0009076BCE4F0A3F0A3F0A3F0907010F0901D
:1044C0007019F0907020F09076007410F0907604DF
:1044D000E4F0A3F0A3F0A3F0907800780008740053
:1044E000F0A37408F0E8B8040274FFA3F0A37422E8
:1044F000F0A374BCF0A37476F0A3E4F0A3E8147501
:10450000F008A4F0A3B804D59070107401F0907076
:1045100014F07E707F18122604907010F0EA900E4E
:10452000D9F002261175181F7519FD1245B1024503
:104530006C024E5FE493A3F8E493A34003F680017A
:10454000F208DFF48029E493A3F85407240CC8C3CD
:1045500033C4540F4420C8834004F456800146F607
:10456000DFE4800B0102040810204080905629E40B
:104570007E019360BCA3FF543F30E509541FFEE465
:1045800093A360010ECF54C025E060A840B8E49327
:10459000A3FAE493A3F8E493A3C8C582C8CAC58369
:1045A000CAF0A3C8C582C8CAC583CADFE9DEE780EE
:1045B000BE7B007A4679E8126183EF4401FD7B00FF
:1045C0007A4679E812618F124FF47B017A507903B1
:1045D000126183EF4402FD7B017A50790312618FEF
:1045E0007B017A507913126183EF4402FD7B017ADB
:1045F00050791312618F9043A0E04440F09043C281
:10460000E04410F07B087A1F79E8900BADE4F0A34A
:104610007451F0A37402F07F087E00125AB57B0833
:104620007A1F79F0900BADE4F0A37451F0A374C23B
:10463000F07F087E00125AB57C657D827B007A513E
:1046400079F27F087E00125D097C657D8A7B007AA5
:104650005179107F0A7E00125D097C657D947B0094
:104660007A5179227F087E00125D099044F474012A
:10467000F0904322E04408F09046ECE0C3940550EB
:1046800006904689743AF090480074F1F0123FB3F6
:10469000125E597B007A4379A0C003C002900BAD33
:1046A000EBF0A3EAF0A374B0F0D002D0037F0E7E4B
:1046B00000125AB59043B0E054FDF022E4FF90039D
:1046C00097E0FEA3E0FD5404FC1313543FFCEE7589
:1046D000F003A42426F582E43407F583ECF0ED54CE
:1046E00002FCC313FCEE75F003A42427F582E43426
:1046F00007F583ECF0ED5401FDEE75F003A42428DA
:10470000F582E43407F583EDF0900721E4F0A3048B
:10471000F0E490028EE0FEEFC39E40030247B174C6
:10472000042FF582E43400F583E0FE75F003A42441
:1047300027F582E43407F583E075F006A4FDEE75F5
:10474000F003A42426F582E43407F583E075F0062F
:10475000A42DFE74042FF582E43400F583E0FD758A
:10476000F003A42428F582E43407F583E075F0060D
:10477000A42E2402FBED25E02490F582E43406F516
:1047800083E4F0A3EBF074042FF582E43400F583A6
:10479000E025E02490F582E43406F583E0FCA3E014
:1047A000FD900722E02DF0900721E03CF00F02473A
:1047B00012900722E004F07006900721E004F02236
:1047C000E4900DBFF0A3F0A3EEF0A3EFF07F3C1256
:1047D0005AE9900DBFEFF07F3B125AE9900DC0EF00
:1047E000F0A3E0FCA3E0FD9006BB75F006122D8E51
:1047F000EC75F006A42583F583EFF0900DBFE0FF84
:104800009006BC75F006ED122D8EEC75F006A42511
:1048100083F583EFF0E4900DBFF0A3F07F3E125AD2
:10482000E9900DBFEFF07F3D125AE9900DC0EFF017
:10483000A3E0FCA3E0FD9006BD75F006122D8EEC02
:1048400075F006A42583F583EFF0900DBFE0FF908F
:1048500006BE75F006ED122D8EEC75F006A42583CC
:10486000F583EFF0E4900DBFF0A3F07F40125AE91A
:10487000900DBFEFF07F3F125AE9900DC0EFF0A30B
:10488000E0FCA3E0FD9006BF75F006122D8EEC75DE
:10489000F006A42583F583EFF0900DBFE0FF9006AE
:1048A000C075F006ED122D8EEC75F006A42583F58B
:1048B00083EFF0E4900DBFF0A3F022E4900DBFF081
:1048C000A3F0A3EEF0A3EFF07F44125AE9900DBFDE
:1048D000EFF07F43125AE9900DC0EFF0A3E0FCA384
:1048E000E0FD9002F575F006122D8EEC75F006A431
:1048F0002583F583EFF0900DBFE0FF9002F675F091
:1049000006ED122D8EEC75F006A42583F583EFF0ED
:10491000E4900DBFF0A3F07F46125AE9900DBFEF6F
:10492000F07F45125AE9900DC0EFF0A3E0FCA3E040
:10493000FD9002F775F006122D8EEC75F006A42599
:1049400083F583EFF0900DBFE0FF9002F875F0065D
:10495000ED122D8EEC75F006A42583F583EFF0E4BF
:10496000900DBFF0A3F07F48125AE9900DBFEFF011
:104970007F47125AE9900DC0EFF0A3E0FCA3E0FDE1
:104980009002F975F006122D8EEC75F006A42583C1
:10499000F583EFF0900DBFE0FF9002FA75F006EDA1
:1049A000122D8EEC75F006A42583F583EFF0E490CC
:1049B0000DBFF0A3F022900DC1EEF0A3EFF07F4900
:1049C000125AE9900DBFEFF07F4A125AE9900DC0DC
:1049D000EFF0A3E0FCA3E0FD90028F75F006122D2E
:1049E0008EEC75F006A42583F583EFF0900DBFE003
:1049F000FF90029075F006ED122D8EEC75F006A476
:104A00002583F583EFF0E4900DBFF0A3F07F4B1208
:104A10005AE9900DBFEFF07F4C125AE9900DC0EFAC
:104A2000F0A3E0FCA3E0FD90029175F006122D8E3C
:104A3000EC75F006A42583F583EFF0900DBFE0FF41
:104A400090029275F006ED122D8EEC75F006A425FD
:104A500083F583EFF0E4900DBFF0A3F07F4D125A81
:104A6000E9900DBFEFF07F4E125AE9900DC0EFF0C4
:104A7000A3E0FCA3E0FD90029375F006122D8EECEE
:104A800075F006A42583F583EFF0900DBFE0FF904D
:104A9000029475F006ED122D8EEC75F006A42583B8
:104AA000F583EFF0E4900DBFF0A3F022E4F50B9056
:104AB000028EE025E025E02402FE900BAE748DF01E
:104AC000E4F50B90028EE0FFE50BC39F4003024B21
:104AD000787404250BF582E43400F583E0FFE50BE0
:104AE00025E025E024AFF582E4340BF583EFF07484
:104AF00004250BF582E43400F583E075F003A4246B
:104B000063F582E43403F583E0FFE50B25E025E05F
:104B100024B0F582E4340BF583EFF07404250BF533
:104B200082E43400F583E075F003A42464F582E4A4
:104B30003403F583E0FFE50B25E025E024B1F582A1
:104B4000E4340BF583EFF07404250BF582E43400B4
:104B5000F583E075F003A42465F582E43403F5835E
:104B6000E0FFE50B25E025E024B2F582E4340BF507
:104B700083EFF0050B024AC37B017A0B79AEEE148A
:104B8000FD125B6E74AD2EF582E4340BF583EFF00D
:104B90007B017A0B79AEAF06AD07125212227D105F
:104BA0007F6B125BD1E47F0AFEFDFC12529A7D20DE
:104BB0007F6A125BD1E47F0AFEFDFC12529A7D06E9
:104BC0007F1A125BD1E47F0AFEFDFC12529A7D1817
:104BD0007F1B125BD1E47F0AFEFDFC12529A7D0816
:104BE0007F1C125BD1E47F0AFEFDFC12529A7D0508
:104BF0007F1D125BD1E47F0AFEFDFC12529A7D0DEF
:104C00007F24125BD1E47F0AFEFDFC12529A7D0CD8
:104C10007F25125BD1E47F0AFEFDFC12529A7D0AC9
:104C20007F26125BD1E47F0AFEFDFC12529A7D16AC
:104C30007F63125BD1E47F0AFEFDFC12529A7D81F4
:104C40007F27125BD1E47F0AFEFDFC12529A7D8C15
:104C50007F25125BD1E47F0AFEFDFC12529A7D0390
:104C60007F26125BD1E47F0AFEFDFC12529A7D8DF5
:104C70007F27125BD1E47F0AFEFDFC12529AE4FD0D
:104C80007F6B125BD1E47F14FEFDFC12529A227DF1
:104C9000107F6B125BD1E47F0AFEFDFC12529A7DFD
:104CA000207F6A125BD1E47F0AFEFDFC12529A7DDE
:104CB000067F1A125BD1E47F0AFEFDFC12529A7D38
:104CC000187F1B125BD1E47F0AFEFDFC12529A7D15
:104CD000087F1C125BD1E47F0AFEFDFC12529A7D14
:104CE000057F1D125BD1E47F0AFEFDFC12529A7D06
:104CF0000D7F24125BD1E47F0AFEFDFC12529A7DE7
:104D00000C7F25125BD1E47F0AFEFDFC12529A7DD6
:104D10000A7F26125BD1E47F0AFEFDFC12529A7DC7
:104D20001F7F63125BD1E47F0AFEFDFC12529A7D65
:104D3000817F27125BD1E47F0AFEFDFC12529A7D2F
:104D40008C7F25125BD1E47F0AFEFDFC12529A7D16
:104D5000107F26125BD1E47F0AFEFDFC12529A7D81
:104D6000837F27125BD1E47F0AFEFDFC12529AE496
:104D7000FD7F6B125BD1E47F14FEFDFC12529A2280
:104D8000900BB5EBF0A3EAF0A3E9F0A3EDF0125F0E
:104D900093900BB8E0C394804003024E53125E3AE6
:104DA000EF6003024E4B900BB974FFF0900BB5E02F
:104DB000FBA3E0FAA3E0F9900BBEE4F0A37410F0BB
:104DC0007F40125427EF6407707C904722E0540222
:104DD00060F8904722E054026009E0FF1313543F4B
:104DE000FF80027FFFEF7004900BB9F0900BB9E0E9
:104DF000704E900BB8E0FD7C00900EE1E0FBA3E06C
:104E0000900BBEF07F4012572CEF6407702A900B76
:104E1000B974FFF0904722E0540260F8904722E016
:104E200054026009E0FF1313543FFF80027FFFEF3D
:104E30007014900BB9F0800E900BB974FFF08006DF
:104E4000900BB974FFF012619B800E900BB9740443
:104E5000F08006900BB97401F0900BB9E0FF2212BC
:104E600062A712581FE47F64FEFDFC12529A7F0174
:104E7000126259125D9A125FE3125B3B125C0112DF
:104E800060687E627FAE125DFC12601C7E627FAB4A
:104E9000125E1BE4FF126253126009125FF6D2AF7A
:104EA0009044F474FDF012602F125EDF125D2F1239
:104EB00060BD12607A125DDCE47F0AFEFDFC1252D6
:104EC0009A7F0112609E1239F9E49006B6F01260E2
:104ED00042126239E4900759F0C20DC20A900416DA
:104EE000F0A3F090041AF0E4FF12625F1259CC12A2
:104EF0006265EF701B300C0E7F01126283C20CC220
:104F00000B12437080E9300BE67F0112628380DF71
:104F10007F0112625F126265EF640160F8125FBC8C
:104F2000EF30E7C3125C0180BE22E4F50B90028EE5
:104F3000E025E02402FE900BAE7490F0E4F50B90B7
:104F4000028EE0FFE50BC39F4003024FCE740425A1
:104F50000BF582E43400F583E0FFE50B25E024AF98
:104F6000F582E4340BF583EFF07404250BF582E44D
:104F70003400F583E0FF75F003A42427F582E434C0
:104F800007F583E0FD25E0FDEF75F003A42426F589
:104F900082E43407F583E0FF25E025E04DFF74044B
:104FA000250BF582E43400F583E075F003A4242892
:104FB000F582E43407F583E04FFFE50B25E024B0EC
:104FC000F582E4340BF583EFF0050B024F3F7B01D4
:104FD0007A0B79AEEE14FD125B6E74AD2EF582E4A1
:104FE000340BF583EFF07B017A0B79AEAF06AD079A
:104FF00012521222E4FFFEFDFC900EE3122D82906D
:1050000076007410F09070107401F0907019E4F054
:105010007B027A78F97DA07C021260EC90780274B1
:1050200001F0A374A3F07B027A787904C003C00274
:10503000C0017BFF7A6279E2E9EAE4AD01AC02D01B
:1050400001D002D0031260EC7B027A7879067D08E9
:105050007C781260EC7B027A7679047D107C0012F9
:1050600060EC7B027A767906E4FDFC1260EC9070CD
:10507000297409F090703904F09070697414F090FC
:105080007079741DF09070147401F0907018E054F1
:105090000170F8907028E0540170F8907038E05476
:1050A0000170F8907068E0540170F8907078E054E6
:1050B0000170F822C0E0C083C082C085C084C08671
:1050C000758600C093759300C0D075D000C001C034
:1050D00002C003C006C007E4FBA2AF33FAD2AF9010
:1050E00044F474FDF090646FE0FFFE541EF9600616
:1050F000900EAEE049F0EF30E545906444E0FE905C
:105100000EABE0248BF582E4340EF583EEF07B01E8
:10511000EB602C900E89E06006900EAD7401F0906B
:105120000EABE004F0E0C394204002E4F0900E8A5D
:10513000E0FE900EABE0B50606900E897401F0EF2C
:1051400020E5A2AF02EA24FF92AFD007D006D00339
:10515000D002D001D0D0D093D086D084D085D08258
:10516000D083D0E032900BAEEEF0A3EFF0900BB412
:105170007401F012621D125EF878007C007D017BE4
:10518000017A0079157E007F04122F19900BB2E48A
:10519000F0A304F0E4900BB0F0A3F0900BB2E0FEAB
:1051A000A3E0FF900BB0E0FCA3E0FDC39FEE6480A2
:1051B000F8EC648098503FEDC4F8540FC868FFECD9
:1051C000C454F048FE7B0174152FF974003EFA9028
:1051D0000BAEE0A3E0FFED2FFD124D80EF6007E482
:1051E000900BB4F08010900BB1E004F07006900BBF
:1051F000B0E004F080A578157C007D017B017A0089
:1052000079007E007F04122F19126216900BB4E011
:10521000FF22900DBDEBF0A3EAF0A3E9F0A3EDF0BF
:105220007F3A12615C7F3A12615C900016E0FF12D7
:10523000615C900DC0E0FF12615CE4F510F5119027
:105240000DC0E0FFC3E5119FE51094005022900DC2
:10525000BDE0FBA3E0FAA3E02511F9EA3510FA124C
:105260002B64FF12615C0511E5117002051080CFFF
:10527000E4F510F511126247EF20E0130511E51176
:10528000AE107002051014D394E8EE940340E67F4C
:1052900001126253E4FF1262532290FFFC122DE0D0
:1052A000122D82851883851982E0A3E0A3E0FEA376
:1052B000E0D39400EE9480403D900EDAE0FCA3E051
:1052C000FDA3E0FEA3E0FF125B0085188385198231
:1052D000C083C082E0FCA3E0FDA3E0FEA3E02400C5
:1052E000FFEE3480FEED34FFFDEC34FFFCD082D0C5
:1052F00083122D8280AD900ED0E0FCA3E0FDA3E0F0
:10530000FEA3E0FF851883851982E0F8A3E0F9A3E6
:10531000E0FAA3E0FB122BBC125B00900004122DFC
:10532000E022E4900BD3F0A3EEF0A3EFF07F49125C
:105330005AE9900BD3EFF0A3E0FCA3E09003637570
:10534000F003122D8EEC75F003A42583F583EFF0A6
:10535000E4900BD3F07F4A125AE9900BD3EFF0A3FD
:10536000E0FCA3E090036475F003122D8EEC75F061
:1053700003A42583F583EFF0E4900BD3F07F4B1269
:105380005AE9900BD3EFF0A3E0FCA3E0900365751E
:10539000F003122D8EEC75F003A42583F583EFF056
:1053A000E4900BD3F022000D0A004669726D77611C
:1053B00072652076657273696F6E3A2000494D55AB
:1053C000626F617264207620312E3030000D0A0D3C
:1053D0000A0044455649434520494E464F0D0A00B0
:1053E00049443A2025640D0A00494D5520436F6E0B
:1053F0006E65637465640D0A006E756D65726F3A53
:105400002025640D0A00496D752025643A20256425
:105410000D0A00466C6167733A2025642C202564D0
:105420002C2025640D0A00900BBBEBF0A3EAF0A33F
:10543000E9F0900BC07407F0904722E05402604EF0
:1054400090472074B6F074D5F07402F0904722E0D3
:1054500054027032904720EFF0E4FFFED3900BBF70
:10546000E09F900BBEE09E402B900BBBE0FBA3E0C7
:10547000FAA3E02FF9EA3EFA122B64904720F00FCE
:10548000EF70010E80D6900BC07409F08006900B6F
:10549000C07404F0900BC0E0FF22900C16EBF0A358
:1054A000EAF0A3E9F0900C1CEBF0A3EAF0A3E9F01A
:1054B000900C16E0FBA3E475F00112302AA9F0FA73
:1054C000122B6470EB900C1774FFF5F012301490EF
:1054D0000C19E0FBA3E475F00112302AA9F0FA12CE
:1054E0002B64FF900C16E0FBA3E475F00112302A48
:1054F000A9F0FAEF122BAA70D6900C1CE0FBA3E0E7
:10550000FAA3E0F922900DBDEEF0A3EFF09007268C
:1055100075F003122D8EEE75F003A42583F583E05C
:10552000600B900DBDE0FEA3E0FF1247C0900DBDE3
:10553000E0FEA3E0FF90072775F003122D8EEE75B5
:10554000F003A42583F583E060031248BB900DBDF2
:10555000E0FEA3E0FF90072875F003122D8EEE7594
:10556000F003A42583F583E060031249B622900B73
:10557000B7EBF0A3EAF0A3E9F0A3EDF0E4A3F09019
:105580000BBAE0FFA3E0C39F503E904722E05401D6
:105590006003D38001C340097F017E00125C6080FC
:1055A000E9904720E0FF900BB7E0FBA3E0FAA3E00F
:1055B000F9900BBBE0FEE92EF9E43AFAEF122BAAC0
:1055C000900BBBE004F080B7900BBBE0FF22E4FF40
:1055D0009044C87402F0900E8AE0FE900EABE0FD9D
:1055E000900E89E07004EE6D6024748B2EF582E4D9
:1055F000340EF583E0FF0EEEC394204002E4FE90EB
:105600000E8AEEF0900E89E06018E4F08014906449
:105610006FE0FE30E50C906444E0FFEE541E600243
:10562000E4FF9044C07402F022420BA680000112F5
:1056300000420E430001410EAC00410EAE00410E8F
:105640008A00410EAB00410E8900410EAD00410EB3
:10565000EA00410EEB00430EDE000000440ED502CE
:10566000DC6C00440ED00000BB80410ED430440EF0
:10567000DA5DC00000410EEC00410EE900410EED84
:105680000000125F93900BB674FFF0125E3AEF7059
:105690003B7F01125C30EF6407702C7B017A0E793E
:1056A000E17D0212556EEFB40215E4900BB6F09056
:1056B0004722E0540270107F01FE125C6080F0907F
:1056C0004722E0540260D412619B8006900BB674AE
:1056D00004F0900BB6E0FF22900BAEECF0A3EDF0DF
:1056E000900BADEFF0541F25E0FFE433FEE42FFFF5
:1056F000EE3444FAA9077B011260DD900BB0EEF0A6
:10570000A3EFF0900BADE075F002A42400FFE5F0EC
:105710003444FAA9077B01A3E0FEA3E0FFFDAC0639
:105720001260EC900BB0E0FEA3E0FF22900BBBEC0C
:10573000F0A3EDF0AC077D07904722E05402603BF8
:1057400090472074B6F074D8F07405F0904722E0CA
:1057500054027023904720ECF0900BBBE090472060
:10576000F0900BBBE0A3E0904720F0EBF0900BBE75
:10577000E0904720F080067D0980027D04AF05227D
:10578000125F93125E3AEF703B125E92900BB6EF8F
:10579000F06407702A904722E0540270087F01FEEF
:1057A000125C6080F0904722E054026009E0FF1331
:1057B00013543FFF80027FFFEF7004900BB6F0128E
:1057C000619B8006900BB67404F0900BB6E0FF224C
:1057D0009044C87402F0900EABE0FE900E8AE0B5E3
:1057E000060E900E89E060047F20802CE4FF802864
:1057F000900EABE0FE900E8AE0C39E500BE0FE9050
:105800000EABE0C39EFF8010900E8AE0FEC37420B2
:105810009EFE900EABE02EFF9044C07402F022E496
:10582000FFFEC3EF9404EE94005023900BA6E0FC1F
:10583000A3E02FF582EC3EF583E0FD74152FF58291
:1058400074003EF583EDF00FEF70010E80D49000F0
:1058500015E070041259002278007C007D017B0164
:105860007A0079157E007F04122F1922900BAD74F7
:1058700002F0EF7014EE7011900001E0900BAEF0AA
:10588000900BC1E4F0A37403F07B017A0B79AD9027
:105890000BC1E0A3E014FD125B6E900BC1E0FCA312
:1058A000E0FD24ACF582740B3CF583EFF07B017ACC
:1058B0000B79AD12521222900DBDEEF0A3EFF07FE6
:1058C0000F12629B7F031262A1900DBDE0FEA3E068
:1058D000FFC3940FEE64809480500312629B900D7E
:1058E000BDE07004A3E0640F7004FF1262A1900D8C
:1058F000BDE07004A3E0641070057F011262A12274
:10590000E4FFFEC3EF9404EE9400502AEF2480FDE0
:10591000E43EFC900BA6E0FAA3E02DF582EA3CF50C
:1059200083E0FD74152FF58274003EF583EDF00FD2
:10593000EF70010E80CD900015E07004125D5422CE
:10594000E4FFFE12516522C2D5E830E70FB2D5E47C
:10595000C39BFBE49AFAE499F9E498F8EC30E71772
:10596000B2D512597D122C47E4C39BFBE49AFAE4AA
:1059700099F9E498F88003122C4730D50DE4C39FC1
:10598000FFE49EFEE49DFDE49CFC22900397E0D39F
:105990009400500B7F0112627DE4900018F0229079
:1059A0000397E0D394FA400374FAF0900397E0FF72
:1059B0007E007C017DF4122E04780A122D0E9000D8
:1059C00018EFF0126140E4FF12627D221260AE9087
:1059D00006B2122D82300C05C20C12437078197C6D
:1059E000007D017B017A04791B7E027F75122F19DD
:1059F000300C05C20C1243701260AE90035B122D86
:105A0000827F407E4B7D4C7C001261D922904F00FA
:105A1000E05401F0904F02E054FCF0904F0BE05442
:105A2000CFF0E04430F0E054F0F0E0440FF0904F5D
:105A300001E04401F07F7F7EBB1261167F7F7EBB59
:105A4000126124E4FF12624D22904F0CE05401F0E9
:105A5000904F0EE054FCF0904F0DE04401F0904F59
:105A600017E054CFF0E04430F0E054F0F0E0440FA1
:105A7000F07F7F126140E4FF125E767F081262774A
:105A800022900BADEBF0A3EAF0A3E9F0E4FDFC906B
:105A90000EACE0601F900BADE0FBA3E0FAA3E02D9D
:105AA000F9EA3CFA122B64FF600A12615C0DED709A
:105AB000010C80E122758600EF4E6027EF60010E39
:105AC000759300900BADE0F595A3E0F585A3E0F5A7
:105AD000848B938A838982E0A30586F0A31586DFF1
:105AE000F6DEF4E4F593F59522EF4480FF1261763B
:105AF000E4FF1261761260CCEF30E0F91262952279
:105B0000EC4D4E700D78FCEF24E950032840FD2247
:105B100000007BF178DA0000EF28FF78FFEE38FE16
:105B2000ED38FDEC38FC50E7EF2BFFEE38FEED389A
:105B3000FDEC38FC40F222050203047C507DB47F6A
:105B4000011256D8E4FD7F01125EC6E4900EAEF05D
:105B50009064847469F090648F7420F0906526746A
:105B600006F09065367447F0906585E4F022900D5C
:105B7000BDEBF0A3EAF0A3E9F0E4F511F510E510B0
:105B8000C39D5019900DBDE0FBA3E0FAA3E02510E2
:105B9000F9E43AFA122B646211051080E1AF112288
:105BA000125F7E9043A0E04408F09043B0E04408C8
:105BB000F090470174C8F09043ACE04410F090437B
:105BC000BCE04410F0904700E0542060F8125F10F1
:105BD00022900BD3EFF0A3EDF01260BD12607A12A9
:105BE0005DDC900BD3E0FF1261761260CCEF30E108
:105BF000F9900BD4E0FF1261761260CCEF30E1F93E
:105C000022125F7E906494E04401F0E054FEF012B2
:105C10005F109044C87402F0E4900E8AF0900EABCE
:105C2000F0900E89F0900EADF09044C07402F02216
:105C30007E07904722E05402601F90472074B6F020
:105C400074E1F0740EF0904722E054027007904720
:105C500020EFF080067E0980027E04AF0622222219
:105C6000EEFA900ED4E0F88FF0A4FFAEF0E88AF0E0
:105C7000A42EFEE5F03400FDEF24C9FF78FFEE38D6
:105C8000FEED38FDE438FC5003025B00227F407ECD
:105C90004B7D4C7C001261C57F407E4B7D4C7C006F
:105CA0001261D9125F7E90649EE04410F0125F1082
:105CB000126169E4FF12626B22900BAD748CF0905C
:105CC000028EE0900BAEF07B017A0B79AD7D021273
:105CD0005B6E900BAFEFF07B017A0B79AD0D12523A
:105CE0001222EFB40A07740D125CED740A30981199
:105CF000A899B8130CC2983098FDA899C298B81109
:105D0000F63099FDC299F59922758600EF4E601B19
:105D1000EF60010E8C838D828B958A858984E49354
:105D2000A30586F0A31586DFF5DEF3E4F5952212D0
:105D30005F7E906597E04420F090649CE04410F012
:105D4000906594E04410F0125F101260F91262BB8B
:105D50001262BC229000167401F0900015F0E4FF6E
:105D6000FE125165EF600E7F087E00125165EF60F4
:105D7000047F0180027F0022125F7E906494E044E1
:105D800020F090649FE04410F09044C07402F090C2
:105D90006595E04410F0125F1022125F7E906494CB
:105DA000E054DFF090649FE054EFF09044C8740238
:105DB000F0906595E054EFF0125F1022900397E0A9
:105DC000900002F024F3700A7D017F0C7E001242E5
:105DD00040227D017F027E0012424022906564E0F5
:105DE00030E507906457E0FF80F2125F7E90649781
:105DF000E04401F0E054FEF0125F1022900BADEE93
:105E0000F0A3EFF012621D900BADE0FEA3E0FF12D5
:105E10006108E4FF1261A712621622900BADEEF04A
:105E2000A3EFF0126232900BADE0FEA3E0FF12612F
:105E3000327F071261E312622B22900BBA7404F0D6
:105E4000125F7E900EEDE0700704F0E4900BBAF064
:105E5000125F10900BBAE0FF227B0C7A0179CF120F
:105E60006183EF540790586EF0EFC4540FA3F09085
:105E700058767444F0229043A3E04402F07B027A07
:105E80004F7912EFFD7C001260EC9043A3E054FDCB
:105E9000F0227F07904722E05402600E9047207462
:105EA000B6F074E0F0740DF080027F0422EF7015FC
:105EB000EE70127B017A07795A123D057B017A0751
:105EC000795A125A8122AC07ED540775F020A4FFCD
:105ED000EC541F2480F582E43444F583EFF02290E3
:105EE0006587740FF0125DDC12628912628F906414
:105EF0008CE4F0906584F022125780900BB5EFF09F
:105F00007008125682900BB5EFF0900BB5E0FF22AF
:105F1000EF54016004D2AF8002C2AFEF5402FF9091
:105F200044F4E054FD4FF0229043A3E04401F0908C
:105F300043B3E04401F0904F00E04401F02290436D
:105F4000A3E04402F09043B3E04402F0904F0CE031
:105F50004401F0227D027C00900BB2EFF0A3F07BB5
:105F6000017A0B79B212521222E4FFFE125165EF50
:105F700060067F01125F5422E4FF125F54229044B6
:105F8000F4E0F84402F0E85402FF10AF012274017B
:105F90004FFF22125F7E9043A0E04408F09043B090
:105FA000E04408F0125F1022EF700BEE70089003CF
:105FB00099E0900016F07F01125F542290646FE028
:105FC000547FFF900EADE06006EF4480FFE4F022C6
:105FD000E4900BADF0A3F07B017A0B79AD7D02125A
:105FE000521222900EACE07009125B3B900EAC7422
:105FF00001F0125D7822900EEAE07009125A0D90BD
:106000000EEA7401F0125F2822900EEBE070091284
:106010005C8D900EEB7401F01261FF22900EECE0AB
:106020007009125A49900EEC7401F0125F3E2290F2
:106030000EE9E07009125EDF900EE97401F0125D66
:106040002F221262407E307F8C12614E7F031261DC
:10605000ED126239228B938A838982E0FFA3E0FEEE
:10606000A3E0FDE4FCF59322125F7E906595E04489
:1060700001F0E054FEF0125F1022125F7E906497F0
:10608000E04401F0E054FEF0125F10228B938A830B
:106090008982EFF0A3EEF0A3EDF07593002290510A
:1060A00010E054F7FEEF33333354084EF02290647F
:1060B0000CE0FF7B027A64794C1260572290656491
:1060C000E030E507906457E0FF80F222906564E0DD
:1060D000FF90646CE04FFF54EFFF228B938A83891B
:1060E00082E0FFA3E0FE759300228B938A8389826E
:1060F000EDF0A3ECF0759300229043A2E04404F08D
:106100009043B2E04404F0227B027A447900AD0768
:10611000AC061260EC227B027A4F7904AD07AC0624
:106120001260EC227B027A4F7906AD07AC06126052
:10613000EC227B027A447924AD07AC061260EC2293
:106140007B027A4F7910EFFD7C001260EC227B021B
:106150007A447904AD07AC061260EC22906565E0E4
:1061600020E2F9906545EFF022126271EF30E3050D
:106170001261CF80F42290646CE030E2F9906447C1
:10618000EFF0228B938A838982E0759300FF228B44
:10619000938A838982EDF075930022125F7EE490EA
:1061A0000EEDF0125F1022EFC43354E0904480F003
:1061B000227B027A4079801260DD229046FA744098
:1061C000F0126207227B027A64792C12608E227BA5
:1061D000027A64794C126057227B027A64790C123D
:1061E000608E22EFC43354E0904492F022EFC43327
:1061F00054E0904482F022904082E05407FF2290C5
:10620000647EE04480F0229046F6E04401F0229063
:1062100006B67401F0229044C07401F0229044C884
:106220007401F022125EF8125BA0229044C2740442
:10623000F0229044CA7404F0229044C07404F02206
:106240009044C87404F022906565E0FF22904F03EB
:10625000EFF02290647CEFF02290647DEFF02290CA
:106260006574EFF022906467E0FF2290648EEFF097
:106270002290646EE0FF22904F0FEFF02290647F37
:10628000EFF022906477EFF02290646CE0FF2290B0
:106290006564E0FF22906457E0FF22906576EFF09E
:1062A00022906476EFF02212622422D20B32D20CBA
:1062B0003280FE22222222222232322222010000B9
:1062C00000000000000100000000000100010000CB
:1062D00000080000000100000008000100010000AB
:1062E00000010008230262BD76080008230362C58E
:1062F00076100008230462CD76280008230562D5B5
:1063000076300005230662DD70200005230762DD7C
:1063100070300005230862DD7060000523FE62DD39
:106320007070004022FE0EE351300080220B0EE31D
:1063300000800180220C0EE302000180220D0EE39A
:1063400008000180220E0EE30A000080220F0EE3F7
:106350001800018022100EE31A00010022110EE342
:106360004400008022120EE34600008022130EE358
:106370004700008022FE0EE34D000007231504C0F5
:1063800052000007231604C852080007231704D040
:1063900052100006231804D852600007231904E0A5
:1063A0005278000C231A04F04F00000C231B04FC4D
:1063B0004F0C0020231C0C086470002023FE0C28C6
:1063C00065700008231E04E851000080231F0508A3
:1063D0000000008023200588040000802321060897
:1063E00004800080232206880600008023230708FB
:1063F00006800080232407880C00008023250808DD
:106400000C800080232608880E00008023270908BE
:106410000E800080232809881400008023290A08A0
:1064200014800080232A0A8816000080232B0B0882
:1064300016800080232C0B8818800010232D0C4818
:1064400050100010232E0C5850000080232F0C6891
:106450004D80008023300CE84C00008023310D6813
:106460004C80008023320DE84780008023330E6883
:106470004680008023340EE84500008023350F68F5
:106480004580008023360FE81B800080233710688A
:1064900015000080233810E815800080233911682A
:1064A00019000080233A11E819800080233B12680C
:1064B00017000080233C12E817800080233D1368FA
:1064C00009800080233E13E807000080233F146802
:1064D00007800080234014E80B800080234115686A
:1064E00005000080234215E80580008023431668DC
:1064F0000D000080234416E80D80008023451768B6
:1065000003800080234617E80F00008023471868A7
:106510000F800080234818E8010000802349196893
:1065200001800080234A19E849000080234B1A6843
:1065300049800080234C1AE848000080234D1B68E6
:1065400048800080234E1BE843000080234F1C68D6
:106550004380008023501CE84200008023511D68C6
:106560004280008023521DE84100008023531E68B2
:106570004180008023541EE84000008023FE1F68F5
:1065800040800007070007000000000000FEFA003E
:0C659000F200000030D8C800D800000065
:00000001FF
