:10260000023ECB008F828E83E0540100000070F800
:102610002278FFE4F6D8FD023EFAEC4D6011E8495D
:102620007017ED33EC3304600DE4FCFFFEFD22E98E
:1026300033E8330470F80228E31228AE5804600926
:10264000E4CC248150062850090228ED28400302DA
:1026500028EAC0E0EB4A7044B98006D0E0FB0228CB
:10266000D9EF4E701CBD8008EBFFEAFEE9FD80EB60
:10267000E98DF0A4FEE5F0022703E9CDF9EAFEEBCF
:10268000FFEF89F0A4FCE5F0CE89F0A42EFFE4353D
:10269000F0CD89F0A42DFEE435F08067EF4E700593
:1026A000BD80D780C3EF8BF0A4ACF0EE8BF0A42CF0
:1026B000FCE435F0F8EF8AF0A42CE5F038FCE433C4
:1026C000CB8DF0A42CFCE5F03BF8EE8AF0A42CFCBA
:1026D000E5F038F8E433CF89F0A42CFCE5F038CFEE
:1026E0003400CE89F0A42FFFE5F03EFEE433C98D1F
:1026F000F0A42EFEE5F039CD8AF0A42FFFE5F03EE0
:10270000FEE43DFD33D0E0FB50070BBB000F022879
:10271000EDEC2CFCEF33FFEE33FEED33FD0228C56C
:102720000228EDEC5D046005E8590470030228E31B
:102730001228AE580460F6EC4860F2EC7004FDFE1E
:10274000FF22C860DB2481C85009C398600250068C
:102750000228EA9850CAF582E9294B4A7005AB82F3
:102760000228D975F0007C1A7880C3EF9BEE9AEDB1
:1027700099400DC3EF9BFFEE9AFEED99FDE842F004
:10278000DC23ACF0D0E0FFD0E0FED0E0FDAB822057
:10279000E7101BEB60BAEC2CFCEF33FFEE33FEEDE1
:1027A00033FD0228C5E803F830E705C0F075F000F6
:1027B000EF2FFFEE33FEED33FD40B830E7C280AAC5
:1027C00074F8CC6480CCC86480C8F58204604FC3C0
:1027D000EB9FF5F0EA9E42F0E99D42F0E89C45F05F
:1027E000603C501DE5825FFFE582D313CB5BCBF4E9
:1027F0002B5582FB50280ABA002409B90020088012
:102800001DE5825BFBE582D313CF5FCFF4C3132FAB
:102810005582FF50090EBE00050DBD00010CC3EB33
:102820009FF5F0EA9E42F0E99D42F0E89C45F06099
:1028300007CC4820E701B3EC2275F020800E75F03C
:1028400010800575F0087D007E007F003392D53042
:10285000D503122D55EC334010EF33FFEE33FEED70
:1028600033FDEC33FCD5F0ED22E5F0247EA2D51348
:10287000CC92E7CDCEFF22EDD2E7CD33EC3392D52B
:1028800024814006E4FFFEFDFC22FCE4CFCECDCC4B
:1028900024E0501174FF80EDC3CC13CCCD13CDCE0A
:1028A00013CECF13CF0470F030D5DE022D55E9D210
:1028B000E7C933E833F892D5EDD2E7CD33EC33FCFA
:1028C0005002B2D522EC30E7100FBF000C0EBE0054
:1028D000080DBD00040BEB6014A2D5EB13FCED92C8
:1028E000E7FD2274FFFCFDFEFF22E480F8A2D57410
:1028F000FF13FC7D80E480EFF920E73624F95003D4
:102900007907E4F42402FBE582158270021583DB6B
:10291000F6E024FB501BE96014E4F0E582158270B8
:10292000021583E004F0B40A08E4F0D9EE7401F073
:102930000A22C2D522ED33EC3392D5FA602AB4FFD5
:1029400033EDC2E77BFF60067A29795AE4227A29BF
:10295000796320D5047A29795E224E614E002B4995
:102960004E46002D494E4600E47A08F0A3DAFC7B7F
:1029700000740722C083C082ECC0E0EDC0E0EEC06E
:10298000E0EFC0E0EA75F010A4CAABF075F04DA41A
:102990002BFBE435F0FCEA2410FAEB34C5FBEC34F5
:1029A000D9FCEDC2E7FF75F056A4F42411C5F0F48C
:1029B00034C58FF0A42AE5F03BE43CF020E7141284
:1029C0002B62D0E0FFD0E0FED0E0FDD0E0FC12278B
:1029D000238014F404122B62D0E0FFD0E0FED0E09C
:1029E000FDD0E0FC12261AD082D083E0FAEDD2E7C7
:1029F000CD33EC332482FBE4C3CF33CFCE33CECD03
:102A000033CD33DBF37B0775F00A846004F0A31B3E
:102A10000AE5F0F0A38FF0740AA4FFACF08EF07416
:102A20000AA42CFEACF050010C8DF0740AA42CFD0D
:102A3000E435F0F0A3DBDE7407220228E3E86480CB
:102A4000F8E933E83360110460F0ED33EC337009DA
:102A5000E8FCE9FDEAFEEBFF220460DED3EB9FEA2F
:102A60009EE99DE8C2E78CF0C2F795F0400CE8CCF7
:102A7000F8E9CDF9EACEFAEBCFFB1228AE85D0F01B
:102A80005804700320D5B3E80470075002B2D50291
:102A900028ED92D5EC0460F7E4CCC0E0C398F86070
:102AA0003B94186008400DD0E0FB0228C5E4FBFA17
:102AB000C9FC8028E830E406E4C9FBE4CAFCE8303D
:102AC000E305E4C9CACBFCE854076010F8C3E91376
:102AD000F9EA13FAEB13FBEC13FCD8F130F52FC332
:102AE000E49CFCEF9BFFEE9AFEED99FDD0E0FBEF3E
:102AF0004E4D4C701222DB030228EAEC2CFCEF3323
:102B0000FFEE33FEED33FDED30E7EB0228C5EF2B92
:102B1000FFEE3AFEED39FDD0E0FB50130BBB000396
:102B20000228EDED13FDEE13FEEF13FFEC13FC0294
:102B300028C53F8000004120000042C80000447AC0
:102B40000000461C400047C35000497424004B1845
:102B500096804CBEBC205A0E1BCA6753C21C749D83
:102B6000C5AEFB60065407601C2323122B90EB5468
:102B7000386009122B7C122B8B12261AECF8EDF917
:102B8000EEFAEFCB22EB122B8B80F1543803241C8E
:102B9000902B32FE93FC0EEE93FD0EEE930ECE9331
:102BA000FF22BB010689828A83E0225002E722BB12
:102BB000FE02E32289828A83E49322BB010CE58230
:102BC00029F582E5833AF583E0225006E92582F86B
:102BD000E622BBFE06E92582F8E222E58229F5829B
:102BE000E5833AF583E49322BB010689828A83F068
:102BF000225002F722BBFE01F322C5F0F8A3E02821
:102C0000F0C5F0F8E582158270021583E038F022F5
:102C1000EF2BFFEE3AFEED39FDEC38FC22C3EF9BC3
:102C2000FFEE9AFEED99FDEC98FC22E88FF0A4CC23
:102C30008BF0A42CFCE98EF0A42CFC8AF0EDA42CE3
:102C4000FCEA8EF0A4CDA8F08BF0A42DCC3825F0B2
:102C5000FDE98FF0A42CCD35F0FCEB8EF0A4FEA99D
:102C6000F0EB8FF0A4CFC5F02ECD39FEE43CFCEAAA
:102C7000A42DCE35F0FDE43CFC2275F008758200F1
:102C8000EF2FFFEE33FECD33CDCC33CCC58233C531
:102C9000829BED9AEC99E58298400CF582EE9BFEC2
:102CA000ED9AFDEC99FC0FD5F0D6E4CEFBE4CDFA1D
:102CB000E4CCF9A88222B800C1B90059BA002DECC1
:102CC0008BF084CFCECDFCE5F0CBF97818EF2FFF59
:102CD000EE33FEED33FDEC33FCEB33FB10D7039901
:102CE0004004EB99FB0FD8E5E4F9FA227818EF2FAE
:102CF000FFEE33FEED33FDEC33FCC933C910D705CD
:102D00009BE99A4007EC9BFCE99AF90FD8E0E4C9EB
:102D1000FAE4CCFB2275F010EF2FFFEE33FEED331B
:102D2000FDCC33CCC833C810D7079BEC9AE8994048
:102D30000AED9BFDEC9AFCE899F80FD5F0DAE4CDAA
:102D4000FBE4CCFAE4C8F922EF4BFFEE4AFEED4972
:102D5000FDEC48FC22C3E49FFFE49EFEE49DFDE4FD
:102D60009CFC22EB9FF5F0EA9E42F0E99D42F0E8E0
:102D70009C45F022E8600FECC313FCED13FDEE134D
:102D8000FEEF13FFD8F122E8600FEFC333FFEE33FD
:102D9000FEED33FDEC33FCD8F122BB010789828ABA
:102DA00083022DD45005E9F802307DBBFE05E9F819
:102DB00002308989828A83023095BB010789828A21
:102DC00083022DEC5005E9F80230A5BBFE05E9F8B9
:102DD0000230B122E0FCA3E0FDA3E0FEA3E0FF226D
:102DE000E0F8A3E0F9A3E0FAA3E0FB22ECF0A3ED06
:102DF000F0A3EEF0A3EFF022A42582F582E5F035F2
:102E000083F58322E0FBA3E0FAA3E0F922F8E0FBDC
:102E1000A3A3E0F925F0F0E582158270021583E0A6
:102E2000FA38F022EBF0A3EAF0A3E9F022E493FBF6
:102E3000740193FA740293F922D083D082F8E49358
:102E40007012740193700DA3A393F8740193F5822B
:102E50008883E4737402936860EFA3A3A380DFE523
:102E6000162582F582E5153583F583B5150485822F
:102E7000162210AF06858216F51522858216F515E5
:102E8000D2AF22EC8EF0A4CCC5F0CCCDF8EFA4CE1E
:102E9000C5F02DFDE43CFCE8A42EC8C5F03DFDE4E2
:102EA0003CFCEFA4FFE5F028FEE43DFDE43CFC2201
:102EB000E709F608DFFA8046E709F208DFFA803E04
:102EC00088828C83E709F0A3DFFA8032E309F608F1
:102ED000DFFA806EE309F208DFFA806688828C836D
:102EE000E309F0A3DFFA805A89828A83E0A3F60817
:102EF000DFFA804E89828A83E0A3F208DFFA8042FB
:102F000080D280FA80C680D4805580F280298010DB
:102F100080A680EA809A80A880DA80E280CA802930
:102F200088848C8589828A83E493A30586F0A3052F
:102F300086DFF5DEF3800B89828A83E493A3F608AB
:102F4000DFF9ECFAA9F0EDFB2288848C8589828A6E
:102F500083E0A30586F0A30586DFF6DEF480E3892F
:102F6000828A83E493A3F208DFF980D688F0EF60C9
:102F7000010E4E60CD88F0ED2402B4040050C3F57C
:102F800082EB2402B4040050B92323458223902FFE
:102F90000073E709F60870FA8046E709F20870FA4C
:102FA000803E88828C83E709F0A370FA8074E3097D
:102FB000F60870FA806CE309F20870FA806488827F
:102FC0008C83E309F0A370FA805889828A83E0A396
:102FD000F60870FA804C89828A83E0A3F20870FABE
:102FE000804080D280FA80C680D4805180F28027D1
:102FF000801080A680EA809A80A880DA80E280CA69
:10300000802788848C8589828A83E493A30586F04F
:10301000A3058670F5800B89828A83E493A3F60862
:1030200070F9ECFAA9F0EDFB2288848C8589828AFC
:1030300083E0A30586F0A3058670F680E589828A81
:1030400083E493A3F20870F980D888F0ED2402B4E9
:10305000040050CEF582EB2402B4040050C42323B4
:10306000458223902FE273A3F8E0C5F025F0F0E548
:1030700082158270021583E0C838F0E822E6FC0869
:10308000E6FD08E6FE08E6FF22E2FC08E2FD08E2B3
:10309000FE08E2FF22E493FC740193FD740293FEA8
:1030A000740393FF22ECF608EDF608EEF608EFF64F
:1030B00022ECF208EDF208EEF208EFF222C0E0C0D6
:1030C000F0C083C082C085C084C086758600C0936E
:1030D000759300C0D075D000C000C001C002C0030D
:1030E000C004C005C006C007124A49EF20E503022C
:1030F00032A81248B2900223EFF090019AE01470C7
:10310000030231921470030231C01470030232259D
:10311000240370D4900221E0900220F0900222E07B
:10312000900221F0900223E0900222F0900221E030
:10313000FFB43A15A3E0B43A10900220E4F0A3F0F3
:10314000A3F090019A04F0809F900220E0FEB43F2B
:103150000CEFB40D08900222E0640A608BEEB43CE0
:103160000B9002B1E4F0A304F00230E8900220E0FA
:10317000643E60030230E8A3E0640D60030230E8BF
:10318000A3E0640A60030230E89002B1F0A3F00209
:1031900030E8900001E0FF900223E0FE6F6003EE54
:1031A0007007900224E4F080069002247401F090ED
:1031B000021B74FFF0A3F090019A7402F00230E851
:1031C000900223E0FF7E0090021BEEF0A3EFF0D30D
:1031D000940174809480501090021B74FFF0A3F04F
:1031E00090019AE4F00230E8D390021CE0948090C1
:1031F000021BE064809480400D74FFF0A3F0900106
:103200009AE4F00230E890021DE4F0A3F09002246A
:10321000E0700990019A7403F00230E890019A740A
:1032200004F00230E8900223E0FF90021DE0FCA3CE
:10323000E0249BF58274013CF583EFF090021DE4DD
:1032400075F001122BFA90021BE0FEA3E0FFC39081
:10325000021EE09FEE6480F890021DE064809850AA
:10326000030230E8900224E0702490021BE0A3E007
:1032700078DE7C007D017B017A01799B122F6C90B6
:10328000021BE0FFA3E090015ECFF0A3EFF09002FD
:103290001DE4F0A3F090021B74FFF0A3F090019ADC
:1032A000E4F00230E80230E8D007D006D005D004C0
:1032B000D003D002D001D000D0D0D093D086D0841B
:1032C000D085D082D083D0F0D0E0327B007A4679AE
:1032D000E81249FDEF4401FD7B007A4679E8124A85
:1032E00009E4F514E514C39407502CE51475F005B2
:1032F000A424D1F582E4344AAF82F5088F09F5831E
:10330000122E2D8F82850883740393FC740493FD21
:10331000124822051480CDE4F514E514C39401503D
:1033200061E51475F008A424F4F582E4344AAF8210
:10333000F50A8F0BF583122E2D8B0C8A0D890E8FBB
:1033400082850A83A3A3A3122E2D8B0F8A108911C5
:103350008F82850A83740693F512740793F513C060
:1033600003C002C001AB0CAA0DA90E900272122E6E
:1033700024D001D002D003AF13AE121244AA051418
:1033800080987B087A0479C0124689905883740A21
:10339000F07B017A5079031249FDEF4402FD7B0175
:1033A0007A507903124A097B017A5079131249FD48
:1033B000EF4402FD7B017A507913124A099043A031
:1033C000E04440F09043C2E04410F07B087A0C796E
:1033D00060C003C002C0017B007A51790290027282
:1033E000122E24D001D002D0037F087E001244AAFE
:1033F0007B087A0C7968C003C002C0017B007A5157
:1034000079C2900272122E24D001D002D0037F081C
:103410007E001244AA7B087A0C7970C003C002C0F7
:10342000017B007A5179F2900272122E24D001D0E1
:1034300002D0037F087E001244AA7B087A0C7978B8
:10344000C003C002C0017B007A5179109002721251
:103450002E24D001D002D0037F0A7E001244AA7B22
:10346000087A0C7984C003C002C0017B007A5179CC
:1034700022900272122E24D001D002D0037F087E47
:10348000001244AA9044F47401F0904322E04408EE
:10349000F09046ECE0C394055006904689743AF0EB
:1034A00090480074F1F01238281246B67B007A4337
:1034B00079A0C00179B0900272122E24D0017F0E43
:1034C0007E001244AA9043B0E054FDF022C0E0C058
:1034D000F0C083C082C085C084C086758600C0935A
:1034E000759300C0D075D000C000C001C002C003F9
:1034F000C004C005C006C007900275E4F0A3F090B8
:103500000275E0FEA3E0FFC39401EE648094805056
:103510001A124A9E900275E0FEA3E0FF12488490C2
:103520000275E475F001122BFA80D49002B1E070BC
:1035300004A3E06401600302366C900289F0A3F0FA
:10354000C390028AE09401900289E06480948040F4
:10355000030236657F3A1249D690028BE4F0A3F05D
:1035600090028BE0FEA3E0FFC39406EE648094809B
:103570005064900289E0FCA3E090028375F006128B
:103580002DF8EC75F006A42583F583E5822FF582EE
:10359000E5833EF583E0FF1249D690028BE0FEA35F
:1035A000E0FF900289E0FCA3E090028475F006122F
:1035B0002DF8EC75F006A42583F583E5822FF582BE
:1035C000E5833EF583E0FF1249D690028BE475F067
:1035D00002122BFA808A90028BE4F0A3F090028B07
:1035E000E0FEA3E0FFC39406EE64809480506490F4
:1035F0000289E0FCA3E090027D75F006122DF8EC44
:1036000075F006A42583F583E5822FF582E5833ED8
:10361000F583E0FF1249D690028BE0FEA3E0FF9015
:103620000289E0FCA3E090027E75F006122DF8EC12
:1036300075F006A42583F583E5822FF582E5833EA8
:10364000F583E0FF1249D690028BE475F002122B4D
:10365000FA808A7F3A1249D6900289E475F0011205
:103660002BFA0235409002B1E4F0A3F0D007D00667
:10367000D005D004D003D002D001D000D0D0D09358
:10368000D086D084D085D082D083D0F0D0E0329064
:103690000269ECF0A3EDF0A3EAF0A3EBF090026E68
:1036A000E0FED394005003023827EED39401400388
:1036B000023827EF24FC601524FD603C146062246E
:1036C000FE700302374A2409600302377390026DCB
:1036D000E0D3940F40117B0C7A0179181249FD90C8
:1036E000026FEFF00237787B0C7A01791C1249FDEA
:1036F00090026FEFF002377890026DE0D3940F40A4
:10370000107B0C7A0179191249FD90026FEFF0805D
:10371000677B0C7A01791D1249FD90026FEFF080F2
:103720005790026DE0D3940F40107B0C7A01791A08
:103730001249FD90026FEFF0803E7B0C7A01791EFA
:103740001249FD90026FEFF0802E90026DE0D3944D
:103750000F40107B0C7A01791B1249FD90026FEF2C
:10376000F080157B0C7A01791F1249FD90026FEFF2
:10377000F08005E490026FF090026FE0FF3395E077
:10378000FEFDFCE47B20FAF9F8122C2BA804A90515
:10379000AA06AB07900269E0FEA3E0FFE4FCFD127D
:1037A0002C10AB07AA06A905A804A3E0FEA3E0FF1E
:1037B000E4FCFD122C2BE4FB7A80F9F8122CB6AD58
:1037C00007AC0690026DE0C3940E502FE0FBC3746B
:1037D0000E9BFFEDA807088005CEC313CE13D8F9C2
:1037E000FDAC06EB04FF90026EE075F003A4249498
:1037F000F582E43402F583EFF0801490026EE075F8
:10380000F003A42494F582E43402F583740FF0AF3E
:103810000590026EE075F003A42492F582E4340270
:10382000F583ECF0A3EFF0227B007A4079807D0CE9
:103830007C0012498F9040827418F07B007A4079A6
:1038400084E4FDFC12498F9040867450F07B007A2E
:103850004079887D177C0012498F90408A7418F057
:103860007B007A40798C7D067C0012498F90408ED7
:10387000741BF07B087A0C798CC003C002C0017BFA
:10388000007A417900900272122E24D001D002D029
:10389000037F047E001244AA9043007406F0904017
:1038A000007408F09042007452F07B0C7A01790F9A
:1038B0001249FD9046A1EFF07B007A4279227D10FB
:1038C0007C0712498F7B007A4279207D517C12124D
:1038D000498FE490026CF07F19FEFDFC90026812A3
:1038E0002DEC900268122DD4D3EF9400EE9400409A
:1038F0003B90026CE0FF64036032904225E054018B
:10390000FEEF25E04E540390026CF0E47FE07E0170
:10391000FDFC124500900268122DD474FFFBFAF9E9
:10392000F8122C10900268122DEC80B690026812EA
:103930002DD4EF4E70057F03124AB77B007A407991
:10394000047D007C0112498F9040047407F0904080
:1039500006E4F09040087448F0904004E4F0904091
:1039600009F09040017402F090400B7404F0904311
:10397000A2E0440FF09043A1E04401F09043A0E0A6
:103980004480F022900268EEF0A3EFF0A3EDF01275
:103990004A5990026CEFF0124A3590026DEEF0A396
:1039A000EFF0900268E0FCA3E0FD6F7002EC6E7037
:1039B00003023AB49043A2E0540290026BF0A3E0F9
:1039C000703BA3E0FEA3E0FF4E6004ED4C702EEFD1
:1039D0004E70117B027A407984124991904086E0C2
:1039E00054BFF022904086E04440F07B027A407958
:1039F00084900268E0FCA3E0FD1249912290026BE2
:103A0000E06054904001E4F09040107402F0904067
:103A100014E4F0904008E0547FF0904086E05408B1
:103A2000600A900268E07002A3E0702B7B027A408B
:103A3000790290026DE0FCA3E0FD124991904001F3
:103A40007407F0904001E0540170F89043A2E054F4
:103A5000FDF0904001E4F09043A2E05402602F7B1F
:103A6000027A407902900268E0FCA3E0FD124991DD
:103A700090026AE060047F0280027F00EF440190C0
:103A80004001F0904001E05401602980F6227B0261
:103A90007A407984900268E0FCA3E0FD124991909D
:103AA00043A2C083C082E0FF90026BE0FEEF4ED0E5
:103AB00082D083F022900268EEF0A3EFF0A3EDF045
:103AC000124A6190026CEFF0124A3F90026DEEF0E4
:103AD000A3EFF0900268E0FCA3E0FD6F7002EC6ED3
:103AE0007003023BE39043A1E0540190026BF0A30A
:103AF000E0703AA3E0FEA3E0FF4E6004ED4C702DB1
:103B0000EF4E70107B027A41F9124991904102E028
:103B100054BFF022904102E04440F07B027A4179A8
:103B200000900268E0FCA3E0FD1249912290026B34
:103B3000E06053904001E4F090401404F090401095
:103B4000E4F0904008E0547FF0904102E0540860B7
:103B50000A900268E07002A3E0702B7B027A407941
:103B60000290026DE0FCA3E0FD12499190400174C7
:103B700007F0904001E0540170F89043A1E054FE3A
:103B8000F0904001E4F09043A1E05401602F7B02EB
:103B90007A407902900268E0FCA3E0FD124991901E
:103BA000026AE060047F0280027F00EF44019040DF
:103BB00001F0904001E05401602980F6227B027AF6
:103BC000417900900268E0FCA3E0FD124991904326
:103BD000A1C083C082E0FF90026BE0FEEF4ED08276
:103BE000D083F022E4900279F0A3F0A3EEF0A3EFEB
:103BF000F07F3C12489B900279EFF07F3B12489B8C
:103C000090027AEFF0A3E0FCA3E0FD90028375F050
:103C100006122DF8EC75F006A42583F583EFF090DD
:103C20000279E0FF90028475F006ED122DF8EC7534
:103C3000F006A42583F583EFF0E4900279F0A3F079
:103C40007F3E12489B900279EFF07F3D12489B9097
:103C5000027AEFF0A3E0FCA3E0FD90028575F00688
:103C6000122DF8EC75F006A42583F583EFF0900291
:103C700079E0FF90028675F006ED122DF8EC75F0F4
:103C800006A42583F583EFF0E4900279F0A3F07F9A
:103C90004012489B900279EFF07F3F12489B9002C0
:103CA0007AEFF0A3E0FCA3E0FD90028775F0061226
:103CB0002DF8EC75F006A42583F583EFF0900279DA
:103CC000E0FF90028875F006ED122DF8EC75F00615
:103CD000A42583F583EFF0E4900279F0A3F022E4C9
:103CE000900279F0A3F0A3EEF0A3EFF07F44124826
:103CF0009B900279EFF07F4312489B90027AEFF09D
:103D0000A3E0FCA3E0FD90027D75F006122DF8EC17
:103D100075F006A42583F583EFF0900279E0FF901B
:103D2000027E75F006ED122DF8EC75F006A42583E1
:103D3000F583EFF0E4900279F0A3F07F4612489B00
:103D4000900279EFF07F4512489B90027AEFF0A342
:103D5000E0FCA3E0FD90027F75F006122DF8EC75F3
:103D6000F006A42583F583EFF0900279E0FF90023E
:103D70008075F006ED122DF8EC75F006A42583F59C
:103D800083EFF0E4900279F0A3F07F4812489B9013
:103D90000279EFF07F4712489B90027AEFF0A3E0A0
:103DA000FCA3E0FD90028175F006122DF8EC75F091
:103DB00006A42583F583EFF0900279E0FF9002825C
:103DC00075F006ED122DF8EC75F006A42583F58349
:103DD000EFF0E4900279F0A3F0227D107F6B1245A2
:103DE0009DE47F1EFEFDFC1242237D207F6A12456A
:103DF0009DE47F1EFEFDFC1242237D057F1A1245C5
:103E00009DE47F1EFEFDFC1242237D187F1B1245A0
:103E10009DE47F1EFEFDFC124223E4FD7F1C124543
:103E20009DE47F1EFEFDFC1242237D057F1D124591
:103E30009DE47F1EFEFDFC1242237D0D7F24124572
:103E40009DE47F1EFEFDFC1242237D0C7F25124562
:103E50009DE47F1EFEFDFC1242237D0A7F26124553
:103E60009DE47F1EFEFDFC1242237D167F631245FA
:103E70009DE47F1EFEFDFC1242237D817F271245BB
:103E80009DE47F1EFEFDFC1242237D8C7F251245A2
:103E90009DE47F1EFEFDFC1242237D037F2612451A
:103EA0009DE47F1EFEFDFC1242237D8D7F2712457F
:103EB0009DE47F1EFEFDFC124223E4FD7F6B124554
:103EC0009DE47F32FEFDFC124223227593007800B0
:103ED0007583467582E8E04401F00090480074C0A4
:103EE000F075811690000078007920E4F0A3D8FCEA
:103EF000D9FAEA9002A7F002261175151F7516FD72
:103F00001245CD1232CB023F44023F89E493A3F81D
:103F1000E493A34003F68001F208DFF48029E493E0
:103F2000A3F85407240CC8C333C4540F4420C883D7
:103F30004004F456800146F6DFE4800B01020408D9
:103F400010204080904388E47E019360BCA3FF541E
:103F50003F30E509541FFEE493A360010ECF54C027
:103F600025E060A840B8E493A3FAE493A3F8E493AF
:103F7000A3C8C582C8CAC583CAF0A3C8C582C8CAB7
:103F8000C583CADFE9DEE780BE124AB0E47F64FE83
:103F9000FDFC1242237F01124AAA1247A0124919BE
:103FA00012472712493E1249507E307FBD124746C4
:103FB0001248F31247F01246E212496212492C12DB
:103FC0004707E47F0AFEFDFC124223124809124A09
:103FD00051E49002AEF0A3F09002AEE0FEA3E0FF49
:103FE000C39401EE648094805024124A9EE47F0AB8
:103FF000FEFDFC124223123DDAE47F0AFEFDFC12B4
:1040000042239002AEE475F001122BFA80CAE4FF5D
:10401000124AA4D2AF9044F474FDF0124906124A39
:1040200069E49002B1F0A3F07F1EFEFDFC12422372
:10403000124A49EF30E7F912493E80F42290028D8E
:104040007401F0E4900298F07F101249E37F10129F
:1040500049F07D077F1D1247D79058967404F0A34E
:10406000E4F090589EF0905B07E04418F09058936D
:10407000E4F0905B88F0A3F0905880740AF0A3E419
:10408000F0905883F09058887412F0A304F0905880
:104090008DE4F0904E017414F090026D740CF0A356
:1040A0007401F07B007A807D6B7C8D7F0212368FED
:1040B00090028DE075F003A42494F582E43402F5B7
:1040C00083E0904E0EF090028DE075F003A42492F0
:1040D000F582E43402F583E0FCA3E0FD7B027A4E36
:1040E000790C12499190028DE0FF1240EE22E4908B
:1040F0000293F0EF6401600302419A904E0074381D
:10410000F0904E027406F0A37408F0A3E4F0A3F05C
:10411000A3741FF0904E08E4F0A3F0A3F0904E14A7
:1041200004F09058847414F0A37405F0A37416F08E
:10413000A3E4F090588A7444F0A37448F0A3740187
:10414000F090588EF0A37411F0A37419F0A3749733
:10415000F07F5212446D9058947458F0A3E4F0909C
:10416000589A7405F0A37402F0A3E4F0A3F0FF12D0
:10417000483BE47F337E03FDFC900299122DEC7DD9
:10418000017F257E001239847D017F957E00123AE1
:10419000B57C4A7DBB7F1D124334221248C9900270
:1041A00069EFF090028DE0900268F09043AAE0443D
:1041B00001F0E04410F09043BAE04401F0E0441014
:1041C000F09046F8E04402F0A3E04402F0905891E9
:1041D000E04403F07F037E0012465C9046F8E05412
:1041E000FDF0A3E054FDF0905877E04406F09058BD
:1041F00082747AF09043A1E04401F09043B1E0442E
:1042000001F09043A2E04402F09043B2E04402F097
:104210009044DB7420F09044C3F0900269E0FF12F8
:1042200048542290FFFC122E5F122DEC85158385D9
:104230001682122DD4D3EF9400EE9480402E90027B
:10424000A8122DD4124500851583851682C083C01F
:1042500082122DD4E42FFFEE3480FEED34FFFDEC0E
:1042600034FFFCD082D083122DEC80C090029E12CD
:104270002DD4851583851682122DE0122C2B124524
:1042800000900004122E5F221248DE90026974FF33
:10429000F0124765EF703B7F0112462DEF64077007
:1042A0002C7B017A0279B67D021242DEEFB4021550
:1042B000E4900269F0904722E0540270107F01FE02
:1042C00012465C80F0904722E0540260D4124A15F6
:1042D00080069002697404F0900269E0FF22900267
:1042E0006A122E2490026DEDF0E4A3F090026DE0CE
:1042F000FFA3E0C39F5037904722E054016003D3EF
:104300008001C340097F017E0012465C80E990472E
:1043100020E0FF90026A122E0490026EE029F9E478
:104320003AFAEF122BE890026EE004F080BE9002A1
:104330006EE0FF22900269ECF0A3EDF0900268EFCE
:10434000F0541F25E0FFE433FEE42FFFEE3444FA7F
:10435000A9077B0112498290026BEEF0A3EFF09067
:104360000268E075F002A42400FFE5F03444FAA9E5
:10437000077B01A3E0FEA3E0FFFDAC06124991908C
:10438000026BE0FEA3E0FF224102B00041019A006F
:104390004402A302DC6C0044029E0000BB80410288
:1043A000A2304402A85DC000004102B80042028B66
:1043B00000004102BE004102980041029300410208
:1043C0008E004102940041028D014302B3000000BF
:1043D0004102BF004102C0FF001248DE124765EFF4
:1043E000703B1247BC900269EFF06407702A904757
:1043F00022E0540270087F01FE12465C80F0904774
:1044000022E054026009E0FF1313543FFF80027F53
:10441000FFEF7004900269F0124A1580069002695D
:104420007404F0900269E0FF22C2D5E830E70FB2D1
:10443000D5E4C39BFBE49AFAE499F9E498F8EC30EC
:10444000E717B2D512445F122CB6E4C39BFBE49A83
:10445000FAE499F9E498F88003122CB630D50DE40B
:10446000C39FFFE49EFEE49DFDE49CFC2290026855
:10447000EFF01248C9900269EFF09046F8E044036B
:10448000F0A3E04403F0900268E0905892F07F03BC
:104490007E0012465C9046F8E054FCF0A3E054FC29
:1044A000F0900269E0FF12485422758600EF4E60DA
:1044B00027EF60010E759300900272E0F595A3E07E
:1044C000F585A3E0F5848B938A838982E0A3058632
:1044D000F0A31586DFF6DEF4E4F593F59522E4907B
:1044E0000269F0900269E0FFC39402500B12453B51
:1044F000900269E004F080EB9002C074FFF0222289
:10450000EC4D4E700D78FCEF24E950032840FD225D
:1045100000007BF178DA0000EF28FF78FFEE38FE2C
:10452000ED38FDEC38FC50E7EF2BFFEE38FEED38B0
:10453000FDEC38FC40F22205020304EFC394025064
:104540002AEF25E024CBF582E4344AF583E493FC9A
:10455000740193F5828C83C083C082E0FEEF904AA1
:10456000CF93F4FFEE5FD082D083F0221248C9903F
:1045700043A0E04408F09043B0E04408F0904701C5
:1045800074C8F09043ACE04410F09043BCE0441099
:10459000F0904700E0542060F812485422900268DE
:1045A000EFF0A3EDF012496212492C124707900276
:1045B00068E0FF1249C9124971EF30E1F9900269D0
:1045C000E0FF1249C9124971EF30E1F922E490028B
:1045D00068F0900268E0FFD3941F5020EF75F0025E
:1045E000A42400FFE5F03444FAA9077B017C4A7D4E
:1045F000B4124991900268E004F080D622EFC3948F
:10460000025029EF25E024CBF582E4344AF583E417
:1046100093FC740193F5828C83C083C082E0FEEF2B
:10462000904ACF93FFEE4FD082D083F0227E079046
:104630004722E05402601F90472074B6F074E1F006
:10464000740EF0904722E054027007904720EFF07C
:1046500080067E0980027E04AF062222EEFA9002D6
:10466000A2E0F88FF0A4FFAEF0E88AF0A42EFEE5F9
:10467000F03400FDEF24C9FF78FFEE38FEED38FD81
:10468000E438FC500302450022ACEAADA08B938ACB
:10469000838982E0F96017A3E0F5EAA3E0F5A0A31F
:1046A000E060F4FAA3E0F8A3E0F2DAF8D9E98DA02B
:1046B0008CEAE4F593227B0C7A0179CF1249FDEF65
:1046C000540790586EF0EFC4540FA3F0905A8C74B6
:1046D00001F0905B0004F0905B58F09058767444C1
:1046E000F0221248C9906492E04420F0906596E070
:1046F0004410F0906495E04410F012485412499E22
:104700001244FF12465B22906465E030E507906436
:1047100052E0FF80F21248C9906492E04401F0E058
:1047200054FEF0124854229064867469F0906587B4
:104730007420F09065277406F09065377447F09008
:1047400065847401F022900268EEF0A3EFF0124A43
:104750007E900268E0FEA3E0FF1249BB7F07124A89
:104760002B124A772290026A7404F01248C9900210
:10477000BFE0700704F0E490026AF012485490021F
:104780006AE0FF221248C9906496E04420F09065E8
:1047900097E04410F0906594E04410F012485422E1
:1047A0001248C9906496E054DFF0906597E054EFAA
:1047B000F0906594E054EFF0124854227F07904740
:1047C00022E05402600E90472074B6F074E0F0745A
:1047D0000DF080027F0422AC07ED540775F020A491
:1047E000FFEC541F2480F582E43444F583EFF0227B
:1047F000906482740FF0124707124A8C124A92900A
:104800006586E4F0906485F02290028EE0700F904F
:104810000294E0700312403D90028E7401F0124148
:104820009B22EC4D6011ED60010C8B938A83898291
:10483000E4F0A3DDFCDCFA75930022900268EFF04F
:104840001244DE900268E0FF1245FD900268E0909D
:1048500002C0F022EF54016004D2AF8002C2AFEF79
:104860005402FF9044F4E054FD4FF0221243D990DB
:104870000268EFF07008124288900268EFF0900230
:1048800068E0FF22900277EEF0A3EFF0123BE49095
:104890000277E0FEA3E0FF123CDF22EF4480FF122C
:1048A00049C9E4FF1249C9124971EF30E0F9124ACF
:1048B0009822E4FF906567E0FE30E50C906444E0E8
:1048C000FFEE541E6002E4FF229044F4E0F844023C
:1048D000F0E85402FF10AF012274014FFF2212488A
:1048E000C99043A0E04408F09043B0E04408F012BF
:1048F0004854229002B8E070091247F09002B87450
:1049000001F01246E222124A707E347FCD1249AD88
:104910007F07124A21124A69229002BEE0700912F2
:1049200047279002BE7401F0124784221248C990B2
:104930006492E04401F0E054FEF012485422124820
:10494000C9906494E04401F0E054FEF0124854220F
:104950001248C9906594E04401F0E054FEF012481A
:104960005422906465E030E507906452E0FF80F2E5
:1049700022906465E0FF906566E04FFF54EFFF22F0
:104980008B938A838982E0FFA3E0FE759300228BDC
:10499000938A838982EDF0A3ECF075930022904313
:1049A000A2E04404F09043B2E04404F0227B027A97
:1049B000447902AD07AC06124991227B027A447910
:1049C00000AD07AC0612499122906566E030E2F92D
:1049D000906442EFF022906564E020E2F990654433
:1049E000EFF022904086E0FEEF54F8FFEE4FF02209
:1049F000904102E0FEEF54F8FFEE4FF0228B938AD5
:104A0000838982E0759300FF228B938A838982EDEC
:104A1000F0759300221248C9E49002BFF012485486
:104A200022EFC43354E0904481F022EFC43354E0C9
:104A3000904480F0227B027A407984124982227B62
:104A4000027A41790012498222906567E0547FFF23
:104A500022904E00E04401F022904086E05407FF8F
:104A600022904102E05407FF229044C07402F022D9
:104A70009044C87402F0229044C07401F022904423
:104A8000C87401F02212486C12456C22906566E0F1
:104A9000FF22906465E0FF22906452E0FF2290655F
:104AA00074EFF022906473EFF022906474EFF022C0
:104AB000124A852280FE3280FE2232323232325158
:104AC0001D5A8C511D4324010202005B0343244004
:104AD00000005130004001000002000102800D8002
:104AE00001140008000140000A00014C000200010E
:0C4AF00050000020010200080BE00080D4
:00000001FF
