:40000000021415008F828E83E0540100000070F82278FFE4F6D8FD02147A900000EFF0E4F53FF540F541F54275430AC200121F87EF60057F00121FB7122067D2AF9044F4FC
:4000400074FDF0E4F53B754900754A00754B37900000E0FF70067EFF7FFF80008F4C7B017A0079017D2C7C011212FA8F3E900000E060021543E5436004E53E70C9E53E6046
:400080000302059FC3E5389407E53794004008900001E064016005753B04807E900004E0FE900003E0FDEEF53FEDF54074062540F5827400353FF583E0FE74052540F58228
:4000C0007400353FF583E0FDEEF53CEDF53DE5402407FFE4353FFED3EF9538EE95374005753B03803574072540F5827400353FF583E064176005753B04801F7B017A0079B1
:4001000001E5402404FDE4353FFC121C66EF653D7003EE653C6003753B08E4F539F53AE53B600302058E900005E0F536753B04900002E012088801553101823202083403A0
:400140007A3503883703D438020839040F3A05783B0000058B20000302058EE540453F600302058EFF120D84EF70047F0180027F00900005EFF0753900753A01E4F53B0260
:40018000058E20000302058EE5406401453F600302058EE536C39401400302058E900357E0FEA3E0F5828E83120842E4FBFA7901F81207188F24E536B5241E900357E0FE6B
:4001C000A3E0F5828E83120842E4FB7A01F9F81207187522008F238014E536D395244007E4F522F5238006752201752300E523900005F0E522A3F0A374FFF0E4A3F0F539B6
:40020000753A04F53B02058E900002E06434703C20000302058EE5406403453F600302058EE536C39440400FE536D3947F50087541007542108006754101754220AE41AF47
:40024000427D007B017A01792D1208FF20000302058EC3E5409403E53F9400500302058EE54024FDFFE53F34FFFE742D2542F974013541A801FC7D017B017A0079081209F7
:40028000E7E54024FDFFE53F34FFFEEF2542F542EE3541F541E536C394404012E536D3947F500B121DA8753F007540108006753F01754020E54265407004E541653F600369
:4002C00002036F900007E0FE900006E0FDEEF541EDF542E536D3943F506FE5367F00FEEF2542FFE5413E900259F0A3EFF0900357E0FEA3E0F5828E83120842E4FB7A01F9AA
:40030000F812071890025BEEF0A3EFF0900357E0FEA3E0F5828E83120842EFE4EF600A90025BE475F0011205DA90025BE0FEA3E0FFC390025AE09F900259E09E500B753BD5
:400340000AE4F541F54202058E7B017A01792D900263E53FF0A3E540F0AD42AC41AF36120F0BEF60047F0A80027F008F3B8003753B03E4F541F54202058E20000302058EC7
:40038000E4F541F54202059F20000302058EE5422540FFE541353FFED3EF942CEE9401502DE4F53BAE3FAF40742D2542F974013541A801FC7D017B017A0079051209E7E58F
:4003C000402542F542E53F3541F54102058E753B0302058EE540453F600302058E78257C00FD7BFF7A25791FFE7F081209E7D200753900753A08AE39AF3A78057C007D0105
:400400007B007A0079251209E7E4F53B02058E20000302058EE5406403453F600302058E900007E0FE900006E0FDEEF52FEDF530E536C394404038E536D3947F5031AE2F29
:40044000AF307C007D101208D28F348E338D328C318F4B8E4A8D498C48E4754F10F54EF54DF54CFF7E80FDFC12192C8F358050AE2FAF307C017D001208D2C004C005C006FC
:40048000C007AF36E4FCFDFEFBFA7901F812068DD003D002D001D0001206728F348E338D328C318F4B8E4A8D498C48E4F54F754E01F54DF54CFFFE7D10FC12192C8F35E588
:4004C00036D3943F5072AF367E007C207D001208D2E42FFFE43EFEED3408FDE43CFCC004A905AA06AB07AE2FAF307C007D201208D2D0001206728F348E338D328C31E4F5BA
:400500002DF52EC3E52E9420E52D9400502AE4E52E2534FFE52D3533FEE43532FDE43531A907AA06AB05121CF3EF2535F535052EE52E7002052D80CBE536702AAE2FAF301E
:40054000FCFD7BFFFAF9F8C31207C57019FD7F05120A3DC3E5359FF535E4FD7F06120A3DC3E5359FF535E535F404900005F0E4F53BF539753A018016E4FF120D84EF700604
:400580009046FA7480F01220718003753B057B017A007901853948853A49AF3B1215ED900000E0700302004330000302004322BB010689828A83E0225002E722BBFE02E399
:4005C0002289828A83E49322BB010689828A83F0225002F722BBFE01F322C5F0F8A3E028F0C5F0F8E582158270021583E038F022BB010A89828A83E0F5F0A3E022500687B6
:40060000F009E71922BBFE07E3F5F009E3192289828A83E493F5F074019322BB010789828A830205DA500B09C5F027F7C5F01937F722BBFE0D09F8E325F0F3C5F019E338A6
:40064000F322F889828A8374019325F0C5F0F8E4933822BB010A89828A83F0E5F0A3F0225006F709A7F01922BBFE06F3E5F009F31922EF2BFFEE3AFEED39FDEC38FC22C315
:40068000EF9BFFEE9AFEED99FDEC98FC22E88FF0A4CC8BF0A42CFCE98EF0A42CFC8AF0EDA42CFCEA8EF0A4CDA8F08BF0A42DCC3825F0FDE98FF0A42CCD35F0FCEB8EF0A47C
:4006C000FEA9F0EB8FF0A4CFC5F02ECD39FEE43CFCEAA42DCE35F0FDE43CFC2275F008758200EF2FFFEE33FECD33CDCC33CCC58233C5829BED9AEC99E58298400CF582EE4A
:400700009BFEED9AFDEC99FC0FD5F0D6E4CEFBE4CDFAE4CCF9A88222B800C1B90059BA002DEC8BF084CFCECDFCE5F0CBF97818EF2FFFEE33FEED33FDEC33FCEB33FB10D7C4
:4007400003994004EB99FB0FD8E5E4F9FA227818EF2FFFEE33FEED33FDEC33FCC933C910D7059BE99A4007EC9BFCE99AF90FD8E0E4C9FAE4CCFB2275F010EF2FFFEE33FE50
:40078000ED33FDCC33CCC833C810D7079BEC9AE899400AED9BFDEC9AFCE899F80FD5F0DAE4CDFBE4CCFAE4C8F922EF4BFFEE4AFEED49FDEC48FC22C3E49FFFE49EFEE49D2F
:4007C000FDE49CFC22EB9FF5F0EA9E42F0E99D42F0E89C45F022E8600FECC313FCED13FDEE13FEEF13FFD8F122E8600FEFC333FFEE33FEED33FDEC33FCD8F122BB010789DC
:40080000828A830208365005E9F8020A0DBBFE05E9F8020A1989828A83020842BB010789828A8302085E5005E9F8020A25BBFE05E9F8020A3122E0FCA3E0FDA3E0FEA3E06A
:40084000FF22E493FC740193FD740293FE740393FF22E0F8A3E0F9A3E0FAA3E0FB22ECF0A3EDF0A3EEF0A3EFF022E0FBA3E0FAA3E0F922EBF0A3EAF0A3E9F022E493FB74E9
:400880000193FA740293F922D083D082F8E4937012740193700DA3A393F8740193F5828883E4737402936860EFA3A3A380DFE5092582F582E5083583F583B50804858209B7
:4008C0002210AF06858209F50822858209F508D2AF22EC8EF0A4CCC5F0CCCDF8EFA4CEC5F02DFDE43CFCE8A42EC8C5F03DFDE43CFCEFA4FFE5F028FEE43DFDE43CFC22EF51
:400900004E6012EF60010EEDBB010B89828A83F0A3DFFCDEFA2289F05007F709DFFCA9F022BBFEFCF309DFFCA9F022E709F608DFFA8046E709F208DFFA803E88828C83E7AA
:4009400009F0A3DFFA8032E309F608DFFA806EE309F208DFFA806688828C83E309F0A3DFFA805A89828A83E0A3F608DFFA804E89828A83E0A3F208DFFA804280D280FA80F3
:40098000C680D4805580F28029801080A680EA809A80A880DA80E280CA802988848C8589828A83E493A30586F0A30586DFF5DEF3800B89828A83E493A3F608DFF9ECFAA95D
:4009C000F0EDFB2288848C8589828A83E0A30586F0A30586DFF6DEF480E389828A83E493A3F208DFF980D688F0EF60010E4E60CD88F0ED2402B4040050C3F582EB2402B455
:400A0000040050B9232345822390097B73E6FC08E6FD08E6FE08E6FF22E2FC08E2FD08E2FE08E2FF22ECF608EDF608EEF608EFF622ECF208EDF208EEF208EFF22290025D03
:400A4000EDF0AB079002627402F0E4FFFEFDFCA312085EEB1208880A79010AA6020ACB030AF0040B15050B40060B8F070B6B080BB3090BD70A00000C0190025DE0FF7E005E
:400A80007C017D001208D21207B7EF24C0FFEE34FFFEED3410FDE43CFCA312085E9002627401F0020C0C90025DE0FF7E007C017D001208D2C374C39FFF74FF9EFE74109DBD
:400AC000FDE49CFCA312085E020C0C90025DE0FF7E007C017D001208D2C374C79FFF74FF9EFE74109DFDE49CFCA312085E020C0C90025DE0FF7E007C017D001208D2C37433
:400B0000CB9FFF74FF9EFE74109DFDE49CFCA312085E020C0C90025DE0FF7E007C017D001208D2C374D09FFF74FF9EFE74109DFDE49CFCA312085E9002627401F0020C0C60
:400B400090025DE0FF7E007C017D001208D2C374D19FFF74FF9EFE74109DFDE49CFCA312085E9002627401F0020C0C90025DE0FF7E007C017D001208D2C374D69FFF74FF16
:400B80009EFE74109DFDE49CFCA312085E807D90025DE0FF7E007C017D001208D2C374D29FFF74FF9EFE74109DFDE49CFCA312085E805990025DE0FF7E007C017D00120811
:400BC000D2C374D49FFF74FF9EFE74109DFDE49CFCA312085E803590025DE0FF7E007C017D001208D2C374D89FFF74FF9EFE74109DFDE49CFCA312085E9002627404F08082
:400C00000BE4FFFEFDFC90025E12085E900262E0B4011990025E120836A907AA06AB05121CF3E4FCFDFE90026312085E900262E06402705C90025E120836EF2401FFE43E91
:400C4000FEE43DFDE43CA907AA06AB05121CF3E4FCFDFE90026312085E900263120852C000C001C002C00390025E120836A907AA06AB05121CF3E4FCFDFE78081207E9D0BA
:400C800003D002D001D0001207AA90026312085E900262E064046003020D7D90025E120836EF2403FFE43EFEE43DFDE43CA907AA06AB05121CF3E4FCFDFE90026312085E37
:400CC000900263120852C000C001C002C00390025E120836EF2402FFE43EFEE43DFDE43CA907AA06AB05121CF3E4FCFDFE78081207E9D003D002D001D0001207AA9002634F
:400D000012085E900263120852C000C001C002C00390025E120836EF2401FFE43EFEE43DFDE43CA907AA06AB05121CF3E4FCFDFE78101207E9D003D002D001D0001207AA84
:400D400090026312085E900263120852C000C001C002C00390025E120836A907AA06AB05121CF3E4FCFDFE78181207E9D003D002D001D0001207AA90026312085E90026356
:400D8000120836228F44AD447F03120A3DEF2401FFE43EFEE43DFDE43CFCE4FB7A01F9F812068DC004C005C006C007AD447F04120A3DD003D002D001D0001206728F4C8EA9
:400DC0004B8D4A8C49C201E4F54DAD447F03120A3DEF2401FFE43EFEE43DFDE43CFCE4FB7A01F9F812068D8F488E478D468C45AF4CAE4BAD4AAC49AB48AA47A946A845C337
:400E00001207C55032854882854783E493F54E6005F46002D201E54E254DF54DAF48AE47AD46AC45E47B01FAF9F81206728F488E478D468C4580B8AD447F03120A3DEF2479
:400E400001FFE43EFEE43DFDE43CFCE4FB7A01F9F812068D78031207D68F488E478D468C45E47FC07EFFFDFCAB4CAA4BA94AA849C31207C57007FF7E20FDFC800DAF4CAE21
:400E80004BAD4AAC4978031207D68F4C8E4B8D4A8C49AF4CAE4BAD4AAC49AB48AA47A946A845C31207C55039E42548FFE43547FEE5463408FDE43545A907AA06AB05121CB9
:400EC000F3EF254DF54DAF48AE47AD46AC45E47B01FAF9F81206728F488E478D468C4580B1E54DF404F54DAD447F01120A3DA804A905AA06AB07AF4DE4FCFDFEC31207C5CC
:400F000070032001037F06227F002290025EECF0A3EDF0A312087390025DEFF0E4900265F0EFD3943F500E90025DE0940140069002657401F090025DE0FFD3947F4006903A
:400F400002657401F0EFC39440400CEFD3944140069002657401F0EFD3943F501E90025EE0FEA3E0FFE4FCFDFB7A01F9F8C31207C5502F9002657401F08027D390025FE03C
:400F8000948090025EE0940040069002657401F0900263E07004A3E0641060069002657401F090026012086AE94A4B700590026504F0900265E0600302108A121EFEEF606E
:400FC0000302108490025EE0FCA3E0FDA312086A900263E0FFA3E090026CCFF0A3EFF090025DE0FF1211DE900265EFF06407600302107F904722E0540270087F01FE121EF6
:401000006480F0904722E054026009E0FF1313543FFF80027FFFEF7006900265F0800690026574FFF0900265E0705490025DE0FFA3E0FCA3E0FD900353E0FBA3E090026AD9
:40104000F0121A90900265EFF064077032904722E0540270087F01FE121E6480F0904722E054026009E0FF1313543FFF80027FFFEF7006900265F0800690026574FFF0124B
:40108000205180069002657404F0900265E0FF227B007A4679E8121CF3EF4401FD7B007A4679E8122045E4F52CE52CC3940A502CE52C75F005A42461F582E43424AF82F571
:4010C000218F22F58312087C8F82852183740393FC740493FD121F6E052C80CDE4F52CE52CC394015046E52C75F007A42413F582E43425AF82F5238F24F58312087C8B25E1
:401100008A2689278F82852383740393FE7404938E28F529740593F52A740693F52BAD29AC28FFAE2A121EB8052C80B37E207F92121DD97B017A507903121CF3EF4402FD3B
:401140007B017A5079031220457B017A507913121CF3EF4402FD7B017A5079131220459043A0E04440F09043C2E04410F07C207D827B007A5179127F087E00121EB87C2053
:401180007D8A7B007A5179227F087E00121EB89044F47401F0904322E04408F09046ECE0C394055006904689743AF090480074F1F012150690480074B1F0121F1D7B007A41
:4011C0004379A0C00179B0900005120873D0017F0E7E00121D749043B0E054FDF022900266EFF0A3ECF0A3EDF0A312087390026E7407F0904722E0540270030212EE904756
:401200002074B6F074D5F07402F0904722E0540260030212E6900266E0904720F0E490026FF0A3F090026CE0FEA3E0FF90026FE0FCA3E0FDC39FEC9E501F90026912086A8D
:40124000E92DF9EA3CFA1205AF904720F090026FE475F0011205DA80CB90026CE064017002A3E060030212F4900266E0FFD3943F40030212F47E007C207D001208D2E42F0A
:40128000FFE43EFEED3408FDE43CFCC004A905AA06AB07A3E0FEA3E0FF7C007D201208D2D00012067290027112085EE490026FF0A3F090026FE0FEA3E0FFC39420EE94005A
:4012C0005032E4FCFDA3120852120672A907AA06AB05121CF3904720EFF090026FE475F0011205DA80CC90026E7409F0800690026E7404F090026EE0FF228B448A4589469E
:401300008C478D48755505E4F54DF54EE54C75F00AA4FFC3E54E9FE54D95F0503B121B34EF6022121B347553008F54E47F19FEFDFC1218C7121B34D3EF9554E4955350E366
:40134000E4F5558013E47F01FEFDFC1218C7054EE54E7002054D80B4AB49AA4AA94BE4F5F0120653E4F54FF550121B34EFD394005003021412121B347551008F52AB49AA8D
:401380004AA94BE5518552F012061BAB49AA4AA94B1205F0C39548E5F09547505FE4F54DF54EC3E54E9552E54D95515025121C1CAB44E5462550F9E545354FFAEF1205C8C1
:4013C0000550E5507002054F054EE54E7002054D80D0AB44E55024FFFFE54F34FFFEE5462FF9E5453EFA1205AF64177003021369E47F05FEFDFC1218C7021369AB49AA4ABB
:40140000A94B1205F0C39552FFE5F095518FF0120653AF552275930078007583467582E8E04401F0009046ECE0F99046FAE0FA90034BF0B903225420B40012B8001AEA9014
:401440001FFFF07401901FFEF09046F6F0901FFEE06005901FFFE0FA90480074C0F0758156121EDE90000078007920E4F0A3D8FCD9FAEA90034BF002001175081F7509FD1F
:401480001210900214C1022079E493A3F8E493A34003F68001F208DFF48029E493A3F85407240CC8C333C4540F4420C8834004F456800146F6DFE4800B0102040810204063
:4014C00080901B83E47E019360BCA3FF543F30E509541FFEE493A360010ECF54C025E060A840B8E493A3FAE493A3F8E493A3C8C582C8CAC583CAF0A3C8C582C8CAC583CABE
:40150000DFE9DEE780BE7B007A4079807D337C001220279040827418F09043007402F09040007408F09042007403F07B0C7A017908121CF39046A1EFF07B007A4279227D68
:40154000087C001220277B007A4279207D517C12122027E4900004F07F19FEFDFC90000012085E900000120836D3EF9400EE9400403B900004E0FF64036032904225E05440
:4015800001FEEF25E04E5403900004F0E47FE07E01FDFC121D0090000012083674FFFBFAF9F812067290000012085E80B6900000120836EF4E70057F0312207F7B007A402A
:4015C00079047D007C011220279040047407F0904006E4F09040087448F0904004E4F09040017402F09043A2E04401F0228B458A46894774011205C8AB452547F9E43546AB
:40160000FAEF1205C8E549AB45E5472402F9E43546FAE5491205C8E548FFAB45E5472403F9E43546FAEF1205C8AB45AA46A947E5492404FDE43548FC121C668E4A8F4BEFCF
:40164000AB45E5492404FDE43548FCE5472DF9E5463CFAEF1205C8E54AFFAB45E5492405FDE43548FCE5472DF9E5463CFAEF1205C8AB45E5492406FFE43548FEE5472FF9FF
:40168000E5463EFA74171205C8E5492407FDE43548FC755100755200755348755496AB45AA46A947121BD122C0E0C083C082C085C084C086758600C093759300C0D075D09F
:4016C00000C001C002C003C006C007E4FBA2AF33FAD2AF9044F474FDF090646CE0FFFE541EF960069002FDE049F0EF30E54590644AE0FE9002F9E02478F582E43402F583E5
:40170000EEF07B01EB602C900276E060069002FC7401F09002F9E004F0E0C394404002E4F0900277E0FE9002F9E0B506069002767401F0EF20E5A2AF02EA24FF92AFD007BF
:40174000D006D003D002D001D0D0D093D086D084D085D082D083D0E032752106E4FF120D84EF7002F521E4F54BF54AF549F548900357E0FEA3E0F5828E831208428F4F8E82
:401780004E8D4D8C4CE4FFFE7D10FC12192C900355E0FCA3E0F5828C83E493FEC3EF9EFFF404FFB50612900357E0FEA3E0F5828E83120842EF4E70057F00121FB79046FAFB
:4017C000E054C064406004E52160099046FAE4F0FF12001A12205D22C0E0C083C082C085C084C086758600C093759300C0D075D000C006C007A2AFE433FFD2AF9044F4742E
:40180000FDF09002FAE0FE9002B8E06E602C90646EE020E2259002B8E0C394404002E4F09002B8E024B9F582E43402F583E090644DF09002B8E004F080C8EF24FF92AFD043
:4018400007D006D0D0D093D086D084D085D082D083D0E032A9079002FAE0FF9002B8E0FEEFC39E501AEE24FFFDE434FFFCEF7A00B50508EAB504047D0180027D00800CC346
:40188000EF9EB43F047D0180027D00ED70C8EEB5070D90646EE020E20690644DE9F022EFC394404002E4FF74B92FF582E43402F583E9F00F9002FAEFF090646EE030E10609
:4018C0009044D07402F02290FFFC1208AE12085E850883850982120836D3EF9400EE9480402E90034C120836121D00850883850982C083C082120836E42FFFEE3480FEEDC9
:4019000034FFFDEC34FFFCD082D08312085E80C090034212083685088385098212085212068D121D009000041208AE228F478E468D458C44E4F550D3E54F9400E54E940025
:40194000404BAF4FAE4EAD4DAC4C74FFFBFAF9F81206728F4F8E4E8D4D8C4CE547254BFFE546354AFEE5453549FDE5443548FCEF254FFFEE354EFEED354DFDEC354CA907BD
:40198000AA06AB051205AF2550F55080AAAF5022121FE190025E74FFF0121EFEEF703B7F01121E35EF6407702C7B017A0379537D021219E6EFB40215E490025EF090472228
:4019C000E0540270107F01FE121E6480F0904722E0540260D4122051800690025E7404F090025EE0FF2290025F120873900262EDF0E4A3F0900262E0FFA3E0C39F50379065
:401A00004722E054016003D38001C340097F017E00121E6480E9904720E0FF90025F12086A900263E029F9E43AFAEF1205C8900263E004F080BE900263E0FF2290025EEC49
:401A4000F0A3EDF090025DEFF0541F25E0FFE433FEE42FFFEE3444FAA9077B0112201A900260EEF0A3EFF090025DE075F002A42400FFE5F03444FAA9077B01A3E0FEA3E0EC
:401A8000FFFDAC06122029900260E0FEA3E0FF22900267ECF0A3EDF0AC077D07904722E05402603B90472074B6F074D8F07405F0904722E054027023904720ECF09002670F
:401AC000E0904720F0900267E0A3E0904720F0EBF090026AE0904720F080067D0980027D04AF0522121FE1121EFEEF703B121F3A90025EEFF06407702A904722E0540270A1
:401B0000087F01FE121E6480F0904722E054026009E0FF1313543FFF80027FFFEF700490025EF0122051800690025E7404F090025EE0FF229044C87401F09002F9E0FE905D
:401B40000277E0B5060E900276E060047F40802CE4FF80289002F9E0FE900277E0C39E500BE0FE9002F9E0C39EFF8010900277E0FEC374409EFE9002F9E02EFF9044C07420
:401B800001F022420355251A420357251B430350000000440347016E360044034200005DC04103461844034C2EE000004102FB004102B8004102FA004102FD00410277003B
:401BC0004102F900410276004102FC0041035B00008B4C8A4D894E8C4F8D50E4F555F556121E07C3E5569550E555954F501DAB4CE54E2556F9E54D3555FA1205AFFF121874
:401C0000540556E5567002055580D8AB51AA52A953E54F8550F01206537F00229044C87401F0900277E0FE9002F9E0FD900276E07004EE6D602474782EF582E43402F583EF
:401C4000E0FF0EEEC394404002E4FE900277EEF0900276E06009E4F0800590644AE0FF9044C07401F0228B4C8A4D894EE4F54FF550D3ED9400EC94004025AB4CED24FFFFD4
:401C8000EC34FFFEE54E2FF9E54D3EFA1205AF2550F550E4354FF54FED1D70011C80D2E550F4FFE54FF4FEEF2401FFE43EFE227C167DA8E4FF121A3C7D07E4FF121F55E4B7
:401CC0009002FDF090648A7469F090648C7420F07C177DD87F01121A3C7D077F01121F5590642E7406F090643E7447F090648E7402F0228B938A838982E0759300FF22000A
:401D0000EC4D4E700D78FCEF24E950032840FD2200007BF178DA0000EF28FF78FFEE38FEED38FDEC38FC50E7EF2BFFEE38FEED38FDEC38FC40F22205020304121FCC9002FD
:401D40005DEFF090649AE04420F090649CE04410F09044C07401F090649EE04410F09044D87402F09044C0F012203690025DE0FF121F9F22758600EF4E6027EF60010E75B2
:401D80009300900005E0F595A3E0F585A3E0F5848B938A838982E0A30586F0A31586DFF6DEF4E4F593F59522121FCC9043A0E04408F09043B0E04408F090470174C8F090A8
:401DC00043ACE04410F09043BCE04410F0904700E0542060F8121F9F22ACEAADA08E838F82E493F9601CA3E493F5EAA3E493F5A0A3E49360F1FAA3E493F8A3E493F2DAF6BC
:401E0000D9E48DA08CEA22121FCC90649AE04401F0E054FEF0121F9F9044C87401F0E4900277F09002F9F0900276F09002FCF09044C004F0227E07904722E05402601F9052
:401E4000472074B6F074E1F0740EF0904722E054027007904720EFF080067E0980027E04AF062200EEFA900346E0F88FF0A4FFAEF0E88AF0A42EFEE5F03400FDEF24C9FF5A
:401E800078FFEE38FEED38FDE438FC5003021D0022121FCC90649DE04401F0E054FEF0121F9F9044C87402F0E49002B8F09002FAF09044C07402F022758600EF4E601BEFCA
:401EC00060010E8C838D828B958A858984E493A30586F0A31586DFF5DEF3E4F595229046FAE054C064807015F0FD7F02120A3DEF4E600AE4FD7F02120A3D122009229002CC
:401F0000667404F0121FCC90035BE0700704F0E4900266F0121F9F900266E0FF227B0C7A0179CF121CF3EF540790586EF0EFC4540FA3F09058767444F0227F07904722E0DD
:401F40005402600E90472074B6F074E0F0740DF080027F0422AC07ED540775F020A4FFEC541F2480F582E43444F583EFF022EC4D6011ED60010C8B938A838982E4F0A3DDB0
:401F8000FCDCFA75930022121AE490025DEFF0700812199090025DEFF090025DE0FF22EF54016004D2AF8002C2AFEF5402FF9044F4E054FD4FF02290FFFF1208AEEFF090D7
:401FC00046EA7401F09000011208AE229044F4E0F84402F0E85402FF10AF012274014FFF22121FCC9043A0E04408F09043B0E04408F0121F9F229002FBE07009121CAF9087
:4020000002FB7401F0121D3B2290034BE0FA8E838F827400758101738B938A838982E0FFA3E0FE759300228B938A838982EDF0A3ECF0759300229043A2E04401F09043B26F
:40204000E04401F0228B938A838982EDF075930022121FCCE490035BF0121F9F229046FA7480F012207122121FF6121E07121E91229046F6E04401F02212175980FE2280DC
:40208000FE22007F7B007B00000030D8C800D800000016005205082309121098118814200064047E3F8A698C3A8E0F010101E204010301E6020105028702E008010604B82E
:4020C00002BE01D804DF010107021B02A702010A088501890195019901B101BF01D904DF01010B4F00400106038808010A040B111028130219641A041B0A202021082230E9
:40210000274028282A022B022E033080310232103304340836203708382239803A083C283E084028410843824A024B0152045B4068286A016B027090712072108D408E104D
:402140008F809042910493109621980199029B0C9D649E049F80A004A102A202A490A520A702AB01B021B405B602B744C00FC20FC40ECA0FCC6FCE6FD00FD208D608E0083A
:40218000E801010C4C0001021608E70A180E3F101E120114C6163918481C88208824DD262228232ADC2CC8301F320834E03A22541A560458045B045F018008824284F88698
:4021C000018704880F89028AF08D068EC792849308943996C698109C20A020A101A43FA6C0A906AA08AC30B031B106B308B501B6FFB702B982BE40BF11C062C101C5E0C6DA
:40220000CBC80EC9FFCAFFCBFFCEF0CF44D00CD804D904DA04DF01E6C0EA40EB02010D46002901100210030B04010709080209260A310D220E11108012481388151016502C
:402240001780180219021C081D021E201F20200421012208230128402920320238C839A43A083B10414042084921502053405E205F026540674887409088912093089502C2
:40228000978098409B4A9C029D259E049F04A420A504A72AB001B301C0DFC2FFC4FFCA05CC01CE0ED00CD204D6A0D8B0010E4E040906D007230B080C0C0D210E710F0E1048
:4022C00014141016AC170C18DC1A221B201E0321102410264029212A202B062D0C2F2330E03310350F361F37203A023B203F444004464049FF4A074BFF4C404D204EF04F8A
:4023000005500854015604580459045A045B045F01604061A862406320871F89198B0691019304950997029A01A506A719A919AA01AB06AF0FB201B310B507B708B908BB65
:4023400020BE04D804D904DB04DF01010F3C004404040504084809200A010B800E0810081210160418C01A011F042130224425102604270A280829212A802F2A303031047A
:402380003402370438883A103D284101500C5210581059015A886380680169046A206B406F0171407304821083408550868089048B04C005C24FC446CA7DCCC6CE6ED00101
:4023C000D60FD801E40C014005322035808180CC30E2200141038620A620E6400144058301870188C0E004E40401450F0C0857025B046401660193029889A040A301B009C2
:40240000C204D607D801E801EC0401460D8702900893029888A040A301A702AB04B40CB601E808EC02EE08014705900893029888A040A301014C0E5004544057015808607D
:40244000806702900893029888A040A301D406D607D80201500300010C010E01015101000F005100001000513000400051C000100051F000100100000A00010A800580018E
:40248000140008000140000A00014C000200015000002000008080207D050000040800130C0400030204200A031410130C0C7300088000400800004043003C404F003000DE
:4024C0000000734000303F0FC0800008002028000040003402010005C0000E12FFFFFF62A0F0410C00000000000210040404040000000100000000000040020010301000CE
:4025000010101200000000000000000000000000000000010A002493008061000026006930091E031E010100000000000000000000000000000000000000000000000000BD
:40254000000000000000000000000000000000000000000000000000000000000000000000000000000000000000000000000000000000000000000000000000000000005B
:40258000000000000000000000000000000000000000000000000000000000000000000000000000000000000000000000000000000000000000000000000000000000001B
:4025C00000000000000000000000000000000000000000000000000000000000000000000000000000000000000000000000000000000000000000000000000000000000DB
:40260000023ECB008F828E83E0540100000070F82278FFE4F6D8FD023EFAEC4D6011E8497017ED33EC3304600DE4FCFFFEFD22E933E8330470F80228E31228AE58046009E3
:40264000E4CC248150062850090228ED2840030228EAC0E0EB4A7044B98006D0E0FB0228D9EF4E701CBD8008EBFFEAFEE9FD80EBE98DF0A4FEE5F0022703E9CDF9EAFEEB66
:40268000FFEF89F0A4FCE5F0CE89F0A42EFFE435F0CD89F0A42DFEE435F08067EF4E7005BD80D780C3EF8BF0A4ACF0EE8BF0A42CFCE435F0F8EF8AF0A42CE5F038FCE433D6
:4026C000CB8DF0A42CFCE5F03BF8EE8AF0A42CFCE5F038F8E433CF89F0A42CFCE5F038CF3400CE89F0A42FFFE5F03EFEE433C98DF0A42EFEE5F039CD8AF0A42FFFE5F03EB9
:40270000FEE43DFD33D0E0FB50070BBB000F0228EDEC2CFCEF33FFEE33FEED33FD0228C50228EDEC5D046005E8590470030228E31228AE580460F6EC4860F2EC7004FDFEF3
:40274000FF22C860DB2481C85009C398600250060228EA9850CAF582E9294B4A7005AB820228D975F0007C1A7880C3EF9BEE9AED99400DC3EF9BFFEE9AFEED99FDE842F0C9
:40278000DC23ACF0D0E0FFD0E0FED0E0FDAB8220E7101BEB60BAEC2CFCEF33FFEE33FEED33FD0228C5E803F830E705C0F075F000EF2FFFEE33FEED33FD40B830E7C280AA48
:4027C00074F8CC6480CCC86480C8F58204604FC3EB9FF5F0EA9E42F0E99D42F0E89C45F0603C501DE5825FFFE582D313CB5BCBF42B5582FB50280ABA002409B9002008802F
:402800001DE5825BFBE582D313CF5FCFF4C3132F5582FF50090EBE00050DBD00010CC3EB9FF5F0EA9E42F0E99D42F0E89C45F06007CC4820E701B3EC2275F020800E75F08B
:4028400010800575F0087D007E007F003392D530D503122D55EC334010EF33FFEE33FEED33FDEC33FCD5F0ED22E5F0247EA2D513CC92E7CDCEFF22EDD2E7CD33EC3392D5BD
:4028800024814006E4FFFEFDFC22FCE4CFCECDCC24E0501174FF80EDC3CC13CCCD13CDCE13CECF13CF0470F030D5DE022D55E9D2E7C933E833F892D5EDD2E7CD33EC33FCB7
:4028C0005002B2D522EC30E7100FBF000C0EBE00080DBD00040BEB6014A2D5EB13FCED92E7FD2274FFFCFDFEFF22E480F8A2D574FF13FC7D80E480EFF920E73624F9500318
:402900007907E4F42402FBE582158270021583DBF6E024FB501BE96014E4F0E582158270021583E004F0B40A08E4F0D9EE7401F00A22C2D522ED33EC3392D5FA602AB4FF46
:4029400033EDC2E77BFF60067A29795AE4227A29796320D5047A29795E224E614E002B494E46002D494E4600E47A08F0A3DAFC7B00740722C083C082ECC0E0EDC0E0EEC0DC
:40298000E0EFC0E0EA75F010A4CAABF075F04DA42BFBE435F0FCEA2410FAEB34C5FBEC34D9FCEDC2E7FF75F056A4F42411C5F0F434C58FF0A42AE5F03BE43CF020E714127A
:4029C0002B62D0E0FFD0E0FED0E0FDD0E0FC1227238014F404122B62D0E0FFD0E0FED0E0FDD0E0FC12261AD082D083E0FAEDD2E7CD33EC332482FBE4C3CF33CFCE33CECD0C
:402A000033CD33DBF37B0775F00A846004F0A31B0AE5F0F0A38FF0740AA4FFACF08EF0740AA42CFEACF050010C8DF0740AA42CFDE435F0F0A3DBDE7407220228E3E864800A
:402A4000F8E933E83360110460F0ED33EC337009E8FCE9FDEAFEEBFF220460DED3EB9FEA9EE99DE8C2E78CF0C2F795F0400CE8CCF8E9CDF9EACEFAEBCFFB1228AE85D0F0B9
:402A80005804700320D5B3E80470075002B2D50228ED92D5EC0460F7E4CCC0E0C398F8603B94186008400DD0E0FB0228C5E4FBFAC9FC8028E830E406E4C9FBE4CAFCE830B3
:402AC000E305E4C9CACBFCE854076010F8C3E913F9EA13FAEB13FBEC13FCD8F130F52FC3E49CFCEF9BFFEE9AFEED99FDD0E0FBEF4E4D4C701222DB030228EAEC2CFCEF3327
:402B0000FFEE33FEED33FDED30E7EB0228C5EF2BFFEE3AFEED39FDD0E0FB50130BBB00030228EDED13FDEE13FEEF13FFEC13FC0228C53F8000004120000042C80000447A5D
:402B40000000461C400047C35000497424004B1896804CBEBC205A0E1BCA6753C21C749DC5AEFB60065407601C2323122B90EB54386009122B7C122B8B12261AECF8EDF9E8
:402B8000EEFAEFCB22EB122B8B80F1543803241C902B32FE93FC0EEE93FD0EEE930ECE93FF22BB010689828A83E0225002E722BBFE02E32289828A83E49322BB010CE58262
:402BC00029F582E5833AF583E0225006E92582F8E622BBFE06E92582F8E222E58229F582E5833AF583E49322BB010689828A83F0225002F722BBFE01F322C5F0F8A3E028B0
:402C0000F0C5F0F8E582158270021583E038F022EF2BFFEE3AFEED39FDEC38FC22C3EF9BFFEE9AFEED99FDEC98FC22E88FF0A4CC8BF0A42CFCE98EF0A42CFC8AF0EDA42CA2
:402C4000FCEA8EF0A4CDA8F08BF0A42DCC3825F0FDE98FF0A42CCD35F0FCEB8EF0A4FEA9F0EB8FF0A4CFC5F02ECD39FEE43CFCEAA42DCE35F0FDE43CFC2275F0087582008E
:402C8000EF2FFFEE33FECD33CDCC33CCC58233C5829BED9AEC99E58298400CF582EE9BFEED9AFDEC99FC0FD5F0D6E4CEFBE4CDFAE4CCF9A88222B800C1B90059BA002DEC35
:402CC0008BF084CFCECDFCE5F0CBF97818EF2FFFEE33FEED33FDEC33FCEB33FB10D703994004EB99FB0FD8E5E4F9FA227818EF2FFFEE33FEED33FDEC33FCC933C910D705F9
:402D00009BE99A4007EC9BFCE99AF90FD8E0E4C9FAE4CCFB2275F010EF2FFFEE33FEED33FDCC33CCC833C810D7079BEC9AE899400AED9BFDEC9AFCE899F80FD5F0DAE4CDDF
:402D4000FBE4CCFAE4C8F922EF4BFFEE4AFEED49FDEC48FC22C3E49FFFE49EFEE49DFDE49CFC22EB9FF5F0EA9E42F0E99D42F0E89C45F022E8600FECC313FCED13FDEE1343
:402D8000FEEF13FFD8F122E8600FEFC333FFEE33FEED33FDEC33FCD8F122BB010789828A83022DD45005E9F802307DBBFE05E9F802308989828A83023095BB010789828A58
:402DC00083022DEC5005E9F80230A5BBFE05E9F80230B122E0FCA3E0FDA3E0FEA3E0FF22E0F8A3E0F9A3E0FAA3E0FB22ECF0A3EDF0A3EEF0A3EFF022A42582F582E5F03545
:402E000083F58322E0FBA3E0FAA3E0F922F8E0FBA3A3E0F925F0F0E582158270021583E0FA38F022EBF0A3EAF0A3E9F022E493FB740193FA740293F922D083D082F8E493BA
:402E40007012740193700DA3A393F8740193F5828883E4737402936860EFA3A3A380DFE5162582F582E5153583F583B515048582162210AF06858216F51522858216F5150C
:402E8000D2AF22EC8EF0A4CCC5F0CCCDF8EFA4CEC5F02DFDE43CFCE8A42EC8C5F03DFDE43CFCEFA4FFE5F028FEE43DFDE43CFC22E709F608DFFA8046E709F208DFFA803E6F
:402EC00088828C83E709F0A3DFFA8032E309F608DFFA806EE309F208DFFA806688828C83E309F0A3DFFA805A89828A83E0A3F608DFFA804E89828A83E0A3F208DFFA80429A
:402F000080D280FA80C680D4805580F28029801080A680EA809A80A880DA80E280CA802988848C8589828A83E493A30586F0A30586DFF5DEF3800B89828A83E493A3F608D2
:402F4000DFF9ECFAA9F0EDFB2288848C8589828A83E0A30586F0A30586DFF6DEF480E389828A83E493A3F208DFF980D688F0EF60010E4E60CD88F0ED2402B4040050C3F58F
:402F800082EB2402B4040050B92323458223902F0073E709F60870FA8046E709F20870FA803E88828C83E709F0A370FA8074E309F60870FA806CE309F20870FA80648882B3
:402FC0008C83E309F0A370FA805889828A83E0A3F60870FA804C89828A83E0A3F20870FA804080D280FA80C680D4805180F28027801080A680EA809A80A880DA80E280CABB
:40300000802788848C8589828A83E493A30586F0A3058670F5800B89828A83E493A3F60870F9ECFAA9F0EDFB2288848C8589828A83E0A30586F0A3058670F680E589828A1E
:4030400083E493A3F20870F980D888F0ED2402B4040050CEF582EB2402B4040050C42323458223902FE273A3F8E0C5F025F0F0E582158270021583E0C838F0E822E6FC08FE
:40308000E6FD08E6FE08E6FF22E2FC08E2FD08E2FE08E2FF22E493FC740193FD740293FE740393FF22ECF608EDF608EEF608EFF622ECF208EDF208EEF208EFF222C0E0C0F0
:4030C000F0C083C082C085C084C086758600C093759300C0D075D000C000C001C002C003C004C005C006C007124A49EF20E5030232A81248B2900223EFF090019AE014709E
:40310000030231921470030231C0147003023225240370D4900221E0900220F0900222E0900221F0900223E0900222F0900221E0FFB43A15A3E0B43A10900220E4F0A3F02E
:40314000A3F090019A04F0809F900220E0FEB43F0CEFB40D08900222E0640A608BEEB43C0B9002B1E4F0A304F00230E8900220E0643E60030230E8A3E0640D60030230E877
:40318000A3E0640A60030230E89002B1F0A3F00230E8900001E0FF900223E0FE6F6003EE7007900224E4F080069002247401F090021B74FFF0A3F090019A7402F00230E80E
:4031C000900223E0FF7E0090021BEEF0A3EFF0D3940174809480501090021B74FFF0A3F090019AE4F00230E8D390021CE0948090021BE064809480400D74FFF0A3F0900156
:403200009AE4F00230E890021DE4F0A3F0900224E0700990019A7403F00230E890019A7404F00230E8900223E0FF90021DE0FCA3E0249BF58274013CF583EFF090021DE415
:4032400075F001122BFA90021BE0FEA3E0FFC390021EE09FEE6480F890021DE064809850030230E8900224E0702490021BE0A3E078DE7C007D017B017A01799B122F6C909E
:40328000021BE0FFA3E090015ECFF0A3EFF090021DE4F0A3F090021B74FFF0A3F090019AE4F00230E80230E8D007D006D005D004D003D002D001D000D0D0D093D086D0842A
:4032C000D085D082D083D0F0D0E0327B007A4679E81249FDEF4401FD7B007A4679E8124A09E4F514E514C39407502CE51475F005A424D1F582E4344AAF82F5088F09F58339
:40330000122E2D8F82850883740393FC740493FD124822051480CDE4F514E514C394015061E51475F008A424F4F582E4344AAF82F50A8F0BF583122E2D8B0C8A0D890E8F22
:4033400082850A83A3A3A3122E2D8B0F8A1089118F82850A83740693F512740793F513C003C002C001AB0CAA0DA90E900272122E24D001D002D003AF13AE121244AA051464
:4033800080987B087A0479C0124689905883740AF07B017A5079031249FDEF4402FD7B017A507903124A097B017A5079131249FDEF4402FD7B017A507913124A099043A088
:4033C000E04440F09043C2E04410F07B087A0C7960C003C002C0017B007A517902900272122E24D001D002D0037F087E001244AA7B087A0C7968C003C002C0017B007A517E
:4034000079C2900272122E24D001D002D0037F087E001244AA7B087A0C7970C003C002C0017B007A5179F2900272122E24D001D002D0037F087E001244AA7B087A0C7978A8
:40344000C003C002C0017B007A517910900272122E24D001D002D0037F0A7E001244AA7B087A0C7984C003C002C0017B007A517922900272122E24D001D002D0037F087E42
:40348000001244AA9044F47401F0904322E04408F09046ECE0C394055006904689743AF090480074F1F01238281246B67B007A4379A0C00179B0900272122E24D0017F0ECF
:4034C0007E001244AA9043B0E054FDF022C0E0C0F0C083C082C085C084C086758600C093759300C0D075D000C000C001C002C003C004C005C006C007900275E4F0A3F0909F
:403500000275E0FEA3E0FFC39401EE64809480501A124A9E900275E0FEA3E0FF124884900275E475F001122BFA80D49002B1E07004A3E06401600302366C900289F0A3F0CD
:40354000C390028AE09401900289E06480948040030236657F3A1249D690028BE4F0A3F090028BE0FEA3E0FFC39406EE648094805064900289E0FCA3E090028375F0061236
:403580002DF8EC75F006A42583F583E5822FF582E5833EF583E0FF1249D690028BE0FEA3E0FF900289E0FCA3E090028475F006122DF8EC75F006A42583F583E5822FF582B9
:4035C000E5833EF583E0FF1249D690028BE475F002122BFA808A90028BE4F0A3F090028BE0FEA3E0FFC39406EE648094805064900289E0FCA3E090027D75F006122DF8ECE5
:4036000075F006A42583F583E5822FF582E5833EF583E0FF1249D690028BE0FEA3E0FF900289E0FCA3E090027E75F006122DF8EC75F006A42583F583E5822FF582E5833EA9
:40364000F583E0FF1249D690028BE475F002122BFA808A7F3A1249D6900289E475F001122BFA0235409002B1E4F0A3F0D007D006D005D004D003D002D001D000D0D0D093D3
:40368000D086D084D085D082D083D0F0D0E032900269ECF0A3EDF0A3EAF0A3EBF090026EE0FED394005003023827EED394014003023827EF24FC601524FD603C1460622444
:4036C000FE700302374A2409600302377390026DE0D3940F40117B0C7A0179181249FD90026FEFF00237787B0C7A01791C1249FD90026FEFF002377890026DE0D3940F4063
:40370000107B0C7A0179191249FD90026FEFF080677B0C7A01791D1249FD90026FEFF0805790026DE0D3940F40107B0C7A01791A1249FD90026FEFF0803E7B0C7A01791E56
:403740001249FD90026FEFF0802E90026DE0D3940F40107B0C7A01791B1249FD90026FEFF080157B0C7A01791F1249FD90026FEFF08005E490026FF090026FE0FF3395E0A7
:40378000FEFDFCE47B20FAF9F8122C2BA804A905AA06AB07900269E0FEA3E0FFE4FCFD122C10AB07AA06A905A804A3E0FEA3E0FFE4FCFD122C2BE4FB7A80F9F8122CB6AD8D
:4037C00007AC0690026DE0C3940E502FE0FBC3740E9BFFEDA807088005CEC313CE13D8F9FDAC06EB04FF90026EE075F003A42494F582E43402F583EFF0801490026EE07502
:40380000F003A42494F582E43402F583740FF0AF0590026EE075F003A42492F582E43402F583ECF0A3EFF0227B007A4079807D0C7C0012498F9040827418F07B007A407945
:4038400084E4FDFC12498F9040867450F07B007A4079887D177C0012498F90408A7418F07B007A40798C7D067C0012498F90408E741BF07B087A0C798CC003C002C0017B1E
:40388000007A417900900272122E24D001D002D0037F047E001244AA9043007406F09040007408F09042007452F07B0C7A01790F1249FD9046A1EFF07B007A4279227D105D
:4038C0007C0712498F7B007A4279207D517C1212498FE490026CF07F19FEFDFC900268122DEC900268122DD4D3EF9400EE9400403B90026CE0FF64036032904225E054015D
:40390000FEEF25E04E540390026CF0E47FE07E01FDFC124500900268122DD474FFFBFAF9F8122C10900268122DEC80B6900268122DD4EF4E70057F03124AB77B007A4079DF
:40394000047D007C0112498F9040047407F0904006E4F09040087448F0904004E4F0904009F09040017402F090400B7404F09043A2E0440FF09043A1E04401F09043A0E093
:403980004480F022900268EEF0A3EFF0A3EDF0124A5990026CEFF0124A3590026DEEF0A3EFF0900268E0FCA3E0FD6F7002EC6E7003023AB49043A2E0540290026BF0A3E0C6
:4039C000703BA3E0FEA3E0FF4E6004ED4C702EEF4E70117B027A407984124991904086E054BFF022904086E04440F07B027A407984900268E0FCA3E0FD1249912290026B18
:403A0000E06054904001E4F09040107402F0904014E4F0904008E0547FF0904086E05408600A900268E07002A3E0702B7B027A40790290026DE0FCA3E0FD124991904001A4
:403A40007407F0904001E0540170F89043A2E054FDF0904001E4F09043A2E05402602F7B027A407902900268E0FCA3E0FD12499190026AE060047F0280027F00EF4401907E
:403A80004001F0904001E05401602980F6227B027A407984900268E0FCA3E0FD1249919043A2C083C082E0FF90026BE0FEEF4ED082D083F022900268EEF0A3EFF0A3EDF0B6
:403AC000124A6190026CEFF0124A3F90026DEEF0A3EFF0900268E0FCA3E0FD6F7002EC6E7003023BE39043A1E0540190026BF0A3E0703AA3E0FEA3E0FF4E6004ED4C702DC0
:403B0000EF4E70107B027A41F9124991904102E054BFF022904102E04440F07B027A417900900268E0FCA3E0FD1249912290026BE06053904001E4F090401404F0904010AA
:403B4000E4F0904008E0547FF0904102E05408600A900268E07002A3E0702B7B027A40790290026DE0FCA3E0FD1249919040017407F0904001E0540170F89043A1E054FECA
:403B8000F0904001E4F09043A1E05401602F7B027A407902900268E0FCA3E0FD12499190026AE060047F0280027F00EF4401904001F0904001E05401602980F6227B027A6F
:403BC000417900900268E0FCA3E0FD1249919043A1C083C082E0FF90026BE0FEEF4ED082D083F022E4900279F0A3F0A3EEF0A3EFF07F3C12489B900279EFF07F3B12489B64
:403C000090027AEFF0A3E0FCA3E0FD90028375F006122DF8EC75F006A42583F583EFF0900279E0FF90028475F006ED122DF8EC75F006A42583F583EFF0E4900279F0A3F0EE
:403C40007F3E12489B900279EFF07F3D12489B90027AEFF0A3E0FCA3E0FD90028575F006122DF8EC75F006A42583F583EFF0900279E0FF90028675F006ED122DF8EC75F078
:403C800006A42583F583EFF0E4900279F0A3F07F4012489B900279EFF07F3F12489B90027AEFF0A3E0FCA3E0FD90028775F006122DF8EC75F006A42583F583EFF0900279EE
:403CC000E0FF90028875F006ED122DF8EC75F006A42583F583EFF0E4900279F0A3F022E4900279F0A3F0A3EEF0A3EFF07F4412489B900279EFF07F4312489B90027AEFF0F5
:403D0000A3E0FCA3E0FD90027D75F006122DF8EC75F006A42583F583EFF0900279E0FF90027E75F006ED122DF8EC75F006A42583F583EFF0E4900279F0A3F07F4612489B2A
:403D4000900279EFF07F4512489B90027AEFF0A3E0FCA3E0FD90027F75F006122DF8EC75F006A42583F583EFF0900279E0FF90028075F006ED122DF8EC75F006A42583F5E6
:403D800083EFF0E4900279F0A3F07F4812489B900279EFF07F4712489B90027AEFF0A3E0FCA3E0FD90028175F006122DF8EC75F006A42583F583EFF0900279E0FF90028237
:403DC00075F006ED122DF8EC75F006A42583F583EFF0E4900279F0A3F0227D107F6B12459DE47F1EFEFDFC1242237D207F6A12459DE47F1EFEFDFC1242237D057F1A124571
:403E00009DE47F1EFEFDFC1242237D187F1B12459DE47F1EFEFDFC124223E4FD7F1C12459DE47F1EFEFDFC1242237D057F1D12459DE47F1EFEFDFC1242237D0D7F24124500
:403E40009DE47F1EFEFDFC1242237D0C7F2512459DE47F1EFEFDFC1242237D0A7F2612459DE47F1EFEFDFC1242237D167F6312459DE47F1EFEFDFC1242237D817F27124544
:403E80009DE47F1EFEFDFC1242237D8C7F2512459DE47F1EFEFDFC1242237D037F2612459DE47F1EFEFDFC1242237D8D7F2712459DE47F1EFEFDFC124223E4FD7F6B124529
:403EC0009DE47F32FEFDFC1242232275930078007583467582E8E04401F00090480074C0F075811690000078007920E4F0A3D8FCD9FAEA9002A7F002261175151F7516FD0A
:403F00001245CD1232CB023F44023F89E493A3F8E493A34003F68001F208DFF48029E493A3F85407240CC8C333C4540F4420C8834004F456800146F6DFE4800B01020408CA
:403F400010204080904388E47E019360BCA3FF543F30E509541FFEE493A360010ECF54C025E060A840B8E493A3FAE493A3F8E493A3C8C582C8CAC583CAF0A3C8C582C8CA88
:403F8000C583CADFE9DEE780BE124AB0E47F64FEFDFC1242237F01124AAA1247A012491912472712493E1249507E307FBD1247461248F31247F01246E212496212492C127D
:403FC0004707E47F0AFEFDFC124223124809124A51E49002AEF0A3F09002AEE0FEA3E0FFC39401EE648094805024124A9EE47F0AFEFDFC124223123DDAE47F0AFEFDFC121B
:4040000042239002AEE475F001122BFA80CAE4FF124AA4D2AF9044F474FDF0124906124A69E49002B1F0A3F07F1EFEFDFC124223124A49EF30E7F912493E80F42290028DB6
:404040007401F0E4900298F07F101249E37F101249F07D077F1D1247D79058967404F0A3E4F090589EF0905B07E04418F0905893E4F0905B88F0A3F0905880740AF0A3E453
:40408000F0905883F09058887412F0A304F090588DE4F0904E017414F090026D740CF0A37401F07B007A807D6B7C8D7F0212368F90028DE075F003A42494F582E43402F51A
:4040C00083E0904E0EF090028DE075F003A42492F582E43402F583E0FCA3E0FD7B027A4E790C12499190028DE0FF1240EE22E4900293F0EF6401600302419A904E0074382E
:40410000F0904E027406F0A37408F0A3E4F0A3F0A3741FF0904E08E4F0A3F0A3F0904E1404F09058847414F0A37405F0A37416F0A3E4F090588A7444F0A37448F0A374013B
:40414000F090588EF0A37411F0A37419F0A37497F07F5212446D9058947458F0A3E4F090589A7405F0A37402F0A3E4F0A3F0FF12483BE47F337E03FDFC900299122DEC7D5B
:40418000017F257E001239847D017F957E00123AB57C4A7DBB7F1D124334221248C9900269EFF090028DE0900268F09043AAE04401F0E04410F09043BAE04401F0E0441045
:4041C000F09046F8E04402F0A3E04402F0905891E04403F07F037E0012465C9046F8E054FDF0A3E054FDF0905877E04406F0905882747AF09043A1E04401F09043B1E04449
:4042000001F09043A2E04402F09043B2E04402F09044DB7420F09044C3F0900269E0FF1248542290FFFC122E5F122DEC851583851682122DD4D3EF9400EE9480402E900209
:40424000A8122DD4124500851583851682C083C082122DD4E42FFFEE3480FEED34FFFDEC34FFFCD082D083122DEC80C090029E122DD4851583851682122DE0122C2B124504
:4042800000900004122E5F221248DE90026974FFF0124765EF703B7F0112462DEF6407702C7B017A0279B67D021242DEEFB40215E4900269F0904722E0540270107F01FE32
:4042C00012465C80F0904722E0540260D4124A1580069002697404F0900269E0FF2290026A122E2490026DEDF0E4A3F090026DE0FFA3E0C39F5037904722E054016003D380
:404300008001C340097F017E0012465C80E9904720E0FF90026A122E0490026EE029F9E43AFAEF122BE890026EE004F080BE90026EE0FF22900269ECF0A3EDF0900268EF3E
:40434000F0541F25E0FFE433FEE42FFFEE3444FAA9077B0112498290026BEEF0A3EFF0900268E075F002A42400FFE5F03444FAA9077B01A3E0FEA3E0FFFDAC061249919040
:40438000026BE0FEA3E0FF224102B00041019A004402A302DC6C0044029E0000BB804102A2304402A85DC000004102B80042028B00004102BE00410298004102930041020E
:4043C0008E004102940041028D014302B30000004102BF004102C0FF001248DE124765EF703B1247BC900269EFF06407702A904722E0540270087F01FE12465C80F09047E7
:4044000022E054026009E0FF1313543FFF80027FFFEF7004900269F0124A1580069002697404F0900269E0FF22C2D5E830E70FB2D5E4C39BFBE49AFAE499F9E498F8EC3099
:40444000E717B2D512445F122CB6E4C39BFBE49AFAE499F9E498F88003122CB630D50DE4C39FFFE49EFEE49DFDE49CFC22900268EFF01248C9900269EFF09046F8E044033A
:40448000F0A3E04403F0900268E0905892F07F037E0012465C9046F8E054FCF0A3E054FCF0900269E0FF12485422758600EF4E6027EF60010E759300900272E0F595A3E0E9
:4044C000F585A3E0F5848B938A838982E0A30586F0A31586DFF6DEF4E4F593F59522E4900269F0900269E0FFC39402500B12453B900269E004F080EB9002C074FFF02222F3
:40450000EC4D4E700D78FCEF24E950032840FD2200007BF178DA0000EF28FF78FFEE38FEED38FDEC38FC50E7EF2BFFEE38FEED38FDEC38FC40F22205020304EFC3940250CC
:404540002AEF25E024CBF582E4344AF583E493FC740193F5828C83C083C082E0FEEF904ACF93F4FFEE5FD082D083F0221248C99043A0E04408F09043B0E04408F09047012E
:4045800074C8F09043ACE04410F09043BCE04410F0904700E0542060F812485422900268EFF0A3EDF012496212492C124707900268E0FF1249C9124971EF30E1F99002696C
:4045C000E0FF1249C9124971EF30E1F922E4900268F0900268E0FFD3941F5020EF75F002A42400FFE5F03444FAA9077B017C4A7DB4124991900268E004F080D622EFC39435
:40460000025029EF25E024CBF582E4344AF583E493FC740193F5828C83C083C082E0FEEF904ACF93FFEE4FD082D083F0227E07904722E05402601F90472074B6F074E1F0C0
:40464000740EF0904722E054027007904720EFF080067E0980027E04AF062222EEFA9002A2E0F88FF0A4FFAEF0E88AF0A42EFEE5F03400FDEF24C9FF78FFEE38FEED38FDBE
:40468000E438FC500302450022ACEAADA08B938A838982E0F96017A3E0F5EAA3E0F5A0A3E060F4FAA3E0F8A3E0F2DAF8D9E98DA08CEAE4F593227B0C7A0179CF1249FDEF2C
:4046C000540790586EF0EFC4540FA3F0905A8C7401F0905B0004F0905B58F09058767444F0221248C9906492E04420F0906596E04410F0906495E04410F012485412499E7B
:404700001244FF12465B22906465E030E507906452E0FF80F21248C9906492E04401F0E054FEF0124854229064867469F09065877420F09065277406F09065377447F0907F
:4047400065847401F022900268EEF0A3EFF0124A7E900268E0FEA3E0FF1249BB7F07124A2B124A772290026A7404F01248C99002BFE0700704F0E490026AF01248549002F0
:404780006AE0FF221248C9906496E04420F0906597E04410F0906594E04410F0124854221248C9906496E054DFF0906597E054EFF0906594E054EFF0124854227F07904768
:4047C00022E05402600E90472074B6F074E0F0740DF080027F0422AC07ED540775F020A4FFEC541F2480F582E43444F583EFF022906482740FF0124707124A8C124A9290E5
:404800006586E4F0906485F02290028EE0700F900294E0700312403D90028E7401F012419B22EC4D6011ED60010C8B938A838982E4F0A3DDFCDCFA75930022900268EFF0AF
:404840001244DE900268E0FF1245FD900268E09002C0F022EF54016004D2AF8002C2AFEF5402FF9044F4E054FD4FF0221243D9900268EFF07008124288900268EFF0900219
:4048800068E0FF22900277EEF0A3EFF0123BE4900277E0FEA3E0FF123CDF22EF4480FF1249C9E4FF1249C9124971EF30E0F9124A9822E4FF906567E0FE30E50C906444E030
:4048C000FFEE541E6002E4FF229044F4E0F84402F0E85402FF10AF012274014FFF221248C99043A0E04408F09043B0E04408F0124854229002B8E070091247F09002B8744D
:4049000001F01246E222124A707E347FCD1249AD7F07124A21124A69229002BEE070091247279002BE7401F0124784221248C9906492E04401F0E054FEF012485422124887
:40494000C9906494E04401F0E054FEF0124854221248C9906594E04401F0E054FEF012485422906465E030E507906452E0FF80F222906465E0FF906566E04FFF54EFFF22F9
:404980008B938A838982E0FFA3E0FE759300228B938A838982EDF0A3ECF0759300229043A2E04404F09043B2E04404F0227B027A447902AD07AC06124991227B027A447951
:4049C00000AD07AC0612499122906566E030E2F9906442EFF022906564E020E2F9906544EFF022904086E0FEEF54F8FFEE4FF022904102E0FEEF54F8FFEE4FF0228B938AB9
:404A0000838982E0759300FF228B938A838982EDF0759300221248C9E49002BFF012485422EFC43354E0904481F022EFC43354E0904480F0227B027A407984124982227BDB
:404A4000027A41790012498222906567E0547FFF22904E00E04401F022904086E05407FF22904102E05407FF229044C07402F0229044C87402F0229044C07401F0229044AC
:404A8000C87401F02212486C12456C22906566E0FF22906465E0FF22906452E0FF22906574EFF022906473EFF022906474EFF022124A852280FE3280FE2232323232325126
:404AC0001D5A8C511D4324010202005B0343244000005130004001000002000102800D8001140008000140000A00014C0002000150000020010200080BE000800000000062
:404B00000000000000000000000000000000000000000000000000000000000000000000000000000000000000000000000000000000000000000000000000000000000075
:404B40000000000000000000000000000000000000000000000000000000000000000000000000000000000000000000000000000000000000000000000000000000000035
:404B800000000000000000000000000000000000000000000000000000000000000000000000000000000000000000000000000000000000000000000000000000000000F5
:404BC00000000000000000000000000000000000000000000000000000000000000000000000000000000000000000000000000000000000000000000000000000000000B5
:40FFC0003500003ECB0000002500003F000000000000000000000000000000000000000000000000000000000000000000000000000000000000000000000000000000005F
:0200000480007A
:4000000000000000000000000000000000000000000000000000000000000000000000000000000000000000000000000000000000000000000000000000000000000000C0
:400040000000000000000000000000000000000000000000000000000000000000000000000000000000000000000000000000000000000000000000000000000000000080
:400080000000000000000000000000000000000000000000000000000000000000000000000000000000000000000000000000000000000000000000000000000000000040
:4000C0000000000000000000000000000000000000000000000000000000000000000000000000000000000000000000000000000000000000000000000000000000000000
:4001000000000000000000000000000000000000000000000000000000000000000000000000000000000000000000000000000000000000000000000000000000000000BF
:40014000000000000000000000000000000000000000000000000000000000000000000000000000000000000000000000000000000000000000000000000000000000007F
:40018000000000000000000000000000000000000000000000000000000000000000000000000000000000000000000000000000000000000000000000000000000000003F
:4001C00000000000000000000000000000000000000000000000000000000000000000000000000000000000000000000000000000000000000000000000000000000000FF
:4002000000000000000000000000000000000000000000000000000000000000000000000000000000000000000000000000000000000000000000000000000000000000BE
:40024000000000000000000000000000000000000000000000000000000000000000000000000000000000000000000000000000000000000000000000000000000000007E
:40028000000000000000000000000000000000000000000000000000000000000000000000000000000000000000000000000000000000000000000000000000000000003E
:4002C00000000000000000000000000000000000000000000000000000000000000000000000000000000000000000000000000000000000000000000000000000000000FE
:4003000000000000000000000000000000000000000000000000000000000000000000000000000000000000000000000000000000000000000000000000000000000000BD
:40034000000000000000000000000000000000000000000000000000000000000000000000000000000000000000000000000000000000000000000000000000000000007D
:40038000000000000000000000000000000000000000000000000000000000000000000000000000000000000000000000000000000000000000000000000000000000003D
:4003C00000000000000000000000000000000000000000000000000000000000000000000000000000000000000000000000000000000000000000000000000000000000FD
:4004000000000000000000000000000000000000000000000000000000000000000000000000000000000000000000000000000000000000000000000000000000000000BC
:40044000000000000000000000000000000000000000000000000000000000000000000000000000000000000000000000000000000000000000000000000000000000007C
:40048000000000000000000000000000000000000000000000000000000000000000000000000000000000000000000000000000000000000000000000000000000000003C
:4004C0002100520A004A016608900950108811986005610C78037906006402820F8669006502840F873A01021880DD8222863F88E78A188C8890019216941E960198239A52
:40050000DC9CC69E39A088A448A8C8B0E0B21FB408BA0AD804DB04DF0101033A008001020318060808020A2A0E8010081102130814201540174019121A201D011E801F107A
:400540002508262027022C012E0A2F02310C342837403D903E0544204510460847024C044D404E024F0456A457026008623066106A406D906E056F01760287108E40C04F20
:40058000C21FC4AECAD0CC70CEF0D0E0D230D82001045E02800673084F0A300C081003122014021610184319011A3C1C0C1E7320082404280C2C7D343F350136C03AA03FBD
:4005C00010406241034204440546EC480C49FF4AFF4BFF4C624DA04EF04F41500C580459045A045B045F016640670269106A306B106D106E106F128063819D820C859D8828
:4006000072891D8B808C728D028F0D9022918D931095E2971898019A749C729D119F22A022A19DA250A423A542A658A794A850AA22AD80AF40B260B41FB5F0B70FB820BB15
:40064000B0D440D804D904DB04DC22DD20DF0101054500810318060A078008020A2A0E4910081102120113081510170519201A0A1D081E081F1022202550270429022A0187
:400680002EC22F10312037853D903E0D431A496050405320640165046620680178207A048108820283808801911092259304960A988199179AA69B039C229F18A448A51124
:4006C000A602A708B080B404C0DFC2DFC47FCAD0CCD4CEF0D007D20CD870E81001064B010D0302060309050A040B0A110F140D1612181A1A04240E2509261127062D082FCB
:4007000007300831023207330835043610370139AA3E413F5556025711580459045B045C025F0180F8810E8201830186C7883F890B8AC08B048C208D0A8F0590209642980A
:400740000F990D9AF09B029C089E84A039A10FA2C6A410A830AE08B031B108B304B501B6FFB702B9AABE40BF55D608D804D904DB04DD90DF010107490080010203180504FF
:40078000060409810A280D080E08104811801308170418011B031D041F4120242142240A2504260229012A022C202D403020350139513D114BC058805D20600261C06D2668
:4007C0006E4074487708800581028C048D449080922A93049401988099139A849B069C029D409F18A108A204A320A458A525A70AA904AC10B220C06FC26FC42FCA51CC8478
:40080000CEADD628D808E210E650010902B001E820010A0439803F4059045F01010B032002E080EA20010D01E44001144E00600191030E052006080703080A09CC0A140BED
:40084000130C030E141413160C1A151C131E041F0820402220234C242025912640274628202A402C202E403020314A320F330F3440353036103780382239A03A083B0A3EDE
:40088000514032410446BE47C0482C49FF4AFF4BFF4EF04F44500C5401580459045A045B045F0166C06A406B02850489048C019F02A301A701AD04B201B304B501B702BE69
:4008C00004BF10D804D904DF0101154C00AA0201048007020A260B0810201151181019AA1A201D04202821812201231824042540271029082B402E412F203080354039020F
:400900003B183D244010410142045040521159845B2268206951834884408520872089808D0291049241930894049553971099409D089E109F10A081A110A320A420A540E6
:40094000A740AA80AB28AC04AF80B604C08FC207C40FCAD3CC18CE67D007D60FE240E824EA40EC0201165C01030B030C0D0E0218011A0E2102220F230125012702280A2A45
:40098000052C0F2D022F0130083202330234043501360138AA39283E553F145409580459045B045D205F018026816C82198311860F8839895C8A068B028F809009920494EB
:4009C000019602972098399A069B039C209D109E1FA109A310A570A70CA914AF80B008B207B360B420B51FB610B780B880B908BA08BE10BF44C003C540C9FFCA07CBFFCCB5
:400A000040CD20CEF0CF05D008D41AD604D804D904DA04DB04DF01E040E1A8E240E32001174701020318058008420A2A0C201511160219211A011B081C881D041F80212428
:400A400022802604270829082A102B412C202DC130883120388039023B103C023D103E02410448805008530459115F66608462806702810488C090809104926A9346955111
:400A8000980299529A829B029C409D209F10A110A321A420A560A708AA02C08EC24FC4D0CADFCC0ECEADD002D6F5D81DE220E401011901E421011B03E020E824EC02014033
:400AC0000330103580CC3001410E03405102570A5B046110650185809C109D80C010D4C0D660D8C0E64001420A500456809C109D919F04A180A502A70AB740D46001431172
:400B00008110830C8C068D0294089C109D909E809F04A180A502A708A901AF02E280E6A0EA300144027C08DE0101450B0D0154015802600467408C049C08C204D606D803F6
:400B4000E4020146094410880197409C0AA401B101D001E001EA040147049C12B008B340E80501480F2101518054025720582088109C109D80A002A180AA80C840D4E0D6EC
:400B800020EA8001490E198073407D4087408D409D80AF20B101B420C640DC80DE20E640EE10014C0A59045F0861026608810489029C12D603D803E404014D0788029C02FD
:400BC000AB08AE08B010E004E8040150070005010108050A050B0110051A05015101000F007000000070000001700200000000700C0000000002001D000300140003000CCB
:400C0000007000000A01051A00000000070008400E000040011F0020220000200000004432054000060EFCDB3DFFFFFF2200F00C040000000000022404040404222200017E
:400C40000000C00040011011C0010011400140010000000000000000000000000000000001FEFE007E000000000F0F000F000000000F0F000F000000000000FCF800F00045
:400C80000300000030D8C800D800000095001801000000000000000000000000000000000000000000000000000000000000000000000000000000000000000000000000DB
:400CC00000000000000000000000000000000000000000000000000000000000000000000000000000000000000000000000000000000000000000000000000000000000F4
:400D000000000000000000000000000000000000000000000000000000000000000000000000000000000000000000000000000000000000000000000000000000000000B3
:400D40000000000000000000000000000000000000000000000000000000000000000000000000000000000000000000000000000000000000000000000000000000000073
:400D80000000000000000000000000000000000000000000000000000000000000000000000000000000000000000000000000000000000000000000000000000000000033
:0200000490006A
:040000000800C0072D
:0200000490105A
:04000000BC90ACAF55
:0200000490303A
:02000000A66DEB
:0200000490501A
:0C00000000011E09306903011E2ED6D637
:0200000490402A
:4000000000000000000000000000000000000000000000000000000000000000000000000000000000000000000000000000000000000000000000000000000000000000C0
:00000001FF
