:40000000021415008F828E83E0540100000070F82278FFE4F6D8FD02147A900000EFF0E4F53FF540F541F54275430AC200121F87EF60057F00121FB7122067D2AF9044F4FC
:4000400074FDF0E4F53B754900754A00754B37900000E0FF70067EFF7FFF80008F4C7B017A0079017D2C7C011212FA8F3E900000E060021543E5436004E53E70C9E53E6046
:400080000302059FC3E5389407E53794004008900001E064016005753B04807E900004E0FE900003E0FDEEF53FEDF54074062540F5827400353FF583E0FE74052540F58228
:4000C0007400353FF583E0FDEEF53CEDF53DE5402407FFE4353FFED3EF9538EE95374005753B03803574072540F5827400353FF583E064176005753B04801F7B017A0079B1
:4001000001E5402404FDE4353FFC121C66EF653D7003EE653C6003753B08E4F539F53AE53B600302058E900005E0F536753B04900002E012088801553101823202083403A0
:400140007A3503883703D438020839040F3A05783B0000058B20000302058EE540453F600302058EFF120D84EF70047F0180027F00900005EFF0753900753A01E4F53B0260
:40018000058E20000302058EE5406401453F600302058EE536C39401400302058E900357E0FEA3E0F5828E83120842E4FBFA7901F81207188F24E536B5241E900357E0FE6B
:4001C000A3E0F5828E83120842E4FB7A01F9F81207187522008F238014E536D395244007E4F522F5238006752201752300E523900005F0E522A3F0A374FFF0E4A3F0F539B6
:40020000753A04F53B02058E900002E06434703C20000302058EE5406403453F600302058EE536C39440400FE536D3947F50087541007542108006754101754220AE41AF47
:40024000427D007B017A01792D1208FF20000302058EC3E5409403E53F9400500302058EE54024FDFFE53F34FFFE742D2542F974013541A801FC7D017B017A0079081209F7
:40028000E7E54024FDFFE53F34FFFEEF2542F542EE3541F541E536C394404012E536D3947F500B121DA8753F007540108006753F01754020E54265407004E541653F600369
:4002C00002036F900007E0FE900006E0FDEEF541EDF542E536D3943F506FE5367F00FEEF2542FFE5413E900259F0A3EFF0900357E0FEA3E0F5828E83120842E4FB7A01F9AA
:40030000F812071890025BEEF0A3EFF0900357E0FEA3E0F5828E83120842EFE4EF600A90025BE475F0011205DA90025BE0FEA3E0FFC390025AE09F900259E09E500B753BD5
:400340000AE4F541F54202058E7B017A01792D900263E53FF0A3E540F0AD42AC41AF36120F0BEF60047F0A80027F008F3B8003753B03E4F541F54202058E20000302058EC7
:40038000E4F541F54202059F20000302058EE5422540FFE541353FFED3EF942CEE9401502DE4F53BAE3FAF40742D2542F974013541A801FC7D017B017A0079051209E7E58F
:4003C000402542F542E53F3541F54102058E753B0302058EE540453F600302058E78257C00FD7BFF7A25791FFE7F081209E7D200753900753A08AE39AF3A78057C007D0105
:400400007B007A0079251209E7E4F53B02058E20000302058EE5406403453F600302058E900007E0FE900006E0FDEEF52FEDF530E536C394404038E536D3947F5031AE2F29
:40044000AF307C007D101208D28F348E338D328C318F4B8E4A8D498C48E4754F10F54EF54DF54CFF7E80FDFC12192C8F358050AE2FAF307C017D001208D2C004C005C006FC
:40048000C007AF36E4FCFDFEFBFA7901F812068DD003D002D001D0001206728F348E338D328C318F4B8E4A8D498C48E4F54F754E01F54DF54CFFFE7D10FC12192C8F35E588
:4004C00036D3943F5072AF367E007C207D001208D2E42FFFE43EFEED3408FDE43CFCC004A905AA06AB07AE2FAF307C007D201208D2D0001206728F348E338D328C31E4F5BA
:400500002DF52EC3E52E9420E52D9400502AE4E52E2534FFE52D3533FEE43532FDE43531A907AA06AB05121CF3EF2535F535052EE52E7002052D80CBE536702AAE2FAF301E
:40054000FCFD7BFFFAF9F8C31207C57019FD7F05120A3DC3E5359FF535E4FD7F06120A3DC3E5359FF535E535F404900005F0E4F53BF539753A018016E4FF120D84EF700604
:400580009046FA7480F01220718003753B057B017A007901853948853A49AF3B1215ED900000E0700302004330000302004322BB010689828A83E0225002E722BBFE02E399
:4005C0002289828A83E49322BB010689828A83F0225002F722BBFE01F322C5F0F8A3E028F0C5F0F8E582158270021583E038F022BB010A89828A83E0F5F0A3E022500687B6
:40060000F009E71922BBFE07E3F5F009E3192289828A83E493F5F074019322BB010789828A830205DA500B09C5F027F7C5F01937F722BBFE0D09F8E325F0F3C5F019E338A6
:40064000F322F889828A8374019325F0C5F0F8E4933822BB010A89828A83F0E5F0A3F0225006F709A7F01922BBFE06F3E5F009F31922EF2BFFEE3AFEED39FDEC38FC22C315
:40068000EF9BFFEE9AFEED99FDEC98FC22E88FF0A4CC8BF0A42CFCE98EF0A42CFC8AF0EDA42CFCEA8EF0A4CDA8F08BF0A42DCC3825F0FDE98FF0A42CCD35F0FCEB8EF0A47C
:4006C000FEA9F0EB8FF0A4CFC5F02ECD39FEE43CFCEAA42DCE35F0FDE43CFC2275F008758200EF2FFFEE33FECD33CDCC33CCC58233C5829BED9AEC99E58298400CF582EE4A
:400700009BFEED9AFDEC99FC0FD5F0D6E4CEFBE4CDFAE4CCF9A88222B800C1B90059BA002DEC8BF084CFCECDFCE5F0CBF97818EF2FFFEE33FEED33FDEC33FCEB33FB10D7C4
:4007400003994004EB99FB0FD8E5E4F9FA227818EF2FFFEE33FEED33FDEC33FCC933C910D7059BE99A4007EC9BFCE99AF90FD8E0E4C9FAE4CCFB2275F010EF2FFFEE33FE50
:40078000ED33FDCC33CCC833C810D7079BEC9AE899400AED9BFDEC9AFCE899F80FD5F0DAE4CDFBE4CCFAE4C8F922EF4BFFEE4AFEED49FDEC48FC22C3E49FFFE49EFEE49D2F
:4007C000FDE49CFC22EB9FF5F0EA9E42F0E99D42F0E89C45F022E8600FECC313FCED13FDEE13FEEF13FFD8F122E8600FEFC333FFEE33FEED33FDEC33FCD8F122BB010789DC
:40080000828A830208365005E9F8020A0DBBFE05E9F8020A1989828A83020842BB010789828A8302085E5005E9F8020A25BBFE05E9F8020A3122E0FCA3E0FDA3E0FEA3E06A
:40084000FF22E493FC740193FD740293FE740393FF22E0F8A3E0F9A3E0FAA3E0FB22ECF0A3EDF0A3EEF0A3EFF022E0FBA3E0FAA3E0F922EBF0A3EAF0A3E9F022E493FB74E9
:400880000193FA740293F922D083D082F8E4937012740193700DA3A393F8740193F5828883E4737402936860EFA3A3A380DFE5092582F582E5083583F583B50804858209B7
:4008C0002210AF06858209F50822858209F508D2AF22EC8EF0A4CCC5F0CCCDF8EFA4CEC5F02DFDE43CFCE8A42EC8C5F03DFDE43CFCEFA4FFE5F028FEE43DFDE43CFC22EF51
:400900004E6012EF60010EEDBB010B89828A83F0A3DFFCDEFA2289F05007F709DFFCA9F022BBFEFCF309DFFCA9F022E709F608DFFA8046E709F208DFFA803E88828C83E7AA
:4009400009F0A3DFFA8032E309F608DFFA806EE309F208DFFA806688828C83E309F0A3DFFA805A89828A83E0A3F608DFFA804E89828A83E0A3F208DFFA804280D280FA80F3
:40098000C680D4805580F28029801080A680EA809A80A880DA80E280CA802988848C8589828A83E493A30586F0A30586DFF5DEF3800B89828A83E493A3F608DFF9ECFAA95D
:4009C000F0EDFB2288848C8589828A83E0A30586F0A30586DFF6DEF480E389828A83E493A3F208DFF980D688F0EF60010E4E60CD88F0ED2402B4040050C3F582EB2402B455
:400A0000040050B9232345822390097B73E6FC08E6FD08E6FE08E6FF22E2FC08E2FD08E2FE08E2FF22ECF608EDF608EEF608EFF622ECF208EDF208EEF208EFF22290025D03
:400A4000EDF0AB079002627402F0E4FFFEFDFCA312085EEB1208880A79010AA6020ACB030AF0040B15050B40060B8F070B6B080BB3090BD70A00000C0190025DE0FF7E005E
:400A80007C017D001208D21207B7EF24C0FFEE34FFFEED3410FDE43CFCA312085E9002627401F0020C0C90025DE0FF7E007C017D001208D2C374C39FFF74FF9EFE74109DBD
:400AC000FDE49CFCA312085E020C0C90025DE0FF7E007C017D001208D2C374C79FFF74FF9EFE74109DFDE49CFCA312085E020C0C90025DE0FF7E007C017D001208D2C37433
:400B0000CB9FFF74FF9EFE74109DFDE49CFCA312085E020C0C90025DE0FF7E007C017D001208D2C374D09FFF74FF9EFE74109DFDE49CFCA312085E9002627401F0020C0C60
:400B400090025DE0FF7E007C017D001208D2C374D19FFF74FF9EFE74109DFDE49CFCA312085E9002627401F0020C0C90025DE0FF7E007C017D001208D2C374D69FFF74FF16
:400B80009EFE74109DFDE49CFCA312085E807D90025DE0FF7E007C017D001208D2C374D29FFF74FF9EFE74109DFDE49CFCA312085E805990025DE0FF7E007C017D00120811
:400BC000D2C374D49FFF74FF9EFE74109DFDE49CFCA312085E803590025DE0FF7E007C017D001208D2C374D89FFF74FF9EFE74109DFDE49CFCA312085E9002627404F08082
:400C00000BE4FFFEFDFC90025E12085E900262E0B4011990025E120836A907AA06AB05121CF3E4FCFDFE90026312085E900262E06402705C90025E120836EF2401FFE43E91
:400C4000FEE43DFDE43CA907AA06AB05121CF3E4FCFDFE90026312085E900263120852C000C001C002C00390025E120836A907AA06AB05121CF3E4FCFDFE78081207E9D0BA
:400C800003D002D001D0001207AA90026312085E900262E064046003020D7D90025E120836EF2403FFE43EFEE43DFDE43CA907AA06AB05121CF3E4FCFDFE90026312085E37
:400CC000900263120852C000C001C002C00390025E120836EF2402FFE43EFEE43DFDE43CA907AA06AB05121CF3E4FCFDFE78081207E9D003D002D001D0001207AA9002634F
:400D000012085E900263120852C000C001C002C00390025E120836EF2401FFE43EFEE43DFDE43CA907AA06AB05121CF3E4FCFDFE78101207E9D003D002D001D0001207AA84
:400D400090026312085E900263120852C000C001C002C00390025E120836A907AA06AB05121CF3E4FCFDFE78181207E9D003D002D001D0001207AA90026312085E90026356
:400D8000120836228F44AD447F03120A3DEF2401FFE43EFEE43DFDE43CFCE4FB7A01F9F812068DC004C005C006C007AD447F04120A3DD003D002D001D0001206728F4C8EA9
:400DC0004B8D4A8C49C201E4F54DAD447F03120A3DEF2401FFE43EFEE43DFDE43CFCE4FB7A01F9F812068D8F488E478D468C45AF4CAE4BAD4AAC49AB48AA47A946A845C337
:400E00001207C55032854882854783E493F54E6005F46002D201E54E254DF54DAF48AE47AD46AC45E47B01FAF9F81206728F488E478D468C4580B8AD447F03120A3DEF2479
:400E400001FFE43EFEE43DFDE43CFCE4FB7A01F9F812068D78031207D68F488E478D468C45E47FC07EFFFDFCAB4CAA4BA94AA849C31207C57007FF7E20FDFC800DAF4CAE21
:400E80004BAD4AAC4978031207D68F4C8E4B8D4A8C49AF4CAE4BAD4AAC49AB48AA47A946A845C31207C55039E42548FFE43547FEE5463408FDE43545A907AA06AB05121CB9
:400EC000F3EF254DF54DAF48AE47AD46AC45E47B01FAF9F81206728F488E478D468C4580B1E54DF404F54DAD447F01120A3DA804A905AA06AB07AF4DE4FCFDFEC31207C5CC
:400F000070032001037F06227F002290025EECF0A3EDF0A312087390025DEFF0E4900265F0EFD3943F500E90025DE0940140069002657401F090025DE0FFD3947F4006903A
:400F400002657401F0EFC39440400CEFD3944140069002657401F0EFD3943F501E90025EE0FEA3E0FFE4FCFDFB7A01F9F8C31207C5502F9002657401F08027D390025FE03C
:400F8000948090025EE0940040069002657401F0900263E07004A3E0641060069002657401F090026012086AE94A4B700590026504F0900265E0600302108A121EFEEF606E
:400FC0000302108490025EE0FCA3E0FDA312086A900263E0FFA3E090026CCFF0A3EFF090025DE0FF1211DE900265EFF06407600302107F904722E0540270087F01FE121EF6
:401000006480F0904722E054026009E0FF1313543FFF80027FFFEF7006900265F0800690026574FFF0900265E0705490025DE0FFA3E0FCA3E0FD900353E0FBA3E090026AD9
:40104000F0121A90900265EFF064077032904722E0540270087F01FE121E6480F0904722E054026009E0FF1313543FFF80027FFFEF7006900265F0800690026574FFF0124B
:40108000205180069002657404F0900265E0FF227B007A4679E8121CF3EF4401FD7B007A4679E8122045E4F52CE52CC3940A502CE52C75F005A42461F582E43424AF82F571
:4010C000218F22F58312087C8F82852183740393FC740493FD121F6E052C80CDE4F52CE52CC394015046E52C75F007A42413F582E43425AF82F5238F24F58312087C8B25E1
:401100008A2689278F82852383740393FE7404938E28F529740593F52A740693F52BAD29AC28FFAE2A121EB8052C80B37E207F92121DD97B017A507903121CF3EF4402FD3B
:401140007B017A5079031220457B017A507913121CF3EF4402FD7B017A5079131220459043A0E04440F09043C2E04410F07C207D827B007A5179127F087E00121EB87C2053
:401180007D8A7B007A5179227F087E00121EB89044F47401F0904322E04408F09046ECE0C394055006904689743AF090480074F1F012150690480074B1F0121F1D7B007A41
:4011C0004379A0C00179B0900005120873D0017F0E7E00121D749043B0E054FDF022900266EFF0A3ECF0A3EDF0A312087390026E7407F0904722E0540270030212EE904756
:401200002074B6F074D5F07402F0904722E0540260030212E6900266E0904720F0E490026FF0A3F090026CE0FEA3E0FF90026FE0FCA3E0FDC39FEC9E501F90026912086A8D
:40124000E92DF9EA3CFA1205AF904720F090026FE475F0011205DA80CB90026CE064017002A3E060030212F4900266E0FFD3943F40030212F47E007C207D001208D2E42F0A
:40128000FFE43EFEED3408FDE43CFCC004A905AA06AB07A3E0FEA3E0FF7C007D201208D2D00012067290027112085EE490026FF0A3F090026FE0FEA3E0FFC39420EE94005A
:4012C0005032E4FCFDA3120852120672A907AA06AB05121CF3904720EFF090026FE475F0011205DA80CC90026E7409F0800690026E7404F090026EE0FF228B448A4589469E
:401300008C478D48755505E4F54DF54EE54C75F00AA4FFC3E54E9FE54D95F0503B121B34EF6022121B347553008F54E47F19FEFDFC1218C7121B34D3EF9554E4955350E366
:40134000E4F5558013E47F01FEFDFC1218C7054EE54E7002054D80B4AB49AA4AA94BE4F5F0120653E4F54FF550121B34EFD394005003021412121B347551008F52AB49AA8D
:401380004AA94BE5518552F012061BAB49AA4AA94B1205F0C39548E5F09547505FE4F54DF54EC3E54E9552E54D95515025121C1CAB44E5462550F9E545354FFAEF1205C8C1
:4013C0000550E5507002054F054EE54E7002054D80D0AB44E55024FFFFE54F34FFFEE5462FF9E5453EFA1205AF64177003021369E47F05FEFDFC1218C7021369AB49AA4ABB
:40140000A94B1205F0C39552FFE5F095518FF0120653AF552275930078007583467582E8E04401F0009046ECE0F99046FAE0FA90034BF0B903225420B40012B8001AEA9014
:401440001FFFF07401901FFEF09046F6F0901FFEE06005901FFFE0FA90480074C0F0758156121EDE90000078007920E4F0A3D8FCD9FAEA90034BF002001175081F7509FD1F
:401480001210900214C1022079E493A3F8E493A34003F68001F208DFF48029E493A3F85407240CC8C333C4540F4420C8834004F456800146F6DFE4800B0102040810204063
:4014C00080901B83E47E019360BCA3FF543F30E509541FFEE493A360010ECF54C025E060A840B8E493A3FAE493A3F8E493A3C8C582C8CAC583CAF0A3C8C582C8CAC583CABE
:40150000DFE9DEE780BE7B007A4079807D337C001220279040827418F09043007402F09040007408F09042007403F07B0C7A017908121CF39046A1EFF07B007A4279227D68
:40154000087C001220277B007A4279207D517C12122027E4900004F07F19FEFDFC90000012085E900000120836D3EF9400EE9400403B900004E0FF64036032904225E05440
:4015800001FEEF25E04E5403900004F0E47FE07E01FDFC121D0090000012083674FFFBFAF9F812067290000012085E80B6900000120836EF4E70057F0312207F7B007A402A
:4015C00079047D007C011220279040047407F0904006E4F09040087448F0904004E4F09040017402F09043A2E04401F0228B458A46894774011205C8AB452547F9E43546AB
:40160000FAEF1205C8E549AB45E5472402F9E43546FAE5491205C8E548FFAB45E5472403F9E43546FAEF1205C8AB45AA46A947E5492404FDE43548FC121C668E4A8F4BEFCF
:40164000AB45E5492404FDE43548FCE5472DF9E5463CFAEF1205C8E54AFFAB45E5492405FDE43548FCE5472DF9E5463CFAEF1205C8AB45E5492406FFE43548FEE5472FF9FF
:40168000E5463EFA74171205C8E5492407FDE43548FC755100755200755348755496AB45AA46A947121BD122C0E0C083C082C085C084C086758600C093759300C0D075D09F
:4016C00000C001C002C003C006C007E4FBA2AF33FAD2AF9044F474FDF090646CE0FFFE541EF960069002FDE049F0EF30E54590644AE0FE9002F9E02478F582E43402F583E5
:40170000EEF07B01EB602C900276E060069002FC7401F09002F9E004F0E0C394404002E4F0900277E0FE9002F9E0B506069002767401F0EF20E5A2AF02EA24FF92AFD007BF
:40174000D006D003D002D001D0D0D093D086D084D085D082D083D0E032752106E4FF120D84EF7002F521E4F54BF54AF549F548900357E0FEA3E0F5828E831208428F4F8E82
:401780004E8D4D8C4CE4FFFE7D10FC12192C900355E0FCA3E0F5828C83E493FEC3EF9EFFF404FFB50612900357E0FEA3E0F5828E83120842EF4E70057F00121FB79046FAFB
:4017C000E054C064406004E52160099046FAE4F0FF12001A12205D22C0E0C083C082C085C084C086758600C093759300C0D075D000C006C007A2AFE433FFD2AF9044F4742E
:40180000FDF09002FAE0FE9002B8E06E602C90646EE020E2259002B8E0C394404002E4F09002B8E024B9F582E43402F583E090644DF09002B8E004F080C8EF24FF92AFD043
:4018400007D006D0D0D093D086D084D085D082D083D0E032A9079002FAE0FF9002B8E0FEEFC39E501AEE24FFFDE434FFFCEF7A00B50508EAB504047D0180027D00800CC346
:40188000EF9EB43F047D0180027D00ED70C8EEB5070D90646EE020E20690644DE9F022EFC394404002E4FF74B92FF582E43402F583E9F00F9002FAEFF090646EE030E10609
:4018C0009044D07402F02290FFFC1208AE12085E850883850982120836D3EF9400EE9480402E90034C120836121D00850883850982C083C082120836E42FFFEE3480FEEDC9
:4019000034FFFDEC34FFFCD082D08312085E80C090034212083685088385098212085212068D121D009000041208AE228F478E468D458C44E4F550D3E54F9400E54E940025
:40194000404BAF4FAE4EAD4DAC4C74FFFBFAF9F81206728F4F8E4E8D4D8C4CE547254BFFE546354AFEE5453549FDE5443548FCEF254FFFEE354EFEED354DFDEC354CA907BD
:40198000AA06AB051205AF2550F55080AAAF5022121FE190025E74FFF0121EFEEF703B7F01121E35EF6407702C7B017A0379537D021219E6EFB40215E490025EF090472228
:4019C000E0540270107F01FE121E6480F0904722E0540260D4122051800690025E7404F090025EE0FF2290025F120873900262EDF0E4A3F0900262E0FFA3E0C39F50379065
:401A00004722E054016003D38001C340097F017E00121E6480E9904720E0FF90025F12086A900263E029F9E43AFAEF1205C8900263E004F080BE900263E0FF2290025EEC49
:401A4000F0A3EDF090025DEFF0541F25E0FFE433FEE42FFFEE3444FAA9077B0112201A900260EEF0A3EFF090025DE075F002A42400FFE5F03444FAA9077B01A3E0FEA3E0EC
:401A8000FFFDAC06122029900260E0FEA3E0FF22900267ECF0A3EDF0AC077D07904722E05402603B90472074B6F074D8F07405F0904722E054027023904720ECF09002670F
:401AC000E0904720F0900267E0A3E0904720F0EBF090026AE0904720F080067D0980027D04AF0522121FE1121EFEEF703B121F3A90025EEFF06407702A904722E0540270A1
:401B0000087F01FE121E6480F0904722E054026009E0FF1313543FFF80027FFFEF700490025EF0122051800690025E7404F090025EE0FF229044C87401F09002F9E0FE905D
:401B40000277E0B5060E900276E060047F40802CE4FF80289002F9E0FE900277E0C39E500BE0FE9002F9E0C39EFF8010900277E0FEC374409EFE9002F9E02EFF9044C07420
:401B800001F022420355251A420357251B430350000000440347016E360044034200005DC04103461844034C2EE000004102FB004102B8004102FA004102FD00410277003B
:401BC0004102F900410276004102FC0041035B00008B4C8A4D894E8C4F8D50E4F555F556121E07C3E5569550E555954F501DAB4CE54E2556F9E54D3555FA1205AFFF121874
:401C0000540556E5567002055580D8AB51AA52A953E54F8550F01206537F00229044C87401F0900277E0FE9002F9E0FD900276E07004EE6D602474782EF582E43402F583EF
:401C4000E0FF0EEEC394404002E4FE900277EEF0900276E06009E4F0800590644AE0FF9044C07401F0228B4C8A4D894EE4F54FF550D3ED9400EC94004025AB4CED24FFFFD4
:401C8000EC34FFFEE54E2FF9E54D3EFA1205AF2550F550E4354FF54FED1D70011C80D2E550F4FFE54FF4FEEF2401FFE43EFE227C167DA8E4FF121A3C7D07E4FF121F55E4B7
:401CC0009002FDF090648A7469F090648C7420F07C177DD87F01121A3C7D077F01121F5590642E7406F090643E7447F090648E7402F0228B938A838982E0759300FF22000A
:401D0000EC4D4E700D78FCEF24E950032840FD2200007BF178DA0000EF28FF78FFEE38FEED38FDEC38FC50E7EF2BFFEE38FEED38FDEC38FC40F22205020304121FCC9002FD
:401D40005DEFF090649AE04420F090649CE04410F09044C07401F090649EE04410F09044D87402F09044C0F012203690025DE0FF121F9F22758600EF4E6027EF60010E75B2
:401D80009300900005E0F595A3E0F585A3E0F5848B938A838982E0A30586F0A31586DFF6DEF4E4F593F59522121FCC9043A0E04408F09043B0E04408F090470174C8F090A8
:401DC00043ACE04410F09043BCE04410F0904700E0542060F8121F9F22ACEAADA08E838F82E493F9601CA3E493F5EAA3E493F5A0A3E49360F1FAA3E493F8A3E493F2DAF6BC
:401E0000D9E48DA08CEA22121FCC90649AE04401F0E054FEF0121F9F9044C87401F0E4900277F09002F9F0900276F09002FCF09044C004F0227E07904722E05402601F9052
:401E4000472074B6F074E1F0740EF0904722E054027007904720EFF080067E0980027E04AF062200EEFA900346E0F88FF0A4FFAEF0E88AF0A42EFEE5F03400FDEF24C9FF5A
:401E800078FFEE38FEED38FDE438FC5003021D0022121FCC90649DE04401F0E054FEF0121F9F9044C87402F0E49002B8F09002FAF09044C07402F022758600EF4E601BEFCA
:401EC00060010E8C838D828B958A858984E493A30586F0A31586DFF5DEF3E4F595229046FAE054C064807015F0FD7F02120A3DEF4E600AE4FD7F02120A3D122009229002CC
:401F0000667404F0121FCC90035BE0700704F0E4900266F0121F9F900266E0FF227B0C7A0179CF121CF3EF540790586EF0EFC4540FA3F09058767444F0227F07904722E0DD
:401F40005402600E90472074B6F074E0F0740DF080027F0422AC07ED540775F020A4FFEC541F2480F582E43444F583EFF022EC4D6011ED60010C8B938A838982E4F0A3DDB0
:401F8000FCDCFA75930022121AE490025DEFF0700812199090025DEFF090025DE0FF22EF54016004D2AF8002C2AFEF5402FF9044F4E054FD4FF02290FFFF1208AEEFF090D7
:401FC00046EA7401F09000011208AE229044F4E0F84402F0E85402FF10AF012274014FFF22121FCC9043A0E04408F09043B0E04408F0121F9F229002FBE07009121CAF9087
:4020000002FB7401F0121D3B2290034BE0FA8E838F827400758101738B938A838982E0FFA3E0FE759300228B938A838982EDF0A3ECF0759300229043A2E04401F09043B26F
:40204000E04401F0228B938A838982EDF075930022121FCCE490035BF0121F9F229046FA7480F012207122121FF6121E07121E91229046F6E04401F02212175980FE2280DC
:40208000FE22007F7B007B00000030D8C800D800000016005205082309121098118814200064047E3F8A698C3A8E0F010101E204010301E6020105028702E008010604B82E
:4020C00002BE01D804DF010107021B02A702010A088501890195019901B101BF01D904DF01010B4F00400106038808010A040B111028130219641A041B0A202021082230E9
:40210000274028282A022B022E033080310232103304340836203708382239803A083C283E084028410843824A024B0152045B4068286A016B027090712072108D408E104D
:402140008F809042910493109621980199029B0C9D649E049F80A004A102A202A490A520A702AB01B021B405B602B744C00FC20FC40ECA0FCC6FCE6FD00FD208D608E0083A
:40218000E801010C4C0001021608E70A180E3F101E120114C6163918481C88208824DD262228232ADC2CC8301F320834E03A22541A560458045B045F018008824284F88698
:4021C000018704880F89028AF08D068EC792849308943996C698109C20A020A101A43FA6C0A906AA08AC30B031B106B308B501B6FFB702B982BE40BF11C062C101C5E0C6DA
:40220000CBC80EC9FFCAFFCBFFCEF0CF44D00CD804D904DA04DF01E6C0EA40EB02010D46002901100210030B04010709080209260A310D220E11108012481388151016502C
:402240001780180219021C081D021E201F20200421012208230128402920320238C839A43A083B10414042084921502053405E205F026540674887409088912093089502C2
:40228000978098409B4A9C029D259E049F04A420A504A72AB001B301C0DFC2FFC4FFCA05CC01CE0ED00CD204D6A0D8B0010E4E040906D007230B080C0C0D210E710F0E1048
:4022C00014141016AC170C18DC1A221B201E0321102410264029212A202B062D0C2F2330E03310350F361F37203A023B203F444004464049FF4A074BFF4C404D204EF04F8A
:4023000005500854015604580459045A045B045F01604061A862406320871F89198B0691019304950997029A01A506A719A919AA01AB06AF0FB201B310B507B708B908BB65
:4023400020BE04D804D904DB04DF01010F3C004404040504084809200A010B800E0810081210160418C01A011F042130224425102604270A280829212A802F2A303031047A
:402380003402370438883A103D284101500C5210581059015A886380680169046A206B406F0171407304821083408550868089048B04C005C24FC446CA7DCCC6CE6ED00101
:4023C000D60FD801E40C014005322035808180CC30E2200141038620A620E6400144058301870188C0E004E40401450F0C0857025B046401660193029889A040A301B009C2
:40240000C204D607D801E801EC0401460D8702900893029888A040A301A702AB04B40CB601E808EC02EE08014705900893029888A040A301014C0E5004544057015808607D
:40244000806702900893029888A040A301D406D607D80201500300010C010E01015101000F005100001000513000400051C000100051F000100100000A00010A800580018E
:40248000140008000140000A00014C000200015000002000008080207D050000040800130C0400030204200A031410130C0C7300088000400800004043003C404F003000DE
:4024C0000000734000303F0FC0800008002028000040003402010005C0000E12FFFFFF62A0F0410C00000000000210040404040000000100000000000040020010301000CE
:4025000010101200000000000000000000000000000000010A002493008061000026006930091E031E010100000000000000000000000000000000000000000000000000BD
:40254000000000000000000000000000000000000000000000000000000000000000000000000000000000000000000000000000000000000000000000000000000000005B
:40258000000000000000000000000000000000000000000000000000000000000000000000000000000000000000000000000000000000000000000000000000000000001B
:4025C00000000000000000000000000000000000000000000000000000000000000000000000000000000000000000000000000000000000000000000000000000000000DB
:40260000025BC8008F828E83E0540100000070F82278FFE4F6D8FD025C5602293BE86480F8E933E83360110460F0ED33EC337009E8FCE9FDEAFEEBFF220460DED3EB9FEA95
:402640009EE99DE8C2E78CF0C2F795F0400CE8CCF8E9CDF9EACEFAEBCFFB12290685D0F05804700320D5B3E80470075002B2D502294592D5EC0460F7E4CCC0E0C398F86083
:402680003B94186008400DD0E0FB02291DE4FBFAC9FC8028E830E406E4C9FBE4CAFCE830E305E4C9CACBFCE854076010F8C3E913F9EA13FAEB13FBEC13FCD8F130F52FC385
:4026C000E49CFCEF9BFFEE9AFEED99FDD0E0FBEF4E4D4C701222DB03022942EC2CFCEF33FFEE33FEED33FDED30E7EB02291DEF2BFFEE3AFEED39FDD0E0FB50130BBB00037B
:40270000022945ED13FDEE13FEEF13FFEC13FC02291DEC4D6011E8497017ED33EC3304600DE4FCFFFEFD22E933E8330470F802293B12290658046009E4CC248150062850A9
:4027400009022945284003022942C0E0EB4A7044B98006D0E0FB022931EF4E701CBD8008EBFFEAFEE9FD80EBE98DF0A4FEE5F00227FBE9CDF9EAFEEBFFEF89F0A4FCE5F0A9
:40278000CE89F0A42EFFE435F0CD89F0A42DFEE435F08067EF4E7005BD80D780C3EF8BF0A4ACF0EE8BF0A42CFCE435F0F8EF8AF0A42CE5F038FCE433CB8DF0A42CFCE5F0C8
:4027C0003BF8EE8AF0A42CFCE5F038F8E433CF89F0A42CFCE5F038CF3400CE89F0A42FFFE5F03EFEE433C98DF0A42EFEE5F039CD8AF0A42FFFE5F03EFEE43DFD33D0E0FBA7
:4028000050070BBB000F022945EC2CFCEF33FFEE33FEED33FD02291D74F8CC6480CCC86480C8F58204604FC3EB9FF5F0EA9E42F0E99D42F0E89C45F0603C501DE5825FFF92
:40284000E582D313CB5BCBF42B5582FB50280ABA002409B9002008801DE5825BFBE582D313CF5FCFF4C3132F5582FF50090EBE00050DBD00010CC3EB9FF5F0EA9E42F0E996
:402880009D42F0E89C45F06007CC4820E701B3EC2275F020800E75F010800575F0087D007E007F003392D530D503122D17EC334010EF33FFEE33FEED33FDEC33FCD5F0EDC7
:4028C00022E5F0247EA2D513CC92E7CDCEFF22EDD2E7CD33EC3392D524814006E4FFFEFDFC22FCE4CFCECDCC24E0501174FF80EDC3CC13CCCD13CDCE13CECF13CF0470F067
:4029000030D5DE022D17E9D2E7C933E833F892D5EDD2E7CD33EC33FC5002B2D522EC30E7100FBF000C0EBE00080DBD00040BEB6014A2D5EB13FCED92E7FD2274FFFCFDFE41
:40294000FF22E480F8A2D574FF13FC7D80E480EFF920E73624F950037907E4F42402FBE582158270021583DBF6E024FB501BE96014E4F0E582158270021583E004F0B40A64
:4029800008E4F0D9EE7401F00A22C2D522ED33EC3392D5FA602AB4FF33EDC2E77BFF60067A2979B2E4227A2979BB20D5047A2979B6224E614E002B494E46002D494E4600FD
:4029C000E47A08F0A3DAFC7B00740722C083C082ECC0E0EDC0E0EEC0E0EFC0E0EA75F010A4CAABF075F04DA42BFBE435F0FCEA2410FAEB34C5FBEC34D9FCEDC2E7FF75F066
:402A000056A4F42411C5F0F434C58FF0A42AE5F03BE43CF020E714122B62D0E0FFD0E0FED0E0FDD0E0FC122A958014F404122B62D0E0FFD0E0FED0E0FDD0E0FC122712D027
:402A400082D083E0FAEDD2E7CD33EC332482FBE4C3CF33CFCE33CECD33CD33DBF37B0775F00A846004F0A31B0AE5F0F0A38FF0740AA4FFACF08EF0740AA42CFEACF0500140
:402A80000C8DF0740AA42CFDE435F0F0A3DBDE740722022945EC5D046005E85904700302293B122906580460F6EC4860F2EC7004FDFEFF22C860DB2481C85009C398600295
:402AC00050060229429850CAF582E9294B4A7005AB8202293175F0007C1A7880C3EF9BEE9AED99400DC3EF9BFFEE9AFEED99FDE842F0DC23ACF0D0E0FFD0E0FED0E0FDABEB
:402B00008220E7101BEB60BAEC2CFCEF33FFEE33FEED33FD02291DE803F830E705C0F075F000EF2FFFEE33FEED33FD40B830E7C280AA3F8000004120000042C80000447AD3
:402B40000000461C400047C35000497424004B1896804CBEBC205A0E1BCA6753C21C749DC5AEFB60065407601C2323122B90EB54386009122B7C122B8B122712ECF8EDF9EF
:402B8000EEFAEFCB22EB122B8B80F1543803241C902B32FE93FC0EEE93FD0EEE930ECE93FF22BB010689828A83E0225002E722BBFE02E32289828A83E49322BB010CE58262
:402BC00029F582E5833AF583E0225006E92582F8E622BBFE06E92582F8E222E58229F582E5833AF583E49322BB010689828A83F0225002F722BBFE01F322E88FF0A4CC8BA6
:402C0000F0A42CFCE98EF0A42CFC8AF0EDA42CFCEA8EF0A4CDA8F08BF0A42DCC3825F0FDE98FF0A42CCD35F0FCEB8EF0A4FEA9F0EB8FF0A4CFC5F02ECD39FEE43CFCEAA467
:402C40002DCE35F0FDE43CFC2275F008758200EF2FFFEE33FECD33CDCC33CCC58233C5829BED9AEC99E58298400CF582EE9BFEED9AFDEC99FC0FD5F0D6E4CEFBE4CDFAE425
:402C8000CCF9A88222B800C1B90059BA002DEC8BF084CFCECDFCE5F0CBF97818EF2FFFEE33FEED33FDEC33FCEB33FB10D703994004EB99FB0FD8E5E4F9FA227818EF2FFFD2
:402CC000EE33FEED33FDEC33FCC933C910D7059BE99A4007EC9BFCE99AF90FD8E0E4C9FAE4CCFB2275F010EF2FFFEE33FEED33FDCC33CCC833C810D7079BEC9AE899400AF7
:402D0000ED9BFDEC9AFCE899F80FD5F0DAE4CDFBE4CCFAE4C8F922C3E49FFFE49EFEE49DFDE49CFC22EB9FF5F0EA9E42F0E99D42F0EC6480C864809845F022EB9FF5F0EAC2
:402D40009E42F0E99D42F0E89C45F022E8600FECC313FCED13FDEE13FEEF13FFD8F122E86010ECA2E713FCED13FDEE13FEEF13FFD8F022E8600FEFC333FFEE33FEED33FDB9
:402D8000EC33FCD8F122BB010789828A8302308A5005E9F802307EBBFE05E9F802309689828A830230A2BB010789828A83022DC05005E9F80230B2BBFE05E9F80230BE22A8
:402DC000ECF0A3EDF0A3EEF0A3EFF022A42582F582E5F03583F58322F8E0FBA3A3E0F925F0F0E582158270021583E0FA38F022EBF0A3EAF0A3E9F022D083D082F8E49370CC
:402E000012740193700DA3A393F8740193F5828883E4737402936860EFA3A3A380DFE51C2582F582E51B3583F583B51B0485821C2210AF0685821CF51B2285821CF51BD2BA
:402E4000AF22EC8EF0A4CCC5F0CCCDF8EFA4CEC5F02DFDE43CFCE8A42EC8C5F03DFDE43CFCEFA4FFE5F028FEE43DFDE43CFC22EF4E6012EF60010EEDBB010B89828A83F0C6
:402E8000A3DFFCDEFA2289F05007F709DFFCA9F022BBFEFCF309DFFCA9F022E709F608DFFA8046E709F208DFFA803E88828C83E709F0A3DFFA8032E309F608DFFA806EE324
:402EC00009F208DFFA806688828C83E309F0A3DFFA805A89828A83E0A3F608DFFA804E89828A83E0A3F208DFFA804280D280FA80C680D4805580F28029801080A680EA805F
:402F00009A80A880DA80E280CA802988848C8589828A83E493A30586F0A30586DFF5DEF3800B89828A83E493A3F608DFF9ECFAA9F0EDFB2288848C8589828A83E0A3058624
:402F4000F0A30586DFF6DEF480E389828A83E493A3F208DFF980D688F0EF60010E4E60CD88F0ED2402B4040050C3F582EB2402B4040050B92323458223902EEB73E709F6AD
:402F80000870FA8046E709F20870FA803E88828C83E709F0A370FA8074E309F60870FA806CE309F20870FA806488828C83E309F0A370FA805889828A83E0A3F60870FA80FC
:402FC0004C89828A83E0A3F20870FA804080D280FA80C680D4805180F28027801080A680EA809A80A880DA80E280CA802788848C8589828A83E493A30586F0A3058670F50A
:40300000800B89828A83E493A3F60870F9ECFAA9F0EDFB2288848C8589828A83E0A30586F0A3058670F680E589828A83E493A3F20870F980D888F0ED2402B4040050CEF574
:4030400082EB2402B4040050C42323458223902FCD73C5F0F8A3E028F0C5F0F8E582158270021583E038F022A3F8E0C5F025F0F0E582158270021583E0C838F0E822E6FCA2
:4030800008E6FD08E6FE08E6FF22E0FCA3E0FDA3E0FEA3E0FF22E2FC08E2FD08E2FE08E2FF22E493FC740193FD740293FE740393FF22ECF608EDF608EEF608EFF622ECF2A1
:4030C00008EDF208EEF208EFF222900005EBF0A3EAF0A3E9F090068FE064FA700302397D900005E0FBA3E0FAA3E0F8AC02AD037BFF7A3979F71230359004E874FFF0A3742F
:4031000039F0A374F8F0900005E0FBA3E0FAA3E0F9126B639004E874FFF0A37439F0A374FBF0900005E0FBA3E0FAA3E0F9126B639004E874FFF0A3743AF0A3740EF09000EF
:4031400005E0FBA3E0FAA3E0F9126B639004E874FFF0A3743AF0A3741EF0900005E0FBA3E0FAA3E0F9126B639004E874FFF0A3743AF0A37423F0900005E0FBA3E0FAA3E04E
:40318000F9126B6390007174FFF0A3743AF0A37431F090068FE0FF900074E4F0A3EFF07B017A00790A124DC69004E87401F0A37400F0A3740AF0900005E0FBA3E0FAA3E0F4
:4031C000F9126B6390007174FFF0A3743AF0A3743AF09007F6E0FF900074E4F0A3EFF07B017A00790A124DC69004E87401F0A37400F0A3740AF0900005E0FBA3E0FAA3E043
:40320000F9126B639004E874FFF0A37439F0A374F8F0900005E0FBA3E0FAA3E0F9126B639004E874FFF0A3743AF0A3744EF0900005E0FBA3E0FAA3E0F9126B639004E874A0
:40324000FFF0A3743AF0A37462F0900005E0FBA3E0FAA3E0F9126B63900692E014602104703A9004E874FFF0A3743AF0A37479F0900005E0FBA3E0FAA3E0F9126B63801C9C
:403280009004E874FFF0A3743AF0A3747DF0900005E0FBA3E0FAA3E0F9126B639004E874FFF0A3743AF0A37487F0900005E0FBA3E0FAA3E0F9126B63900693E01460210488
:4032C000703A9004E874FFF0A3743AF0A3749AF0900005E0FBA3E0FAA3E0F9126B63801C9004E874FFF0A3743AF0A374A2F0900005E0FBA3E0FAA3E0F9126B639004E8747C
:40330000FFF0A3743AF0A374AAF0900005E0FBA3E0FAA3E0F9126B63900694E0701C9004E874FFF0A3743AF0A374C0F0900005E0FBA3E0FAA3E0F9126B639004E874FFF0BE
:40334000A3743AF0A374C5F0900005E0FBA3E0FAA3E0F9126B63900695E014602814604314605E240370769004E874FFF0A3743AF0A374E1F0900005E0FBA3E0FAA3E0F949
:40338000126B6380589004E874FFF0A3743AF0A374EAF0900005E0FBA3E0FAA3E0F9126B63803A9004E874FFF0A3743AF0A374F3F0900005E0FBA3E0FAA3E0F9126B63805E
:4033C0001C9004E874FFF0A3743AF0A374FCF0900005E0FBA3E0FAA3E0F9126B639004E874FFF0A3743BF0A37406F0900005E0FBA3E0FAA3E0F9126B63900696E014602529
:40340000146040240270589004E874FFF0A3743BF0A3741EF0900005E0FBA3E0FAA3E0F9126B63803A9004E874FFF0A3743BF0A3742EF0900005E0FBA3E0FAA3E0F9126B65
:4034400063801C9004E874FFF0A3743BF0A3743EF0900005E0FBA3E0FAA3E0F9126B639004E874FFF0A37439F0A374F8F0900005E0FBA3E0FAA3E0F9126B639004E874FF48
:40348000F0A3743BF0A3744FF0900005E0FBA3E0FAA3E0F9126B63E4900008F0A3F09007F6E0FFC3900009E09F7480F8900008E0648098400302367390007174FFF0A374AC
:4034C0003BF0A37464F0900008E0FEA3E0FF900074EEF0A3EFF02497F58274063EF583E0FF900076E4F0A3EFF07B017A00790A124DC69004E87401F0A37400F0A3740AF0A6
:40350000900005E0FBA3E0FAA3E0F9126B6390007174FFF0A3743BF0A37477F07B017A00790A124DC6900008E0FEA3E02497F58274063EF583E075F003A4245EF582E43428
:403540000BF583E060199004E874FFF0A3743BF0A37489F07B017A00790A126B6380179004E874FFF0A3743BF0A3748FF07B017A00790A126B639004E874FFF0A3743BF09D
:40358000A37494F07B017A00790A126B63900008E0FEA3E02497F58274063EF583E075F003A4245FF582E4340BF583E060199004E874FFF0A3743BF0A37489F07B017A003B
:4035C000790A126B6380179004E874FFF0A3743BF0A3748FF07B017A00790A126B639004E874FFF0A3743BF0A374A2F07B017A00790A126B63900008E0FEA3E02497F58273
:4036000074063EF583E075F003A42460F582E4340BF583E060199004E874FFF0A3743BF0A37489F07B017A00790A126B6380179004E874FFF0A3743BF0A3748FF07B017A31
:4036400000790A126B639004E87401F0A37400F0A3740AF0900005E0FBA3E0FAA3E0F9126B63900009E004F07006900008E004F002349E9004E874FFF0A37439F0A374F854
:40368000F0900005E0FBA3E0FAA3E0F9126B639004E874FFF0A3743BF0A374B3F0900005E0FBA3E0FAA3E0F9126B63E4900008F0A3F09007F6E0FFC3900009E09F7480F87B
:4036C000900008E0648098400302396190007174FFF0A3743BF0A37464F0900008E0FEA3E0FF900074EEF0A3EFF02497F58274063EF583E0FF900076E4F0A3EFF07B017AF7
:4037000000790A124DC69004E87401F0A37400F0A3740AF0900005E0FBA3E0FAA3E0F9126B63900008E0FEA3E0FF2497F58274063EF583E075F003A4245EF582E4340BF548
:4037400083E070030237DC90007174FFF0A3743BF0A374C2F09006B475F013EF122DCCEE75F013A42583F583E0FDA3E0900074CDF0A3EDF09006B675F013EF122DCCEE7547
:40378000F013A42583F583E0FFA3E0900076CFF0A3EFF0900008E0A3E09006B875F013122DCCEE75F013A42583F583E0FFA3E0900078CFF0A3EFF07B017A00790A124DC65A
:4037C0009004E87401F0A37400F0A3740AF0900005E0FBA3E0FAA3E0F9126B63900008E0FEA3E0FF2497F58274063EF583E075F003A4245FF582E4340BF583E0700302381F
:403800009690007174FFF0A3743BF0A374D3F09006BA75F013EF122DCCEE75F013A42583F583E0FDA3E0900074CDF0A3EDF09006BC75F013EF122DCCEE75F013A42583F57A
:4038400083E0FFA3E0900076CFF0A3EFF0900008E0A3E09006BE75F013122DCCEE75F013A42583F583E0FFA3E0900078CFF0A3EFF07B017A00790A124DC69004E87401F0F6
:40388000A37400F0A3740AF0900005E0FBA3E0FAA3E0F9126B63900008E0FEA3E0FF2497F58274063EF583E075F003A42460F582E4340BF583E0700302395090007174FF79
:4038C000F0A3743BF0A374E5F09006C075F013EF122DCCEE75F013A42583F583E0FDA3E0900074CDF0A3EDF09006C275F013EF122DCCEE75F013A42583F583E0FFA3E09031
:403900000076CFF0A3EFF0900008E0A3E09006C475F013122DCCEE75F013A42583F583E0FFA3E0900078CFF0A3EFF07B017A00790A124DC69004E87401F0A37400F0A37486
:403940000AF0900005E0FBA3E0FAA3E0F9126B63900009E004F07006900008E004F00236B29004E874FFF0A37439F0A374F8F0900005E0FBA3E0FAA3E0F9126B63222047DB
:403980000000206D2F28735E32290000206465672F730000207261642F7300002075540000202B2F2D2032470000202B2F2D2034470000202B2F2D2038470000202B2F2DB4
:4039C000203136470000202B2F2D20323530206465672F730000202B2F2D20353030206465672F730000202B2F2D2032303030206465672F730000000D0A004669726D77C4
:403A00006172652076657273696F6E3A2000494D55626F617264207620312E3030000D0A0D0A0044455649434520494E464F0D0A0049443A2025640D0A00494D5520436FE1
:403A40006E6E65637465643A2025640D0A0044455649434520504152414D45544552530D0A00416363656C65726F6D657465727320756E6974793A2000470D0A006D2F280D
:403A8000735E32290D0A004779726F73636F70657320756E6974793A20006465672F730D0A007261642F730D0A004D61676E65746F6D657465727320756E6974793A2000FB
:403AC00075540D0A00416363656C65726F6D65746572732066756C6C2072616E67653A20002B2F2D2032470D0A002B2F2D2034470D0A002B2F2D2038470D0A002B2F2D208A
:403B00003136470D0A004779726F73636F7065732066756C6C2072616E67653A20002B2F2D20323530206465672F730D0A002B2F2D20353030206465672F730D0A002B2F52
:403B40002D2032303030206465672F730D0A00494D557320434F4E46494755524154494F4E0D0A00496D75202564200D0A0949443A2025640D0A0009416363656C65726FFE
:403B80006D65746572733A20005945530D0A004E4F0D0A00094779726F73636F7065733A2000094D61676E65746F6D65746572733A200053454E534F525320494E464F0D8A
:403BC0000A00094163633A2025640925640925640D0A00094779726F3A2025640925640925640D0A00094D61673A2025640925640925640D0A000000000000000000000089
:403C00000000000000000000000000000000000000000000000000000000000000000000000000000000000000000000000000000000000000000000000000000000000084
:403C40000000000000000000000000000000000000000000000000000000000000000000000000000000000000000000000000000000000000000000000000000000000044
:403C80000000000000000000000000000000000000000000000000000000000000000000000000000000000000000000000000000000000000000000000000000000000004
:403CC00000000000000000000000000000000000000000000000000000000000000000000000000000000000000000000000000000000000000000000000000000000000C4
:403D00000000000000000000000000000000000000000000000000000000000000000000000000000000000000000000000000000000000000000000000000000000000083
:403D40000000000000000000000000000000000000000000000000000000000000000000000000000000000000000000000000000000000000000000000000000000000043
:403D80000000000000000000000000000000000000000000000000000000000000000000000000000000000000000000000000000000000000000000000000000000000003
:403DC00000000000000000000000000000000000000000000000000000000000000000000000000000000000000000000000000000000000000000000000000000000000C3
:403E00000000000000000000000000000000000000000000000000000000000000000000000000000000000000000000000000000000000000000000000000000000000082
:403E40000000000000000000000000000000000000000000000000000000000000000000000000000000000000000000000000000000000000000000000000000000000042
:403E80000000000000000000000000000000000000000000000000000000000000000000000000000000000000000000000000000000000000000000000000000000000002
:403EC00000000000000000000000000000000000000000000000000000000000000000000000000000000000000000000000000000000000000000000000000000000000C2
:403F00000000000000000000000000000000000000000000000000000000000000000000000000000000000000000000000000000000000000000000000000000000000081
:403F4000000000000000000000000000000000000000000000000000000000000000000000000000000000000000000000000000000000000000000000000031202D20445F
:403F800065766963652049443A0032202D20416363656C65726F6D657465727320756E6974793A00000000000000000033202D204779726F73636F70657320756E69747907
:403FC0003A0000000000000034202D204D61676E65746F6D657465727320756E6974793A0000000035202D20416363656C65726F6D65746572732066756C6C2072616E670D
:40400000653A00000000000000000036202D204779726F73636F7065732066756C6C2072616E67653A0000000000000000000000000000000030202D3E20470A31202D3EEE
:40404000206D2F28735E32290A0030202D3E207261642F730A31202D3E206465672F730A0030202D3E202B2F2D2032470A31202D3E202B2F2D2034470A32202D3E202B2F6C
:404080002D2038470A33202D3E202B2F2D203136470A0030202D3E202B2F2D20323530206465672F730A31202D3E202B2F2D20353030206465672F730A32202D3E202B2F8D
:4040C0002D2032303030206465672F730A00C0E0C0F0C083C082C085C084C086758600C093759300C0D075D000C000C001C002C003C004C005C006C0079005117401F0A31C
:40410000E4F0A304F0A3E4F0A3F0900510F09007F6E0FF900510E0FEC39F400302442F74972EF582E43406F583E0FF7E00126F35900510E02497F582E43406F583E0FF7E69
:4041400000126BCE900510E0FD2497F582E43406F583E0FF75F006A424F3F582E4340AF583E0FB900514E4F0A3EBF0EF75F006A424F4F582E4340AF583E0FB900515E0FE34
:40418000EBFF75F013EDA424B4F582E5F03406F583EEF0A3EFF0900510E0FD2497F582E43406F583E0FF75F006A424F5F582E4340AF583E0FB900514E4F0A3EBF0EF75F04A
:4041C00006A424F6F582E4340AF583E0FB900515E0FEEBFF75F013EDA424B6F582E5F03406F583EEF0A3EFF0900510E0FD2497F582E43406F583E0FF75F006A424F7F58292
:40420000E4340AF583E0FB900514E4F0A3EBF0EF75F006A424F8F582E4340AF583E0FB900515E0FEEBFF75F013EDA424B8F582E5F03406F583EEF0A3EFF0900510E0FD24AD
:4042400097F582E43406F583E0FF75F006A4245DF582E43408F583E0FB900514E4F0A3EBF0EF75F006A4245EF582E43408F583E0FB900515E0FEEBFF75F013EDA424BAF58E
:4042800082E5F03406F583EEF0A3EFF0900510E0FD2497F582E43406F583E0FF75F006A4245FF582E43408F583E0FB900514E4F0A3EBF0EF75F006A42460F582E43408F5E7
:4042C00083E0FB900515E0FEEBFF75F013EDA424BCF582E5F03406F583EEF0A3EFF0900510E0FD2497F582E43406F583E0FF75F006A42461F582E43408F583E0FB90051457
:40430000E4F0A3EBF0EF75F006A42462F582E43408F583E0FB900515E0FEEBFF75F013EDA424BEF582E5F03406F583EEF0A3EFF0900510E0FD2497F582E43406F583E0FFD9
:4043400075F006A424F7F582E43407F583E0FB900514E4F0A3EBF0EF75F006A424F8F582E43407F583E0FB900515E0FEEBFF75F013EDA424C0F582E5F03406F583EEF0A34E
:40438000EFF0900510E0FD2497F582E43406F583E0FF75F006A424F9F582E43407F583E0FB900514E4F0A3EBF0EF75F006A424FAF582E43407F583E0FB900515E0FEEBFF6E
:4043C00075F013EDA424C2F582E5F03406F583EEF0A3EFF0900510E0FD2497F582E43406F583E0FF75F006A424FBF582E43407F583E0FB900514E4F0A3EBF0EF75F006A437
:4044000024FCF582E43407F583E0FB900515E0FEEBFF75F013EDA424C4F582E5F03406F583EEF0A3EFF0900510E004F002410E900AEEE06401600302470D9005167495F0BE
:40444000900510E4F09007F6E0FF900510E0FEC39F40030246DB900674743AF074972EF582E43406F583E075F003A4245EF582E4340BF583E0607B900510E0FF75F013A443
:4044800024B4F582E5F03406F583E0FCA3E0FD900511E0FE2474F582E43406F583ECF0A3EDF075F013EFA424B6F582E5F03406F583E0FCA3E0FD74762EF582E43406F583E1
:4044C000ECF0A3EDF0900510E075F013A424B8F582E5F03406F583E0FCA3E0FD74782EF582E43406F583ECF0A3EDF0900511E02406F0900510E0FF2497F582E43406F5831A
:40450000E075F003A4245FF582E4340BF583E06078900510E0FE75F013A424BAF582E5F03406F583E0FCA3E0FD900511E0FB2474F582E43406F583ECF0A3EDF075F013EE83
:40454000A424BCF582E5F03406F583E0FCA3E0FD74762BF582E43406F583ECF0A3EDF075F013EFA424BEF582E5F03406F583E0FEA3E0FF74782BF582E43406F583EEF0A3EF
:40458000EFF0900511E02406F0900510E0FF2497F582E43406F583E075F003A42460F582E4340BF583E06078900510E0FE75F013A424C0F582E5F03406F583E0FCA3E0FD19
:4045C000900511E0FB2474F582E43406F583ECF0A3EDF075F013EEA424C2F582E5F03406F583E0FCA3E0FD74762BF582E43406F583ECF0A3EDF075F013EFA424C4F582E522
:40460000F03406F583E0FEA3E0FF74782BF582E43406F583EEF0A3EFF0900511E02406F0900510E02497F582E43406F583E025E024C7F582E4340AF583E0FEA3E02473F539
:404640008274063EF583743AF09005117401F0A3E4F0900510E02497F582E43406F583E0F925E024C7F582E4340AF583E0FEA3E0FF900512E0FDD3EF9D7480F8EE648098A8
:40468000402BE0FF2474F582E43406F583E0FEEF900513E02DFDE433FC74162DF58274053CF583EEF0900512E004F080A5E925E024C7F582E4340AF583E0A3E0FF900513AC
:4046C000E02FF07E007F147D007B017A067974122E6F900510E004F00244457B017A057916900B59E0A3E014FD12720B900B59E0FCA3E0FD2415F58274053CF583EFF07B89
:40470000017A057916126957900AEEE4F0D007D006D005D004D003D002D001D000D0D0D093D086D084D085D082D083D0F0D0E032900005EEF0A3EFF078077C007D017BFF6F
:404740007A3B79F67E037F85122F5790038C7403F0A37485F078927C037D017BFF7A3F797B7E007F0F122F5778A17C037D017BFF7A3F798A7E007F22122F5778C37C037DDA
:40478000017BFF7A3F79AC7E007F1C122F5778DF7C037D017BFF7A3F79C87E007F1C122F5778FB7C037D017BFF7A3F79E47E007F27122F5778227C047D017BFF7A40790B6A
:4047C0007E007F2A122F57784C7C047D017BFF7A4079357E007F15122F5778617C047D017BFF7A40794A7E007F17122F5778787C047D017BFF7A4079617E007F32122F576F
:4048000078AA7C047D017BFF7A4079937E007F3B122F577B017A0379921276698F0D7B017A0379A11276698F0E7B017A0379C31276698F0F7B017A0379DF1276698F107BF6
:40484000017A0379FB1276698F117B017A0479221276698F127B017A04794C1276698F137B017A0479611276698F147B017A0479781276698F157B017A0479AA1276698FB7
:4048800016900007740CF0A37406F0900005E0FEA3E0FFEE6003024D60EFB407004003024D609048A9F82828730248BE024D23024D2C024D35024D3E024D49024D5590002F
:4048C000097402F0A314F090068FE090000BF0750B00850D0CE50C450B602CC3E50D950CFFE4950BFE74922FF58274033EF583E0FD740C2FF58274003EF583EDF0E50C1567
:404900000C7002150B80CEE490003BF0A304F0900692E090003DF014601F0470369004E874FFF0A37439F0A3747EF07B017A0379A1126B63750E1C801A9004E874FFF0A301
:404940007439F0A37482F07B017A0379A1126B63750E22750B00850E0CE50C450B602CC3E50E950CFFE4950BFE74A12FF58274033EF583E0FD743E2FF58274003EF583ED81
:40498000F0E50C150C7002150B80CE743E250EF582E43400F5837401F0E490006DF0A304F0900693E090006FF014601F0470369004E874FFF0A37439F0A3748CF07B017A7F
:4049C0000379C3126B63750F1C801A9004E874FFF0A37439F0A37494F07B017A0379C3126B63750F1C750B00850F0CE50C450B602CC3E50F950CFFE4950BFE74C32FF5824C
:404A000074033EF583E0FD74702FF58274003EF583EDF0E50C150C7002150B80CE7470250FF582E43400F5837402F0E490009FF0A304F0900694E09000A1F0701A9004E899
:404A400074FFF0A37439F0A3749CF07B017A0379DF126B6375101C750B0085100CE50C450B602CC3E510950CFFE4950BFE74DF2FF58274033EF583E0FD74A22FF582740023
:404A80003EF583EDF0E50C150C7002150B80CEE49000D1F0A304F0900695E09000D3F014602614603F1460582403706E9004E874FFF0A37439F0A374A1F07B017A0379FBF5
:404AC000126B6375112680529004E874FFF0A37439F0A374AAF07B017A0379FB126B6375112680369004E874FFF0A37439F0A374B3F07B017A0379FB126B63751126801A6D
:404B00009004E874FFF0A37439F0A374BCF07B017A0379FB126B63751127750B0085110CE50C450B602CC3E511950CFFE4950BFE74FB2FF58274033EF583E0FD74D42FF544
:404B40008274003EF583EDF0E50C150C7002150B80CE74D42511F582E43400F5837403F0E4900103F0A304F0900696E0900105F014602314603C240270529004E874FFF02F
:404B8000A37439F0A374C6F07B017A047922126B6375122980369004E874FFF0A37439F0A374D6F07B017A047922126B63751229801A9004E874FFF0A37439F0A374E6F046
:404BC0007B017A047922126B6375122A750B0085120CE50C450B602CC3E512950CFFE4950BFE74222FF58274043EF583E0FD74062FF58274013EF583EDF0E50C150C7002D0
:404C0000150B80CE74062512F582E43401F5837404F0750B0085130CE50C450B602CC3E513950CFFE4950BFE744C2FF58274043EF583E0FD74352FF58274013EF583EDF04F
:404C4000E50C150C7002150B80CE750B0085140CE50C450B602CC3E514950CFFE4950BFE74612FF58274043EF583E0FD74CB2FF58274013EF583EDF0E50C150C7002150B5B
:404C800080CE750B0085150CE50C450B602CC3E515950CFFE4950BFE74782FF58274043EF583E0FD74612FF58274023EF583EDF0E50C150C7002150B80CE750B0085160C9A
:404CC000E50C450B602CC3E516950CFFE4950BFE74AA2FF58274043EF583E0FD74F72FF58274023EF583EDF0E50C150C7002150B80CE7B017A00790790038CE0A3E014FD23
:404D000012720B90038CE0FCA3E0FD2406F58274003CF583EFF07B017A00790712695712772B22900901E09006A9F022900901E09006ACF022900901E09006ADF0229009A2
:404D400001E09006AEF0E4F022900901E09006AFF012713B22900901E09006B0F012713B22E50B2471F582E43400F583E0050B2290006E300803900071E475F001122DD8D0
:404D8000022BA22001E97F2ED2018018EF540F2490D43440D4FF30050BEF24BFB41A0050032461FFE50C6002150C050FE50F7002050E30080E90006EE475F001122DD8EF95
:404DC000022BE80273B07403D2088003E4C208F50B90006E122DEFE4F50CF50EF50FE50C60077F20124DA480F5750DFFC202C201C203C204C206C207C209124D70FF700D36
:404E00003008057F00124DB5AF0FAE0E22B4255FC2D5C205124D70FF24D0B40A00501A75F00A780C30D50508B6FF0106C6A426F620D5047002D20480D924CFB41A00EF50A5
:404E400004C2E5D2050250A7D20280C6D20180C0D20380BCD2D580BAD20680B47F20124DA42003077401B50C0040F1124D61FF124DA4024DDED209D2078095124D61FB12D4
:404E80004D61FA124D61F94A4B700679A57A517BFF20032EE50C602A7E008E82758300122BBB60060EEE650D70F0C2D5EBC0E0EAC0E0E9C0E0EE125108D0E0F9D0E0FAD0F4
:404EC000E0FB122BA2FF60AAEBC0E0EAC0E0E9C0E0124DA4D0E02401F9D0E03400FAD0E0FBE50D0460DCD50DD98087D20380A21250EA60F7E50D700104122950A90D600D54
:404F0000E50D600914F50D125192EF60F3EA30E702F404C3995079EAF4250D0430E701E404F50D800D1250EA60C1EA050D250D122950EA90009DF030E701E4250D04D50DC5
:404F40000420060114125108E4C0E012519290009DE0601320E70714F0124D8C802204F0D0E014C0E07F00124D8CE50D6007124D83150D800B300603124D83D0E0024DDE4D
:404F8000D0E00480C41250EA609EE50D0412295090009DEAF0E50D200602600104240412510874FF04C0E0125192124D8CE50D2006026003124D83D0E0B50DE87F45124D42
:404FC0009690009DE07F2B30E7047F2DF404C0E0124DA4D0E075F00A84C0F0124D8DD0E0124D8D024DDE791080027908C207C2098008D2D5790A8004790AC2D5E50D047024
:4050000002F50DE4FAFDFEFF124D61FC7B08200213124D61FD7B1030010A124D61FE124D61FF7B20EC3382D592D55013C3E43001069FFFE49EFEE42002039DFDE49CFCE446
:40504000CBF8C202EC700CCFCECDCCE824F8F870F38017C3EF33FFEE33FEED33FDEC33FCEB33FB994002FB0FD8E9EB300205F8D0E0C448B202C0E00AEC4D4E4F78207B00FE
:4050800070C2EAB50D0040BCC0E012510AD0F0D0E0200204C4C0E0C4B202C0F0124D8DD0F0D5F0EB024DDE122DF84E7B534FE6584E4C4C4E48424FEA4F4FF2444FF2494EDB
:4050C00061434FF8554F25464F85454EEF4751C5504E502D4E542E4E772B4E58234E752051AE2A4E104800004E6FE50DB4FF03750D06124D61FC124D61FD124D61FE124D2A
:4051000061FF90009602298D790AA2D5200414300609B910020404B9080104A2D52007025001042003689203B50C005034C0E07F203004197F30A20372077206500F12513A
:4051400061C203C207C206C2097F30800F300603E9C0E0124DA4300603D0E0F9D0E0B50CCC3006177F30B9100C124DA47F583005077F788003B90803124DA43003057F2D7F
:40518000024DA47F202009F87F2B2007F322920380CF7F00B40700500B2496F582E43400F583E0FF22286E756C6C2900D202124D613002F8C202780C30D50108F6024E10A5
:4051C0002D50434958124D612403B405004001E49051C093124D95743A124D95D204750C04024FE6E49004E8F0FE7F13FD7B017A0679B3122E6F7E007F117D007B017A06F2
:405200007997122E6F900695E0FF14601314601B1460232403702AE4900B91F0A3F08028900B91E4F0A37408F0801D900B91E4F0A37410F08012900B91E4F0A37418F08008
:4052400007E4900B91F0A3F07401A807088002C333D8FC900983F0900696E014601514602324027030E49006B1F0A3F0900AE904F080319006B1E4F0A37480F0900AE974AF
:4052800002F080209006B1E4F0A37418F0900AE97408F0800F9006B1E4F0A37418F0900AE97408F0E49004E7F09004E7E0FFC3941150587E00126F35E47F0AFEFDFC1269AF
:4052C000E4125FECE47F0AFEFDFC1269E49004E7E0FF75F003A4245EF582E4340BF5837401F0EF75F003A4245FF582E4340BF5837401F0EF75F003A42460F582E4340BF548
:4053000083E4F09004E7E004F0809EE47F32FEFDFC1269E4E49004E7F09004E7E0FFC3941150177E00126F359004E7E0FF7E00126A6C9004E7E004F080DFE4FFFE126F350D
:40534000E47F0AFEFDFC1269E47F751275D29004E9E4F0A3EFF0E49004E9F0A3F09007F6F09004E7F09004E7E0FFC39411505F7E00126F35E47F0AFEFDFC1269E47F751210
:4053800075D27E009004E9EEF0A3EFF0647170239007F6E004F0E49004E9F0A3F09004E7E025E024EBF582E43404F583E4F0A304F080139004E7E025E024EBF582E4340424
:4053C000F583E4F0A3F09004E7E004F080977E007F137D007B017A0679B3122E6F7E007F117D007B017A067997122E6F7E007F227D007B017A0A79C7122E6FE49004E7F0E4
:405400009004E7E0FFC394115034EF25E024EBF582E43404F583E0FEA3E064014E70179004E7E0A3E02497F582E43406F583EFF09004E8E004F09004E7E004F080C2E4FF34
:40544000127761E47F0AFEFDFC1269E47F01127761E47F0AFEFDFC1269E4E49004E7F09004E7E0FFC3941150587E00126F35E47F0AFEFDFC1269E4125EF1E47F0AFEFDFCDD
:405480001269E49004E7E0FF75F003A4245EF582E4340BF5837401F0EF75F003A4245FF582E4340BF5837401F0EF75F003A42460F582E4340BF583E4F09004E7E004F08005
:4054C0009EE47F32FEFDFC1269E4900B59E4F0A304F0E49004E7F09007F6E0FF9004E7E0FEC39F4003025580E0FF2497F582E43406F583E0FD75F003A4245FF582E4340B87
:40550000F583E075F006A4FCED75F003A4245EF582E4340BF583E075F006A42CFD74972FF582E43406F583E0FF75F003A42460F582E4340BF583E075F006A42D2402FDEF6D
:4055400025E024C7F582E4340AF583E4F0A3EDF074972EF582E43406F583E025E024C7F582E4340AF583E0FEA3E0FF900B5AE02FF0900B59E03EF09004E7E004F00254D7DD
:40558000900B5AE004F07006900B59E004F022900037741AF0E4FFFEFDFCA3122DC0E4FFFEFDFC90003C122DC0E4FFFEFDFC900040122DC0900983E0FCE412289B7BFD7A10
:4055C0000079807838122712900038122DC09006ACE014701F900038E0FCA3E0FDA3E0FEA3E0FF7BD77AA3791C7841122712900038122DC0900AE9E0FCE412289B7BF37A35
:405600000179FA783B12271290003C122DC09006ADE014701F90003CE0FCA3E0FDA3E0FEA3E0FF7B357AFA798E783C12271290003C122DC07F197E047D167C3E90004012FE
:405640002DC09006AEE0FF80009000057498F0900038E0FCA3E0FDA3E0FEA3E0FF900006122DC090003CE0FCA3E0FDA3E0FEA3E0FF90000A122DC0900040E0FCA3E0FDA3BA
:40568000E0FEA3E0FF90000E122DC09006ACE0FCE412289B900012122DC09006ADE0FCE412289B900016122DC09006AEE0FCE412289B90001A122DC07B017A007905900072
:4056C00037E014FD12720B900037E0FE2404F582E43400F583EFF07B017A007905EEFD7C00126957227B007A4079807D027C001277AD9040827418F07B007A4079847DFF96
:405700007C0F1277AD904086741BF07B007A4079887D0B7C001277AD90408A7419F07B007A40798C7D2F7C001277AD90408E7418F07B007A4079907DE77C031277AD9040F3
:4057400092741BF09043007406F09042007452F07B0C7A01790F1278469046A1EFF07B007A4279227D107C071277AD7B007A4279207D517C121277ADE4900004F07F19FE2B
:40578000FDFC900000122DC0900000E0A3E0A3E0FEA3E0D39400EE9400404AA3E0FF64036043904225E05401FEEF25E04E5403900004F0E47FE07E01FDFC12710090000056
:4057C000E0FCA3E0FDA3E0FEA3E0FF74FFEF24FFFFEE34FFFEED34FFFDEC34FFFC900000122DC080A3900000E0A3E0A3E0FEA3E04E70057F031279757B007A4079047D0052
:405800007C011277AD9040047407F0904006E4F09040087448F0904004E4F0904009F09040017402F09043A2E0441FF0229008FEE0F50A7B017A0879FE90097EE0A3E0145E
:40584000FD12720B90097EE0FCA3E024FDF58274083CF583E0B50703D38001C34006E4900982F022E50A122DF858F50058E50158F90358FD0459130558D906593709592534
:405880000A58E90C58B58058CD8158B98258D58358BD8458C18558C58858C98A58D18B595993595D94596195596596596997596D980000597012797A2212797922127978DE
:4058C0002212797C2212797E221270092212797B221274662212797D229008FFE0FEA3E0FF127557221270FF229008FFE0FEA3E0FF1247302212767E2212762A227F087EE8
:40590000001268AAEF60067F0112761522E4FF12761522126F7EEF60067F0112761522E4FF127615221272CDEF60067F0112761522E4FF127615227F01127615E47FE87E6B
:4059400003FDFC1269E4E4FF12791CE47FE87E03FDFC1269E412787E22127385221263D3221278D222125DED2212666F2212558F22900005EEF0A3EFF0A3EDF01278BA90F8
:405980000009EFF012787490000AEEF0A3EFF0900005E0FCA3E0FD6F7002EC6E7003025AA09043A2E05401900008F0A3E0703BA3E0FEA3E0FF4E6004ED4C702EEF4E7011C2
:4059C0007B027A4079801277AF904082E054BFF022904082E04440F07B027A407980900005E0FCA3E0FD1277AF22900008E06053904001E4F090401004F0904014E4F090DB
:405A00004008E0547FF0904082E05408600A900005E07002A3E0702B7B027A40790290000AE0FCA3E0FD1277AF9040017407F0904001E0540170F89043A2E054FEF090408D
:405A400001E4F09043A2E05401602F7B027A407902900005E0FCA3E0FD1277AF900007E060047F0280027F00EF4401904001F0904001E05401602980F6227B027A40798094
:405A8000900005E0FCA3E0FD1277AF9043A2C083C082E0FF900008E0FEEF4ED082D083F022E4F509126E99EF7003025BC7E509C394064003025BC7126C978F08E522146020
:405AC00049146060147003025B57147003025BA5240470D0852625852726850827E526B43A11E527B43A0CE4F525F526F52775220180B1E525B43FACE526B40DA7E527646D
:405B00000A70A1FFFE127557809A90068FE065086004E5087004C2008002D200E4F5247522028080850824E524D394015008E4F524F522025AA4E524D394804008E4F524AF
:405B4000F522025AA4E4F523200006752203025AA4752204025AA474E22523F582E4340FF583E508F00523E523C395245003025AA4200025AF247E0078FE7C087D017B019D
:405B80007A0F79E2122F5790097EE4F0A3E524F09009827401F012582DE4F523F524F5220509025AA41524E5246003025AA4F523F5247F01127916E4FF127916E4F5220516
:405BC00009025AA4025AA42275930078007583467582E8E04401F00090480074C0F07581279076BCE4F0A3F0A3F0A3F0907010F0907019F0907020F09076007410F09076C7
:405C000004E4F0A3F0A3F0A3F09078007800087400F0A37408F0E8B8040274FFA3F0A37422F0A374BCF0A37476F0A3E4F0A3E81475F008A4F0A3B804D59070107401F09073
:405C40007014F07E707F18122604907010F0EA9010F8F0022611751B1F751CFD125CE2025C9D0265A4E493A3F8E493A34003F68001F208DFF48029E493A3F85407240CC8F0
:405C8000C333C4540F4420C8834004F456800146F6DFE4800B0102040810204080906CF2E47E019360BCA3FF543F30E509541FFEE493A360010ECF54C025E060A840B8E467
:405CC00093A3FAE493A3F8E493A3C8C582C8CAC583CAF0A3C8C582C8CAC583CADFE9DEE780BE7B007A4679E8127846EF4401FD7B007A4679E81278521267397B017A5079FE
:405D000003127846EF4402FD7B017A5079031278527B017A507913127846EF4402FD7B017A5079131278529043A0E04440F09043C2E04410F07B087A1F79E8900005E4F0D8
:405D4000A37451F0A37402F07F087E001271A47B087A1F79F0900005E4F0A37451F0A374C2F07F087E001271A47C7C7D487B007A5179F27F087E001273D77C7C7D507B004C
:405D80007A5179107F0A7E001273D77C7C7D5A7B007A5179227F087E001273D79044F47401F0904322E04408F09046ECE0C394055006904689743AF090480074F1F01256F7
:405DC000E51275037B007A4379A0C003C002900005EBF0A3EAF0A374B0F0D002D0037F0E7E001271A49043B0E054FDF022E4FF9008FFE0FEA3E0FD5404FC1313543FFCEE4E
:405E000075F003A4245EF582E4340BF583ECF0ED5402FCC313FCEE75F003A4245FF582E4340BF583ECF0ED5401FDEE75F003A42460F582E4340BF583EDF0900B59E4F0A353
:405E400004F0E49007F6E0FEEFC39E4003025EE274972FF582E43406F583E0FE75F003A4245FF582E4340BF583E075F006A4FDEE75F003A4245EF582E4340BF583E075F085
:405E800006A42DFE74972FF582E43406F583E0FD75F003A42460F582E4340BF583E075F006A42E2402FBED25E024C7F582E4340AF583E4F0A3EBF074972FF582E43406F505
:405EC00083E025E024C7F582E4340AF583E0FCA3E0FD900B5AE02DF0900B59E03CF00F025E43900B5AE004F07006900B59E004F0227D107F6B12726EE47F0AFEFDFC1269CD
:405F0000E47D207F6A12726EE47F0AFEFDFC1269E47D067F1A12726EE47F0AFEFDFC1269E49006B1E0A3E0FD7F1B12726EE47F0AFEFDFC1269E4900B91E0A3E0FD7F1C1242
:405F4000726EE47F0AFEFDFC1269E47D057F1D12726EE47F0AFEFDFC1269E47D0D7F2412726EE47F0AFEFDFC1269E47D0C7F2512726EE47F0AFEFDFC1269E47D0A7F2612A9
:405F8000726EE47F0AFEFDFC1269E47D167F6312726EE47F0AFEFDFC1269E47D817F2712726EE47F0AFEFDFC1269E47D8C7F2512726EE47F0AFEFDFC1269E47D037F261222
:405FC000726EE47F0AFEFDFC1269E47D8D7F2712726EE47F0AFEFDFC1269E4E4FD7F6B12726EE47F14FEFDFC1269E4227D107F6B12726EE47F0AFEFDFC1269E47D207F6A3B
:4060000012726EE47F0AFEFDFC1269E47D067F1A12726EE47F0AFEFDFC1269E49006B1E0A3E0FD7F1B12726EE47F0AFEFDFC1269E4900B91E0A3E0FD7F1C12726EE47F0A5E
:40604000FEFDFC1269E47D057F1D12726EE47F0AFEFDFC1269E47D0D7F2412726EE47F0AFEFDFC1269E47D0C7F2512726EE47F0AFEFDFC1269E47D0A7F2612726EE47F0AA8
:40608000FEFDFC1269E47D1F7F6312726EE47F0AFEFDFC1269E47D817F2712726EE47F0AFEFDFC1269E47D8C7F2512726EE47F0AFEFDFC1269E47D107F2612726EE47F0A0B
:4060C000FEFDFC1269E47D837F2712726EE47F0AFEFDFC1269E4E4FD7F6B12726EE47F14FEFDFC1269E422E490068AF0A3F0A3EEF0A3EFF07F3C1275D290068AEFF07F3BEC
:406100001275D290068BEFF0A3E0FCA3E0FD900AF375F006122DCCEC75F006A42583F583EFF090068AE0FF900AF475F006ED122DCCEC75F006A42583F583EFF0E490068A1C
:40614000F0A3F07F3E1275D290068AEFF07F3D1275D290068BEFF0A3E0FCA3E0FD900AF575F006122DCCEC75F006A42583F583EFF090068AE0FF900AF675F006ED122DCC82
:40618000EC75F006A42583F583EFF0E490068AF0A3F07F401275D290068AEFF07F3F1275D290068BEFF0A3E0FCA3E0FD900AF775F006122DCCEC75F006A42583F583EFF030
:4061C00090068AE0FF900AF875F006ED122DCCEC75F006A42583F583EFF0E490068AF0A3F022E490068AF0A3F0A3EEF0A3EFF07F441275D290068AEFF07F431275D29006B2
:406200008BEFF0A3E0FCA3E0FD90085D75F006122DCCEC75F006A42583F583EFF090068AE0FF90085E75F006ED122DCCEC75F006A42583F583EFF0E490068AF0A3F07F46F2
:406240001275D290068AEFF07F451275D290068BEFF0A3E0FCA3E0FD90085F75F006122DCCEC75F006A42583F583EFF090068AE0FF90086075F006ED122DCCEC75F006A4EE
:406280002583F583EFF0E490068AF0A3F07F481275D290068AEFF07F471275D290068BEFF0A3E0FCA3E0FD90086175F006122DCCEC75F006A42583F583EFF090068AE0FFB3
:4062C00090086275F006ED122DCCEC75F006A42583F583EFF0E490068AF0A3F02290068CEEF0A3EFF07F491275D290068AEFF07F4A1275D290068BEFF0A3E0FCA3E0FD904B
:4063000007F775F006122DCCEC75F006A42583F583EFF090068AE0FF9007F875F006ED122DCCEC75F006A42583F583EFF0E490068AF0A3F07F4B1275D290068AEFF07F4C90
:406340001275D290068BEFF0A3E0FCA3E0FD9007F975F006122DCCEC75F006A42583F583EFF090068AE0FF9007FA75F006ED122DCCEC75F006A42583F583EFF0E490068AD4
:40638000F0A3F07F4D1275D290068AEFF07F4E1275D290068BEFF0A3E0FCA3E0FD9007FB75F006122DCCEC75F006A42583F583EFF090068AE0FF9007FC75F006ED122DCC1A
:4063C000EC75F006A42583F583EFF0E490068AF0A3F022E4F50B9007F6E025E025E02402FE9000067494F0E4F50B9007F6E0FFE50BC39F400302649F7497250BF582E43439
:4064000006F583E0FFE50B25E025E02407F582E43400F583EFF07497250BF582E43406F583E075F003A424CBF582E43408F583E0FFE50B25E025E02408F582E43400F583B6
:40644000EFF07497250BF582E43406F583E075F003A424CCF582E43408F583E0FFE50B25E025E02409F582E43400F583EFF07497250BF582E43406F583E075F003A424CDF9
:40648000F582E43408F583E0FFE50B25E025E0240AF582E43400F583EFF0050B0263EA7B017A007906EE14FD12720B74052EF582E43400F583EFF07B017A007906EEFD7C15
:4064C000001269572290000DEBF0A3EAF0A3E9F0A3EDF0127654900010E0C3948040030265981274E4EF600302659090001174FFF090000DE0FBA3E0FAA3E0F9900016E490
:40650000F0A37410F07F40126AF0EF6407707C904722E0540260F8904722E054026009E0FF1313543FFF80027FFFEF7004900011F0900011E0704E900010E0FD7C00901160
:4065400000E0FBA3E0900016F07F40126DF5EF6407702A90001174FFF0904722E0540260F8904722E054026009E0FF1313543FFF80027FFFEF7014900011F0800E90001113
:4065800074FFF0800690001174FFF012785E800E9000117404F080069000117401F0900011E0FF2212796A126EE8E47F64FEFDFC1269E47F0112791C1274441276A6127125
:4065C000D812729E12772B7E797F721274A61276DF7E737F291274C5E4FF1279161276CC1276B9D2AF9044F474FDF01276F21275891273FD12778012773D127486E47F0A77
:40660000FEFDFC1269E47F011277611251E4E4900AEEF01277051278FCE4900B93F0C20DC20A90097EF0A3F0900982F0E4FF12792212704A127928EF701B300C0E7F01123C
:406640007946C20CC20B125AA180E9300BE67F0112794680DF7F01127922127928EF640160F8127692EF30E7C312729E80BE22E4F50B9007F6E025E02402FE90000674976D
:40668000F0E4F50B9007F6E0FFE50BC39F40030267137497250BF582E43406F583E0FFE50B25E02407F582E43400F583EFF07497250BF582E43406F583E0FF75F003A42405
:4066C0005FF582E4340BF583E0FD25E0FDEF75F003A4245EF582E4340BF583E0FF25E025E04DFF7497250BF582E43406F583E075F003A42460F582E4340BF583E04FFFE5A9
:406700000B25E02408F582E43400F583EFF0050B0266847B017A007906EE14FD12720B74052EF582E43400F583EFF07B017A007906EEFD7C0012695722E4FFFEFDFC901160
:4067400002122DC09076007410F09070107401F0907019E4F07B027A78F97DA07C021277AF9078027401F0A374A3F07B027A787904C003C002C0017BFF7A7979A8E9EAE471
:40678000AD01AC02D001D002D0031277AF7B027A7879067D087C781277AF7B027A7679047D107C001277AF7B027A767906E4FDFC1277AF9070297409F090703904F0907041
:4067C000697414F0907079741DF09070147401F0907018E0540170F8907028E0540170F8907038E0540170F8907068E0540170F8907078E0540170F822C0E0C083C082C0D5
:4068000085C084C086758600C093759300C0D075D000C001C002C003C006C007E4FBA2AF33FAD2AF9044F474FDF090646FE0FFFE541EF960069010CDE049F0EF30E54590D4
:406840006444E0FE9010CAE024AAF582E43410F583EEF07B01EB602C9010A8E060069010CC7401F09010CAE004F0E0C394204002E4F09010A9E0FE9010CAE0B506069010B6
:40688000A87401F0EF20E5A2AF02EA24FF92AFD007D006D003D002D001D0D0D093D086D084D085D082D083D0E032900006EEF0A3EFF090000C7401F01278E01275A2788EFA
:4068C0007C067D017B017A0679A87E007F09122F5790000AE4F0A304F0E4900008F0A3F090000AE0FEA3E0FF900008E0FCA3E0FDC39FEE6480F8EC648098503FEDC4F854CB
:406900000FC868FFECC454F048FE7B0174A82FF974063EFA900006E0A3E0FFED2FFD1264C5EF6007E490000CF08010900009E004F07006900008E004F080A578A87C067D38
:40694000017B017A06798E7E007F09122F571278D990000CE0FF22900688EBF0A3EAF0A3E9F0A3ECF0A3EDF07F3A12781F7F3A12781F9006A9E0FF12781F90068BE0A3E075
:40698000FF12781FE4F519F51AD390068CE0951A90068BE095194022900688E0FBA3E0FAA3E0251AF9EA3519FA122BA2FF12781F051AE51A7002051980CFE4F519F51A129F
:4069C000790AEF20E013051AE51AAE197002051914D394E8EE940340E67F01127916E4FF1279162290FFFC122E1E122DC0851B83851C82E0A3E0A3E0FEA3E0D39400EE944A
:406A000080403D9010F9E0FCA3E0FDA3E0FEA3E0FF127100851B83851C82C083C082E0FCA3E0FDA3E0FEA3E02400FFEE3480FEED34FFFDEC34FFFCD082D083122DC080ADE7
:406A40009010EFE0FCA3E0FDA3E0FEA3E0FF851B83851C82E0F8A3E0F9A3E0FAA3E0FB122BFA127100900004122E1E22E490050DF0A3EEF0A3EFF07F491275D290050DEF9A
:406A8000F0A3E0FCA3E09008CB75F003122DCCEC75F003A42583F583EFF0E490050DF07F4A1275D290050DEFF0A3E0FCA3E09008CC75F003122DCCEC75F003A42583F5830D
:406AC000EFF0E490050DF07F4B1275D290050DEFF0A3E0FCA3E09008CD75F003122DCCEC75F003A42583F583EFF0E490050DF022900013EBF0A3EAF0A3E9F090001874079A
:406B0000F0904722E05402604E90472074B6F074D5F07402F0904722E054027032904720EFF0E4FFFED3900017E09F900016E09E402B900013E0FBA3E0FAA3E02FF9EA3EFA
:406B4000FA122BA2904720F00FEF70010E80D69000187409F080069000187404F0900018E0FF229004E5EBF0A3EAF0A3E9F09004EBEBF0A3EAF0A3E9F09004E5E0FBA3E4B3
:406B800075F001123068A9F0FA122BA270EB9004E674FFF5F01230529004E8E0FBA3E475F001123068A9F0FA122BA2FF9004E5E0FBA3E475F001123068A9F0FAEF122BE8A1
:406BC00070D69004EBE0FBA3E0FAA3E0F922900688EEF0A3EFF0900B5E75F003122DCCEE75F003A42583F583E0600B900688E0FEA3E0FF1260E7900688E0FEA3E0FF900B9B
:406C00005F75F003122DCCEE75F003A42583F583E060031261E2900688E0FEA3E0FF900B6075F003122DCCEE75F003A42583F583E060031262DD2290000FEBF0A3EAF0A37A
:406C4000E9F0A3EDF0E4A3F0900012E0FFA3E0C39F503E904722E054016003D38001C340097F017E0012732C80E9904720E0FF90000FE0FBA3E0FAA3E0F9900013E0FEE994
:406C80002EF9E43AFAEF122BE8900013E004F080B7900013E0FF22E4FF9044C87402F09010A9E0FE9010CAE0FD9010A8E07004EE6D602474AA2EF582E43410F583E0FF0E11
:406CC000EEC394204002E4FE9010A9EEF09010A8E06018E4F0801490646FE0FE30E50C906444E0FFEE541E6002E4FF9044C07402F022420FE08000012200421062000141D8
:406D000010CB004110CD004110A9004110CA004110A8004110CC004111090041110A004310FD0000004410F402DC6C004410EF0000BB804110F3304410F95DC000004111E8
:406D40000B004111080041110C000012765490000E74FFF01274E4EF703B7F011272FBEF6407702C7B017A1179007D02126C37EFB40215E490000EF0904722E054027010EB
:406D80007F01FE12732C80F0904722E0540260D412785E800690000E7404F090000EE0FF22900006ECF0A3EDF0900005EFF0541F25E0FFE433FEE42FFFEE3444FAA9077B2F
:406DC000011277A0900008EEF0A3EFF0900005E075F002A42400FFE5F03444FAA9077B01A3E0FEA3E0FFFDAC061277AF900008E0FEA3E0FF22900013ECF0A3EDF0AC077D28
:406E000007904722E05402603B90472074B6F074D8F07405F0904722E054027023904720ECF0900013E0904720F0900013E0A3E0904720F0EBF0900016E0904720F0800611
:406E40007D0980027D04AF05221276541274E4EF703B12753C90000EEFF06407702A904722E0540270087F01FE12732C80F0904722E054026009E0FF1313543FFF80027F18
:406E8000FFEF700490000EF012785E800690000E7404F090000EE0FF229044C87402F09010CAE0FE9010A9E0B5060E9010A8E060047F20802CE4FF80289010CAE0FE901049
:406EC000A9E0C39E500BE0FE9010CAE0C39EFF80109010A9E0FEC374209EFE9010CAE02EFF9044C07402F022E4FFFEC3EF9409EE94005023900FE0E0FCA3E02FF582EC3EB5
:406F0000F583E0FD74A82FF58274063EF583EDF00FEF70010E80D49006A8E07004126F7E22788E7C067D017B017A0679A87E007F09122F5722900688EEF0A3EFF07F0F12A8
:406F4000795E7F03127964900688E0FEA3E0FFC3940FEE64809480500312795E900688E07004A3E0640F7004FF127964900688E07004A3E0641070057F0112796422E4FFA7
:406F8000FEC3EF9409EE9400502AEF2480FDE43EFC900FE0E0FAA3E02DF582EA3CF583E0FD74A82FF58274063EF583EDF00FEF70010E80CD9006A8E070041272CD22E4FF5E
:406FC000FE1268AA22C2D5E830E70FB2D5E4C39BFBE49AFAE499F9E498F8EC30E717B2D5126FFB122C85E4C39BFBE49AFAE499F9E498F88003122C8530D50DE4C39FFFE482
:407000009EFEE49DFDE49CFC229008FFE0D39400500B7F01127940E49006ABF0229008FFE0D394FA400374FAF09008FFE0FF7E007C017DF4122E42780A122D4C9006ABEFC3
:40704000F0127803E4FF12794022127771900AEA122DC0300C05C20C125AA178B37C067D017B017A0979847E017F43122F57300C05C20C125AA11277719008C3122DC07F3B
:40708000407E4B7D4C7C0012789C22904F00E05401F0904F02E054FCF0904F0BE054CFF0E04430F0E054F0F0E0440FF0904F01E04401F07F7F7EBB1277D97F7F7EBB12778F
:4070C000E7E4FF12791022904F0CE05401F0904F0EE054FCF0904F0DE04401F0904F17E054CFF0E04430F0E054F0F0E0440FF07F7F127803E4FF1275207F0812793A2222E2
:40710000EC4D4E700D78FCEF24E950032840FD2200007BF178DA0000EF28FF78FFEE38FEED38FDEC38FC50E7EF2BFFEE38FEED38FDEC38FC40F2220502030412796E1279B4
:4071400003E4FF127761E47F0AFEFDFC1269E47F01127761E47F0AFEFDFC1269E41251E41277051278FCE47F0AFEFDFC1269E422900005EBF0A3EAF0A3E9F0E4FDFC901029
:40718000CBE0601F900005E0FBA3E0FAA3E02DF9EA3CFA122BA2FF600A12781F0DED70010C80E122758600EF4E6027EF60010E759300900005E0F595A3E0F585A3E0F584E7
:4071C0008B938A838982E0A30586F0A31586DFF6DEF4E4F593F595227C677DF97F01126DA1E4FD7F01127570E49010CDF09064847469F090648F7420F09065267406F0906B
:4072000065367447F0906585E4F022900688EBF0A3EAF0A3E9F0E4F51AF519E519C39D5019900688E0FBA3E0FAA3E02519F9E43AFA122BA2621A051980E1AF1A2212763F0A
